:020000040000fa
:080000000002040000000000f2
:020000040000fa
:1000080004220000082200000c2200001022000038
:100018001422000000220000182200000022000024
:100028001c220000202200002422000028220000b8
:100038002c220000002200003022000034220000a0
:10004800382200003c220000402200004422000028
:10005800482200004c2200005022000054220000d8
:10006800582200005c220000602200006422000088
:10007800682200006c220000702200007422000038
:10008800782200007c2200008022000084220000e8
:10009800882200008c220000902200009422000098
:1000a800982200009c220000a0220000a422000048
:1000b800a8220000ac220000b022000000220000ac
:1000c800b4220000b822000000220000bc22000078
:1000d800c0220000c4220000c8220000cc22000078
:1000e800d0220000d4220000d8220000dc22000028
:1000f800e0220000e42200000022000000220000ac
:10010800002200000022000000220000002200005f
:1001180000220000e8220000ec220000f02200008b
:10012800f4220000f822000000220000fc22000057
:100138000023000004230000082300000022000020
:100148000022000000220000002200000c23000012
:1001580010230000142300000022000000220000e9
:1001680000220000182300001c23000020230000a8
:1001780024230000282300002c2300003023000043
:1001880034230000382300003c23000040230000f3
:1001980044230000482300004c23000050230000a3
:1001a80054230000582300005c2300006023000053
:1001b80064230000682300006c2300007023000003
:1001c80074230000782300007c23000080230000b3
:1001d80084230000882300008c2300009023000063
:1001e80000220000002200000022000094230000ea
:1001f800982300009c230000a0230000a4230000f3
:10020800a8230000ac230000b0230000b4230000a2
:10021800b8230000bc230000c0230000c423000052
:1002280000220000c8230000cc230000d0230000d7
:10023800d4230000d8230000dc230000e0230000c2
:10024800e4230000e8230000ec230000f023000072
:10025800f4230000f8230000002200000022000020
:100268000022000000220000fc2300000022000001
:1002780000220000002400000424000000220000e6
:10028800082400000c2400000022000000220000c6
:1002980000220000102400000022000000220000bc
:1002a80000220000002200000022000000220000be
:1002b80000220000002200000022000000220000ae
:1002c80014240000182400001c240000202400002e
:1002d80024240000282400002c24000030240000de
:1002e80034240000382400003c240000402400008e
:1002f8004424000000220000002200000022000028
:10030800002200000022000000220000002200005d
:1003180000220000482400004c24000000220000b5
:10032800002200000022000000220000002200003d
:10033800002200000022000000220000002200002d
:10034800002200000022000000220000002200001d
:10035800002200000022000000220000002200000d
:1003680000220000002200000022000000220000fd
:1003780000220000002200000022000000220000ed
:1003880000220000002200000022000000220000dd
:1003980000220000002200000022000000220000cd
:1003a80000220000002200000022000000220000bd
:1003b80000220000002200000022000000220000ad
:1003c800002200000022000000220000002200009d
:1003d800002200000022000000220000002200008d
:1003e800002200000022000000220000002200007d
:0803f8000022000000220000b9
:020000040000fa
:100400000f6321000eff27000e018800000020006e
:100410000000e000020032000001200020028800fd
:10042000140007001e0107000000e00003003a006e
:10043000804c210001002000020037000000200055
:1004400001002000810f70004220ae000f00070065
:10045000000020000000e0004220ae00000002008a
:1004600000000000c6170200000000000040da0093
:100470000000fe00e00420000000e0000200320066
:10048000002020009001880000000600a1028800e2
:10049000800478000000eb001f003700e284440075
:1004a00054a0b4009905ba00e284440054a0b400fa
:1004b0009906ba00e284440054a0b4000006eb00a0
:1004c000476fde00fd07b200ae018800636ce100fb
:1004d00003003a000ad801000000eb000e003700cc
:1004e000606ce10008003a00004deb000a05e800ee
:1004f000020039003420ec000af0a0008b05e9006e
:10050000f9ff3e00040037006168e100010032009d
:100510000086eb000b00070019c7ba001905ba00e6
:100520000e04e00003003a000a00e000dbff3a009e
:1005300000000600fe07b200ae0288008a047800c0
:10054000f5ff37000cd0a300e20f4d001c0039006e
:1005500089027800354dba000a05e800020039002a
:100560003420ec000af0a0008b05e9000f003200f7
:10057000254dba000a05e800020039003420ec00dd
:100580000af0a0008b05e900080032000c00e00032
:100590000600320015cdba000a05e8000200390055
:1005a0003420ec000af0a0008b05e9008984e80003
:1005b00054a0b4000b00e000e2ff3a000000060087
:1005c0009902ba00055d78008b05e900f7ff32005b
:1005d000c82ade00055d78008b05e900f3ff3200d4
:1005e0000c00e000f1ff320019ddba00eeff370029
:1005f00004082000010037000002eb006100e10068
:1006000001003200100005003200f8003400f8004c
:1006100081027800930188003200be000100e000f2
:100620000c0032000470a70000f0a0003203780034
:10063000c733de00848343004220af008703e80015
:10064000a7018800f607b2007f30e1000400320005
:10065000200020003400f9003200f90000000600fc
:100660008100e9000500e00003003a000180090074
:1006700032100300e8ff37000180090032900300c8
:10068000d561ae00e4ff370030002000f1ff3700f5
:1006900050052000b00e8800a00a2000b00e88008f
:1006a000d3e1a8000000060050052000b00e88002d
:1006b000a00a2000b00e8800d3e1a90000000600c7
:1006c0003600f800809fbe00829fbe00849fbe005f
:1006d000869fbe000000fa00c028a9000000eb00c1
:1006e000250a07000080fa004f03be004f02be003b
:1006f0004f01be004f00be003600f900004006006a
:100700003600f800809fbe00829fbe00849fbe001e
:10071000869fbe000000fa000a0a0700c048a90030
:1007200010002000140a07000080fa004f03be00ea
:100730004f02be004f01be004f00be003600f90060
:10074000004006003600f800809fbe00829fbe0079
:10075000849fbe00869fbe000000fa00c068a9000a
:1007600020002000040a07000080fa004f03be00aa
:100770004f02be004f01be004f00be003600f90020
:10078000004006003600f800809fbe00829fbe0039
:10079000849fbe00869fbe000000fa00c088a900aa
:1007a00030002000f40907000080fa004f03be006b
:1007b0004f02be004f01be004f00be003600f900e0
:1007c000004006003600f800809fbe00829fbe00f9
:1007d000849fbe00869fbe000000fa00c608a900e4
:1007e00070002000e40907000080fa004f03be00fb
:1007f0004f02be004f01be004f00be003600f900a0
:10080000004006003600f800809fbe00829fbe00b8
:10081000849fbe00869fbe000000fa002146800033
:1008200000102000008060000000e00003003200a3
:10083000c508a900c0002000cf090700214680009c
:1008400000022000008060000000e0000300320091
:10085000c4a8a90090002000c70907002046800016
:10086000700060000000e00003003200c488a900ae
:10087000a0002000c0090700204680006100600041
:100880000000e00003003200c408a900b00020000e
:10089000b9090700ffff37000040da000000fe0042
:1008a000000005008001780002003700b15978008f
:1008b0000201e9000200e000fcff3a00000006002f
:1008c00000027800808f50000c00310082814000cf
:1008d000830f500009003100820040000200370001
:1008e000c36078000201e9000200e000fcff3a006a
:1008f00000000600315a78000201e9000200e00021
:10090000fcff3a000000060080017800020037007a
:10091000815978000201e9000200e000fcff3a0082
:0409200000000600cd
:020000040000fa
:1009240000200000000000000b0800000000000090
:1009340000000000000000000000000000010000b2
:100944000020000000000000fe7700000500000009
:10095400090000000000000000000000000000008a
:100964000000000000010000000000000000000082
:100974000000000000000000000000000002000071
:1009840001000000010000000056000034000000d7
:100994000000000008080000000000000000000043
:1009a4000000000000000000000000000000000043
:0c09b40000000000002000000000000017
:020000040000fa
:1009c0000000000000000000ab4100004181000079
:1009d000fdc20000c38300005683000082020000b5
:1009e00051c40000c6860000fa8500008707000099
:1009f000ac06000005050000074700004484000025
:100a000009c90000cc8c0000a28800008d0d0000f8
:100a1000f40b00000f0f00005f4a00004e8e000034
:100a2000580d00000a0a0000f34c00004b8b000038
:100a3000a5cf0000c98900000e8e000088080000c4
:100a4000b9d30000d8980000129200009919000054
:100a5000441100001b1b0000ef5000005a9a0000d8
:100a6000e81700001e1e0000435600005f9f0000b4
:100a700015d50000dd9d0000be9400009c1c000008
:100a8000b01a0000141400001b5b00005595000014
:100a90004dd80000d7970000e69900009616000098
:100aa000e1de0000d29200004a9f00009313000094
:100ab0001c1c000011110000b75d000050900000e8
:100ac000d9e60000f0b0000072a70000b1310000cc
:100ad00024240000333300008f65000072b2000050
:100ae00088220000363600002363000077b700003c
:100af00075e00000f5b50000dea10000b434000090
:100b0000d02f00003c3c00007b6e00007dbd00004b
:100b10002ded0000ffbf000086ac0000be3e0000cf
:100b200081eb0000faba00002aaa0000bb3b0000db
:100b30007c29000039390000d768000078b800002f
:100b40006035000028280000cb74000069a900006f
:100b50009df70000ebab000036b60000aa2a0000ab
:100b600031f10000eeae00009ab00000af2f00009f
:100b7000cc3300002d2d0000677200006cac00002b
:100b800069fc0000e4a40000c2bd0000a52500002f
:100b9000943e0000272700003f7f000066a600006b
:100ba00038380000222200009379000063a300007f
:100bb000c5fa0000e1a100006ebb0000a02000000b
:100bc000198c0000a0e00000b2cd0000e16100003f
:100bd000e44e0000636300004f0f000022e20000bb
:100be0004848000066660000e309000027e70000af
:100bf000b58a0000a5e500001ecb0000e4640000fb
:100c0000104500006c6c0000bb0400002ded0000de
:100c1000ed870000afef000046c60000ee6e00005a
:100c200041810000aaea0000eac00000eb6b00006e
:100c3000bc430000696900001702000028e80000ba
:100c4000a05f0000787800000b1e000039f900005a
:100c50005d9d0000bbfb0000f6dc0000fa7a00009e
:100c6000f19b0000befe00005ada0000ff7f00008a
:100c70000c5900007d7d0000a71800003cfc00001e
:100c8000a9960000b4f4000002d70000f57500003a
:100c90005454000077770000ff15000036f600007e
:100ca000f8520000727200005313000033f300008a
:100cb00005900000b1f10000aed10000f07000001e
:100cc000c06a0000505000006b2b000011d10000e2
:100cd0003da8000093d3000096e90000d252000026
:100ce00091ae000096d600003aef0000d757000002
:100cf0006c6c000055550000c72d000014d4000096
:100d0000c9a300009cdc000062e20000dd5d000081
:100d1000346100005f5f00009f2000001ede0000c5
:100d2000986700005a5a0000332600001bdb0000c1
:100d300065a5000099d90000cee40000d858000055
:100d400079b9000088c80000d2f80000c949000045
:100d5000847b00004b4b00002f3a00000aca0000c1
:100d6000287d00004e4e0000833c00000fcf0000a5
:100d7000d5bf00008dcd00007efe0000cc4c0000f1
:100d80007070000044440000db31000005c5000025
:100d90008db2000087c7000026f30000c6460000a1
:100da00021b4000082c200008af50000c3430000a5
:100db000dc760000414100007737000000c00000f1
:100dc00099590000004000003218000041c10000a5
:100dd000649b0000c3c30000cfda00008242000021
:100de000c89d0000c6c6000063dc00008747000005
:100df000355f0000054500009e1e000044c4000051
:100e000090900000cccc00003bd100008d4d000044
:100e10006d5200000f4f0000c61300004ece0000c0
:100e2000c15400000a4a00006a1500004bcb0000c4
:100e30003c960000c9c9000097d700008848000010
:100e4000208a0000d8d800008bcb00009959000000
:100e5000dd4800001b5b0000760900005ada000044
:100e6000714e00001e5e0000da0f00005fdf000020
:100e70008c8c0000dddd000027cd00009c5c0000b4
:100e800029430000145400008202000055d50000e0
:100e9000d4810000d7d700007fc000009656000024
:100ea00078870000d2d20000d3c600009353000020
:100eb00085450000115100002e04000050d00000b4
:100ec00040bf0000f0f00000ebfe0000b171000038
:100ed000bd7d000033730000163c000072f200007c
:100ee000117b000036760000ba3a000077f7000068
:100ef000ecb90000f5f5000047f80000b4740000fc
:100f0000497600003c7c0000e23700007dfd0000d7
:100f1000b4b40000ffff00001ff50000be7e00001b
:100f200018b20000fafa0000b3f30000bb7b000027
:100f3000e5700000397900004e31000078f80000bb
:100f4000f96c000028680000522d000069e90000db
:100f500004ae0000ebeb0000afef0000aa6a000057
:100f6000a8a80000eeee000003e90000af6f00004b
:100f7000556a00002d6d0000fe2b00006cec000097
:100f8000f0a50000e4e400005be40000a5650000bb
:100f90000d67000027670000a626000066e6000037
:100fa000a1610000226200000a20000063e300004b
:100fb0005ca30000e1e10000f7e20000a060000097
:100fc00080d50000a0a000002b940000e1210000cb
:100fd0007d17000063230000d656000022a2000007
:100fe000d1110000662600007a50000027a70000fb
:100ff0002cd30000a5a5000087920000e424000087
:10100000891c00006c2c0000225d00002dad00004a
:1010100074de0000afaf0000df9f0000ee2e000086
:10102000d8d80000aaaa000073990000eb2b00009a
:10103000251a0000692900008e5b000028a8000026
:1010400039060000783800009247000039b90000e6
:10105000c4c40000bbbb00006f850000fa3a00006a
:1010600068c20000bebe0000c3830000ff3f000056
:10107000950000007d3d00003e4100003cbc0000aa
:1010800030cf0000b4b400009b8e0000f5350000a6
:10109000cd0d000077370000664c000036b600002a
:1010a000610b000072320000ca4a000033b3000036
:1010b0009cc90000b1b1000037880000f03000008a
:1010c0005933000050100000f2720000119100002e
:1010d000a4f10000939300000fb00000d2120000b2
:1010e00008f7000096960000a3b60000d71700008e
:1010f000f5350000551500005e74000014940000e2
:1011000050fa00009c9c0000fbbb0000dd1d0000ad
:10111000ad3800005f1f0000067900001e9e000031
:10112000013e00005a1a0000aa7f00001b9b00002d
:10113000fcfc00009999000057bd0000d818000081
:10114000e0e00000888800004ba10000c909000011
:101150001d2200004b0b0000b66300000a8a00004d
:10116000b12400004e0e00001a6500000f8f000031
:101170004ce600008d8d0000e7a70000cc0c0000bd
:10118000e9290000440400004268000005850000d1
:1011900014eb000087870000bfaa0000c60600000d
:1011a000b8ed00008282000013ac0000c303000011
:1011b000452f000041010000ee6e0000008000009d
:1011c000809fbe00821f7800a00021000110200037
:1011d000a1028800014e2000022020003118ba0030
:1011e0000201e900fdff3a004f0178004f00be0008
:1011f000000006005400f800889fbe00e0080200ce
:10120000000000000404be002800b0000980b00007
:101210000203be00a40021000600b00005003a0051
:101220000700b00003003a000001eb008001eb0072
:10123000070037000830e10002003a000938e100f9
:1012400031003200a70288001601ba009681ba0068
:10125000c80ade0082c26a00c22add00850242009e
:10126000c808dd000080fd00814068000040eb0000
:10127000350068009580680081026900c82ade0098
:10128000c22add0085024200c808dd000080fd00a2
:10129000814068000040eb003500680095806800e0
:1012a000c80ade0083c26a00c22add00850242004d
:1012b000c808dd000080fd00814068000040eb00b0
:1012c000350068009580680081826900c82ade00c8
:1012d000c22add0085024200c808dd000080fd0052
:1012e000814068000040eb00350068009580680090
:1012f0002600b0000780b0000830e100d1ff3a00be
:101300000938e100cfff3a004f04be005400f90055
:0413100000000600d3
:020000040000fa
:101314001800fa0010c0b30040479800c0502100e4
:1013240030079800b1002000c0502100b705070025
:101334006c004700b2002000c150210058fd070096
:101344003e019000f24190008381fb00024a90002c
:101354000482fb004822dd008481710003007800d0
:10136400924990008381fb00224990000281fb0096
:101374004811dd000281710082007800008fbe00f8
:1013840000802f00f1ff2f001e01be000202780032
:1013940003017800800178000100780003026200f4
:1013a400000061008000eb00c000dd0000002000b0
:1013b4000001be006120b80000017100818171004c
:1013c400be0f5100ae8f5900020032000040eb0006
:1013d400404798003e019000b24190008381fb0099
:1013e400424290000482fb004822dd0084817100a7
:1013f40003007800d24190008381fb006241900099
:101404000281fb004811dd00028171008200780036
:10141400960207001f003700008020000100200012
:101424003e014000ae8148000200be000001be0043
:101434001e00be00d90507000004e00013003200be
:101444001e01be000000eb00fd05070040079800e8
:10145400510798004e009000de009000b202070091
:101464000080fb0000f0a7000000ea000000ea0092
:101474004f00de004047980000802000010020005b
:101484001e0f40005e974800020037000040eb004a
:10149400404798004e4090000004e00020003200d5
:1014a4003e019000f24190008381fb00024a9000cb
:1014b4000482fb004822dd0084817100030078006f
:1014c400924990008381fb00224990000281fb0035
:1014d4004811dd0002817100820078003e01900015
:1014e400924190008381fb00224190000281fb0025
:1014f4004811dd00028171006112b8004b29dd0042
:10150400c521de00830171004b21dd000000410094
:1015140081804900be0f5000ae8f5800beff3e00d0
:10152400570207004e4090000004e0002300320000
:101534003e019000f24190008381fb00024a90003a
:101544000482fb004822dd008481710003007800de
:10155400924990008381fb00224990000281fb00a4
:101564004811dd0002817100820078003e01900084
:10157400924190008381fb00224190000281fb0094
:101584004811dd00028171006112b8004b29dd00b1
:10159400c521de00830171004b21dd000000410004
:1015a40081804900be0f5000ae8f580003003a00fe
:1015b40010c0b3007057980002003700e0cfb300aa
:1015c400705798006c004700c100200043050700d5
:1015d4003e009000b040900060c16000a1cab3001a
:1015e40081407100314098004041900080c0eb0080
:1015f4008140710041409800d040900060c160007b
:1016040051c5b30081407100514098006041900081
:1016140080c0eb0081407100614098007e509000d2
:10162400e14f500002003a000000eb0001003700d7
:0c163400300020000080fa0000000600da
:020000040000fa
:101640002200fa00c050210010079800200020005e
:10165000de0507000080fb004800dd002007980041
:1016600010002000d90507000080fb00ae009000ac
:101670000100700020079800a4040700ae0090004d
:10168000eb804000810f500002003100200020005c
:10169000980037002e0090006b004000800078001a
:1016a000c0502100da0407006e004700b20020009d
:1016b000c15021007bfc070010c0b300105f9800f0
:1016c0001e019000f24190008381fb00024a9000cd
:1016d0000482fb004822dd00848171000300780051
:1016e000924990008381fb00224990000281fb0017
:1016f0004811dd00028171008200780030079800f7
:10170000410798002e0090000000d1006101b80050
:101710003e009000ce009000020040008380480010
:101720000001be003e009000ce0090001c050700a6
:101730000004e000510032002e00900067006000bd
:101740000000e0004d003a00ae009000500f200075
:10175000808f500049003e001e019000b241900071
:101760008381fb00424290000482fb004822dd009e
:101770008481710003007800d24190008381fb00d6
:10178000624190000281fb004811dd00028171007e
:1017900082007800b60107000000eb00000f78001f
:1017a000300037001e019000f24190008381fb0061
:1017b000024a90000482fb004822dd00848171000f
:1017c00003007800924990008381fb002249900039
:1017d0000281fb004811dd00028171008200780067
:1017e0001e0178000201d1008001eb0000004100e1
:1017f000818049000001be000000eb0011050700d8
:1018000050079800610798001e0090006b00400090
:101810009e0040007a0047008200200021fc070063
:101820007e0990008e1190005e089000ee089000f6
:101830000202be000001be005e009000ee009000bb
:10184000c80107000004a2000004e0000300320009
:10185000e0cfb300105f9800060037009e007800cc
:10186000688f40002e0090009e007800808f50000e
:10187000ccff39008301070002003700e0cfb3003e
:10188000105f98006e004700c1002000940407001c
:101890001e009000b040900060c16000a1cab3007b
:1018a00081407100314098004041900080c0eb00c1
:1018b0008140710041409800d040900060c16000bc
:1018c00051c5b300814071005140980060419000c3
:1018d00080c0eb0081407100614098001e5890006c
:1018e000e14f500002003a000000eb000100370019
:0c18f000300020000080fa00000006001c
:020000040000fa
:1018fc001e00fa00c0502100300798006000b800ac
:10190c00008fbe00b1002000c05021003d04070034
:10191c0070004700b2002000c1502100defb070020
:10192c003e019000f24190008381fb00024a90003e
:10193c000482fb004822dd008481710003007800e2
:10194c00924990008381fb00224990000281fb00a8
:10195c004811dd0002817100820078003e01900088
:10196c00924190008381fb00224190000281fb0098
:10197c004811dd00028171008001eb000000410084
:10198c008180490061025000e08258003e019000c5
:10199c00f24190008381fb00024b90000683fb0018
:1019ac004833dd0086817100030078009249900075
:1019bc008381fb00224990000281fb004811dd006d
:1019cc0002817100820078000401be0071040700de
:1019dc000004e0005f0032000000eb0020079800dc
:1019ec00490037003e019000f24190008381fb00da
:1019fc00024a90000482fb004822dd0084817100c1
:101a0c0003007800924990008381fb0022499000ea
:101a1c000281fb004811dd00028171008200780018
:101a2c002e0190000201d1008001eb00000041006a
:101a3c00818049000001be000000eb007e0407001d
:101a4c0040079800510798004e009000de0090006f
:101a5c002601070060079800710798006e0190003e
:101a6c00fe019000f0ff2f00010020000202780020
:101a7c008301780000017800010078000201620007
:101a8c00008061008000eb00c000dd000000200041
:101a9c000002be006110b800000272008182720068
:101aac006e009000fe0090004009de000300200054
:101abc00f00f2000010020000203780003017800e1
:101acc0080017800010078000303630000006100ce
:101adc008000eb00c000dd00000020000001be0013
:101aec006130b80000017100818171000400410077
:101afc00858049001e0f40005e9748002e00900024
:101b0c0064004000200798003e0090009040900038
:101b1c008180fb00204090000080fb004800dd002d
:101b2c0000807000800078002e009000808f5000a4
:101b3c00acff3e001e007800600f980010c0b30090
:101b4c00305f980070004700e1002000e1030700bf
:101b5c000d003700e0cfb300305f98008e08900086
:101b6c00f00f200000806000000f98009e0890008d
:101b7c0000f02f0000806000100f980070004700ec
:101b8c00c1002000d30307003e589000e14f5000e5
:101b9c0002003a000000eb0001003700300020008a
:081bac000080fa0000000600b1
:020000040000fa
:101bb4001200fa00889fbe00000f98000e089000e3
:101bc4000000e000020032000040eb00a3003700f8
:101bd400e0268400f12684000001be000e08900077
:101be4001704070064014700390207004e00900003
:101bf400de009000970407000004e00002003200b9
:101c04000040eb00950037006e009000fe0090004d
:101c1400900407000004e000020032000040eb00e2
:101c24008e0037004e019000de019000f0ff21008d
:101c340001002000800f5100818f590002003e00f6
:101c44000040eb00850037006e019000fe0190001b
:101c5400f0ff210001002000800f5100818f590006
:101c640002003e000040eb007c0037004e01900073
:101c7400de019000e07f270051002000800f51001a
:101c8400818f5900020036000040eb0073003700da
:101c94006e019000fe019000e07f270051002000bb
:101ca400800f5100818f5900020036000040eb0084
:101cb4006a0037004e019000de0190006e00900033
:101cc400fe009000800f5100818f59000200360001
:101cd4000040eb00610037004e019000de019000ef
:101ce400e0268400f1268400800f5100818f590082
:101cf40007003e006e019000fe019000e026840083
:101d0400f1268400800f5100818f590011003100a9
:101d14006e009000fe0090000001be000e089000ce
:101d2400c70307000004be004e009000de009000d0
:101d34000001be000e089000c10307000802be00a7
:101d44000001be006000b80029fd0700008fbe003e
:101d5400370037006000b800008fbe004e019000cd
:101d6400de019000e0268400f1268400800f5100fb
:101d7400818f590012003200e0268400f12684008d
:101d840062005000e08058000001be000e08900080
:101d9400ab0307000004be004e009000de0090007c
:101da4000001be000e089000a50307000802be0053
:101db4000001be001e00be000dfd0700008fbe0026
:101dc4006022b8006011b8001e00be0008fd0700c4
:101dd400008fbe006022b8006011b8001e00be0073
:101de40003fd0700008fbe006e009000fe0090000f
:101df4000001be000e089000910307000004be001d
:101e0400e0268400f126840064004000e08048005d
:101e14000001be000e089000890307000802be00fe
:101e24000001be001e00be00f1fc0700008fbe00d2
:101e34002e009000be0090003e016800ae81680054
:101e44000200be000080700000f0a7000000ea005d
:101e54000000e9004f00de00004078004f04be009f
:081e64000080fa0000000600f6
:020000040000fa
:101e6c000000fe00c2622100001978000109780010
:101e7c00000006000000fe000000eb008000eb00fc
:101e8c00f8ff0700d628ef00000006000000fe0057
:101e9c000000fe00801f7800811f7800821f7800f0
:101eac00c162210012468000c3e8a900310078000d
:101ebc00b046880011007800b0468800d1e8a80030
:101ecc000000000000000000d1e8af00feff37006a
:101edc0002f0a700c3e8a8004f017800cf007800fb
:101eec004f007800000006000000fe00a2028000f7
:101efc00a10288009080ba001000ba00a2028800eb
:101f0c00000006000000fe00a2028000a102880072
:101f1c001000ba00a2028800000006000000fe00bb
:101f2c00f27f20000001610008003a00320024001a
:101f3c008246880090468800a1468800500f020017
:101f4c000000000010002000d1a8af00000020000d
:101f5c00000006000000fe00d1e8af00feff3700d5
:101f6c000000a700130037000010a7001100370075
:101f7c00a146880090468800100024008046880006
:101f8c00a0028000a10f2000a10288000100200007
:101f9c008208bb008398bb008408bb008598bb00fb
:101fac00500f020000000000a0028800100020006a
:101fbc00d1a8af0000002000000006000000fe00c9
:101fcc00d1e8af00feff37000000a7001400370077
:101fdc000010a70012003700a14688009046880028
:101fec00a10280001000240080468800a00f200071
:101ffc00a0028800000020000208bb00f20f2000a5
:10200c000298bb000308bb000298bb00500f0200f3
:10201c0000000000a102880010002000d1a8af0031
:10202c0000002000000006000000fe00d1e8af0018
:10203c00feff3700f30f20008081610009003a0099
:10204c0090468800a1468800200024008046880025
:10205c00c2468800500f0200000000001000200053
:10206c00d1a8af0000002000000006000000fe0018
:10207c00d1e8af00feff3700f30f20008081610034
:10208c0015003a0090468800a146880010002400f4
:10209c0080468800a00f2000a002880000002000cd
:1020ac0001082000f40f20003208bb000498bb008c
:1020bc003208bb000490bb00500f0200000000006f
:1020cc00d2a8ec00d2a8ec002100b100f6ff3a0037
:1020dc0010002000d1a8af00000020000000060076
:1020ec00f27f2000000061000000060002802f003b
:1020fc0000006100f2ff2f0081006100000006006b
:020000040000fa
:10210c000c01fa00c050210010079800b10020000b
:10211c00c05021003b02070068004700b2002000bd
:10212c00c1502100dcf907001e019000f241900023
:10213c008381fb00024a90000482fb004822dd00f0
:10214c008481710003007800924990008381fb0028
:10215c00224990000281fb004811dd0002817100d0
:10216c00820078001e019000924190008381fb0058
:10217c00224190000281fb004811dd0002817100b8
:10218c000201d1008001eb00000241008182490074
:10219c001e019000f24190008381fb00024b9000e5
:1021ac000683fb004833dd00868171000300780054
:1021bc00924990008381fb00224990000281fb0030
:1021cc004811dd0002817100820078000401be001c
:1021dc00700207000004e0004b0032001e0090006b
:1021ec00904090008180fb00204090000080fb001c
:1021fc004800dd000080700080007800400f200057
:10220c00808f500040003e001e00900090409000d7
:10221c008180fb00204090000080fb004800dd0026
:10222c0000807000630060000000e00036003a009f
:10223c000000eb00000f7800270037001e01900013
:10224c00f24190008381fb00024a90000482fb0063
:10225c004822dd00848171000300780092499000cf
:10226c008381fb00224990000281fb004811dd00b4
:10227c0002817100820078001e0178000201d100f9
:10228c008001eb0000004100818049000001be008c
:10229c000000eb0068020700200798003107980047
:1022ac002e009000be00900010ff07004007990020
:1022bc0051079900680047006c0040001e00400068
:1022cc00811020008e8040004200200072f907002f
:1022dc009e007800648f40001e009000904090009b
:1022ec008180fb00204090000080fb004800dd0056
:1022fc00008070009e0f5000d0ff3e0010c0b30055
:10230c00305798000a003700e0cfb30030579800e0
:10231c00ce009000f00f2000008060004007980075
:10232c00de00900000f02f00008060005007980045
:10233c004e0090004800de005e019000f10f20007e
:10234c0081006100c808dd0001007000ec00400055
:10235c0068004700df0107003e509000e14f50003d
:10236c0002003a000000eb000100370030002000b2
:08237c000080fa0000000600d9
:020000040000fa
:102384000600fa00881f78005f010700000f78003c
:102394001e0078000000e00002003a001000200057
:1023a400480037001e007800ea0f500002003e008b
:1023b40020002000430037000000eb0082020700e9
:1023c40020479800100020007f0207000084fb00d3
:1023d400200020007c0207000080fb004800dd0094
:1023e400000044006b00400020079800ae009000fd
:1023f40000102000808f5000060036002e40900010
:10240400e34f500003003200d00f200020020700e9
:102414002c0037002e4090000080fb00e30f50009a
:102424001b003200e30f500007003c00e10f500096
:1024340013003200e10f50000f003c000000e000e8
:10244400110032001d003700e90f50001200320065
:10245400e90f500003003c00e80f50001100320067
:1024640016003700ea0f500010003200eb0f500046
:10247400100032001100370070fc07001100370013
:1024840021ff07000f003700230207000d0037006b
:102494009ffb07000b003700780107000000eb00ea
:1024a4000800370014fd070006003700f500070098
:1024b400040037003602070002003700f00f200046
:1024c400f30107004f0478000080fa0000000600c2
:020000040000fa
:1024d4000600fa00889fbe00008fbe002207980005
:1024e4001e00be008afe07008000eb002e01900053
:1024f4000089be002e0090001004be0022002000bf
:10250400030020003e004100ae80490080fe070029
:102514008000eb00c000dd00000020000800400047
:10252400898048002e0190000089be0042002000ee
:10253400030020003e004100ae80490074fe070005
:102544008000eb002e0190002001980031019800da
:102554002e00900020049000b0049000620020003f
:10256400030020003e004100ae80490068fe0700e1
:102574008000eb00c000dd000000200008004000e7
:10258400898048002e0190002001980031019800b4
:1025940082002000030020003e004100ae8049007c
:1025a4005bfe07008000eb002e01900040019800c4
:1025b400510198002e00900040049000d004900037
:1025c400a2002000030020003e004100ae8049002c
:1025d4004ffe07008000eb00c000dd00000020007b
:1025e40008004000898048002e01900040019800b6
:1025f400510198004f04be000080fa00000006005c
:020000040000fa
:102604000000fa00062eef0000042000107188007c
:102614003e2eef005a2eef00762eef00f001200040
:1026240010708800d0fb2700f07088000080eb0059
:10263400d07188000080eb00b07288000080eb004d
:10264400907388000c2eef00282eef00442eef002c
:10265400602eef007c2eef000a2eef000002200017
:102664003071880000002800107288005e2eef0090
:102674007a2eef00082eef00242eef00402eef00fc
:102684005c2eef00782eef00f0012000007088002f
:10269400d0092000e0708800f00c2000c071880090
:1026a40000c02700a0728800000420008073880006
:1026b4000000eb0051052000b1468800a10a20006b
:1026c400b14688000068880050c2b30028edb70006
:1026d400316c800000fc2f00008060000000a0002e
:1026e400306c88000080200051052000b14688002d
:1026f400a10a2000b1468800006888000080fa0022
:0427040000000600cb
:020000040000fa
:102708000000fa00108080008000780001f0a1002d
:1027180001f0a7008100ea008100e900cf08de008f
:10272800814078000000e800108088000104e00083
:102738000b00320010718000ff800a0000000000ca
:102748000004a200614060000080fb004f00dd0033
:102758001171800001f0a100010070001071880063
:1027680000d0bf000004a2000004e00017003200ff
:10277800ac0107000004e0000300320010c0b30001
:1027880000f0b7001100370004d0bf000004e000db
:10279800030032000000eb0004fd070001f0b70061
:1027a80001d0bf000004a2000004e00002003200d3
:1027b80010c0b30000f0b70000d0bf000004a200b2
:1027c8000004e00001003200d5010700ebfe07001d
:0827d8000080fa000000060079
:020000040000fa
:1027e0000000fa0010002300307c880060092000ff
:1027f000407c88008c2fef0010042000507c880063
:1028000010102000707c880060092000807c880007
:1028100010042000907c88009a2fef00b82fef0062
:10282000ba2fef00be2fef00002def00a42fef0016
:10283000a62fef00a82fef00aa2fef00ae2fef007a
:10284000b02fef00b22fef007200200080072000b1
:10285000a109200053f820008049780081497800c0
:10286000824978000001eb0060042000710520001f
:1028700043f8200080497800814978008249780037
:082880000080fa0000000600d0
:020000040000fa
:102888000e00fa00b10020000e0078005e0007007c
:102898000000eb00c5fc07000004a2000004e000f3
:1028a80003003200c0cfb300304f98000200370059
:1028b80010c0b300304f98009e007800f00f200041
:1028c80000806000000f78009e00900000f02f004c
:1028d8000080600010079800c10020000e007800fa
:1028e8007d0007003e489000e14f500002003a008a
:1028f8000000eb0001003700300020000080fa00e3
:0429080000000600c5
:020000040000fa
:10290c000000fa00881f780006d0bf000004a20067
:10291c000004e0000f003200221020008000eb00c9
:10292c00a0402100f5f7070010c0b30006f0b70077
:10293c000900370058a8800004010700a1402100bd
:10294c0081004400804878000800e80050a8880006
:10295c0001003700000000005d0107000004e000ea
:10296c000400320051a88000f00f2000808f50002e
:10297c00f0ff360050a880004f0478000080fa0069
:04298c000000060041
:020000040000fa
:102990000c15000000010000800000000010000085
:1029a000040000008000000004100000020000008d
:1029b00082000000010000000a1000000004000076
:1029c000800000000a1400000201000080000000e6
:1029d0000610000002000000800000002c1600001d
:1029e0000400000082000000ffffff00ff00000065
:1029f0000c160000200000008000000008100000fd
:102a00000200000082000000ffff00000000000044
:020000040000fa
:102a10000600fa001007980021079800bbff070086
:102a2000000f78002e0090009e0f50000200310031
:102a3000ae009000010f78001e017800a140210037
:102a40001e00900097f70700001020009e00500025
:102a5000a04021001e0040000101780080007800a5
:102a6000a040210096f7070050a880001e005000eb
:102a700050a888001e0078000080fa0000000600c0
:020000040000fa
:102a80000c00fa00a04a28008e007800b0187800e8
:102a9000a0107800e480400064004000b018780086
:102aa000a0107800e480400064004000b018780076
:102ab000a0107800e480400064004000b1002000d5
:102ac000c0502100d2ff0700c10020000e00780096
:102ad00003000700320107000080fa000000060032
:020000040000fa
:102ae0000400fa00000f7800110798000a00370070
:102af0007a0007000004e000070032001e007800a2
:102b0000104078001e0fe800e90007001e0090004a
:102b10000000e900100798001e0090000000e0008f
:102b2000f3ff3a0000000000b40007000004a20018
:102b30000004e000fcff3a000080fa0000000600fc
:020000040000fa
:102b40000000fa0000082000c01188003a22ef00bf
:102b50003c22ef0020022000f011880070062000c7
:102b6000001288004222ef004c22ef004e22ef00bc
:102b70005022ef005222ef005422ef005622ef00c5
:102b80005822ef005a22ef005c22ef0039e2a80041
:102b900038a2a8003882a8000080fa0000000600d1
:020000040000fa
:102ba0000800fa00008fbe00220798003307980043
:102bb0001e00be000f0007000004e0000900320004
:102bc0002e009000be00900062005000e08058008f
:102bd000080007000004e00002003200100020009e
:102be000010037000000eb00004078000080fa0090
:042bf00000000600db
:020000040000fa
:102bf4000400fa00008fbe00f0ff21000100200055
:102c04001e01be00800f5100818f5900080036005c
:102c1400e07f2700510020001e01be00800f5100fc
:102c2400818f590002003e0010002000010037008f
:102c34000000eb00004078000080fa00000006006d
:020000040000fa
:102c44000a00fa002007980032079800430798000a
:102c540090248400a12484003e019000ce019000c1
:102c6400001f5100019759002e009000c200dd00a2
:102c740020492800008040001000be003e014000b2
:102c8400ae8148000200be000080fa000000060089
:020000040000fa
:102c94000e00fa0060079800b1002000c050210027
:102ca4005aff0700b2002000c15021000e00780036
:102cb400fbf607006e00900000407800304f98004b
:102cc400c10020000e00780084ff070030002000bf
:082cd4000080fa000000060078
:020000040000fa
:102cdc000000fa00f0118000700060000000e000bd
:102cec0007003a00c1118000000220000080600043
:102cfc000000e0000200320010002000010037004c
:102d0c000000eb00004078000080fa000000060094
:020000040000fa
:102d1c002600fa00614b280011000900311f7800d1
:102d2c00315f78005e02b100b1002000c05021007c
:102d3c0034ff0700510220000e00780065ff0700e9
:0c2d4c000000eb000080fa000000060010
:020000040000fa
:102d58000000fa0000000000f0118000620060002e
:102d68000000e000fcff3a00e01180006200600013
:102d78000000e000010032003c22a900201280007f
:0c2d8800004078000080fa000000060007
:020000040000fa
:102d94001400fa006149280009000900311f780075
:102da4004e01b100b1002000c050210017ff070000
:102db400410120000e00780048ff07000000eb00ee
:082dc4000080fa000000060087
:020000040000fa
:102dcc000200fa00000f780050a880009e0f5000ff
:102ddc0002003e0020c4b30003003700a0402100d5
:102dec001e004000104078000080fa000000060031
:020000040000fa
:102dfc000000fa00e011800077800a00000000005b
:102e0c000080fb0000f0a7000000ea000000ea00d0
:102e1c004f00de00004078000080fa000000060041
:020000040000fa
:102e2c000000fa00e17180000000280000806000c2
:102e3c0000f0a7000000ea000000e9004f00de00ef
:0c2e4c00004078000080fa000000060042
:020000040000fa
:102e58000400fa00008fbe001e00780061006000c8
:102e680000f0a7000000ea000000ea004f00de00c2
:0c2e7800004078000080fa000000060016
:020000040000fa
:102e84000000fa0049000700ddfd070053fe0700bb
:102e94004c00070029ff0700300007000002200053
:0c2ea400170007000080fa000000060084
:020000040000fa
:102eb0000200fa00004f780000000000f0118000ce
:102ec000700060000000e000fcff3a001e80fb0084
:0c2ed000401288000080fa00000006009c
:020000040000fa
:102edc000000fa00f01180006200600000f0a70012
:102eec000000ea000000e9004f00de00004078001e
:082efc000080fa00000006004e
:020000040000fa
:102f04000200fa00000f780021028000200f200048
:102f1400008060001e007000200288000080fa001b
:042f240000000600a3
:020000040000fa
:102f28000200fa00c0002200000f78001e0078009e
:0c2f3800000001000080fa00000006000c
:020000040000fa
:102f44000000fa00c0602100800778004062210080
:0c2f5400000188000080fa000000060068
:020000040000fa
:102f60000000fa00c3e8a800000000000000000014
:082f70000080fa0000000600d9
:020000040000fa
:102f78000200fa00000f78009e0078004180880067
:042f8800ffff370010
:020000040000fa
:102f8c000000fa00bcff070009000700dbfd07008a
:042f9c00feff3700fd
:020000040000fa
:102fa0000000fa000000fe000080fa0000000600a9
:020000040000fa
:0c2fb0000000fa000080fa00000006009b
:020000040000fa
:0c2fbc000000fa000080fa00000006008f
:020000040000fa
:0c2fc8000000fa000080fa000000060083
:020000040000fa
:02000004000af0
:04fe0000ffff000000
:020000040000fa
:02000004000af0
:04fe2000ffffff00e1
:020000040000fa
:02000004000af0
:04fe30007fffff0051
:020000040000fa
:02000004000af0
:04fe3800bfffff0009
:020000040000fa
:02000004000af0
:04fe40006003ff005c
:020000040000fa
:02000004000af0
:04fe4800ffffff00b9
:020000040000fa
:02000004000af0
:04fe5000dfffff00d1
:020000040000fa
:02000004000af0
:04fe58000000ff00a7
:020000040000fa
:02000004000af0
:04fe60000000ff009f
:020000040000fa
:02000004000af0
:04fe68000000ff0097
:020000040000fa
:02000004000af0
:04fe70000000ff008f
:020000040000fa
:02000004000af0
:04fe7800ffffff0089
:020000040000fa
:02000004000af0
:04fe8000fffcff0084
:020000040000fa
:02000004000af0
:04fe8800ffffff0079
:020000040000fa
:02000004000af0
:04feb000ffffff0051
:020000040000fa
:02000004000af0
:04fec000ffffff0041
:020000040000fa
:02000004000af0
:04fed000ffffff0031
:020000040000fa
:02000004000af0
:04fee000ffffff0021
:020000040000fa
:02000004000af0
:04fef000ffffff0011
:020000040000fa
:02000004000af0
:04fff800ffffff0008
:020000040000fa
:020000040100f9
:04300000ffffff00cf
:00000001FF
