:100000005024040000000000042200000822000028
:100010000C22000010220000142200000022000028
:1000200018220000002200001C22000020220000F4
:1000300024220000282200002C22000000220000C0
:100040003022000034220000382200003C22000050
:100050004022000044220000482200004C22000000
:100060005022000054220000582200005C220000B0
:100070006022000064220000682200006C22000060
:100080007022000074220000782200007C22000010
:100090008022000084220000882200008C220000C0
:1000A0009022000094220000982200009C22000070
:1000B000A0220000A4220000A8220000AC22000020
:1000C000B022000000220000B4220000B82200008C
:1000D00000220000BC220000C0220000C422000058
:1000E000C8220000CC220000D0220000D422000050
:1000F000D8220000DC220000E0220000E422000000
:100100000022000000220000002200000022000067
:10011000002200000022000000220000E82200006F
:10012000EC220000F0220000F4220000F82200007F
:1001300000220000FC220000002300000423000035
:10014000082300000022000000220000002200001E
:10015000002200000C2300001023000014230000E4
:1001600000220000002200000022000018230000EE
:100170001C2300002023000024230000282300006B
:100180002C2300003023000034230000382300001B
:100190003C230000402300004423000048230000CB
:1001A0004C2300005023000054230000582300007B
:1001B0005C2300006023000064230000682300002B
:1001C0006C230000702300007423000078230000DB
:1001D0007C2300008023000084230000882300008B
:1001E0008C23000090230000002200000022000069
:1001F0000022000094230000982300009C230000AC
:10020000A0230000A4230000A8230000AC230000CA
:10021000B0230000B4230000B8230000BC2300007A
:10022000C0230000C423000000220000C8230000F7
:10023000CC230000D0230000D4230000D8230000EA
:10024000DC230000E0230000E4230000E82300009A
:10025000EC230000F0230000F4230000F82300004A
:100260000022000000220000002200000022000006
:10027000FC230000002200000022000000240000F7
:100280000424000000220000082400000C240000C8
:1002900000220000002200000022000010240000C4
:1002A00000220000002200000022000000220000C6
:1002B00000220000002200000022000000220000B6
:1002C0000022000000220000142400001824000076
:1002D0001C24000020240000242400002824000006
:1002E0002C240000302400003424000038240000B6
:1002F0003C240000402400004424000000220000B0
:100300000022000000220000002200000022000065
:10031000002200000022000000220000482400000B
:100320004C240000002200000022000000220000F7
:100330000022000000220000002200000022000035
:100340000022000000220000002200000022000025
:100350000022000000220000002200000022000015
:100360000022000000220000002200000022000005
:1003700000220000002200000022000000220000F5
:1003800000220000002200000022000000220000E5
:1003900000220000002200000022000000220000D5
:1003A00000220000002200000022000000220000C5
:1003B00000220000002200000022000000220000B5
:1003C00000220000002200000022000000220000A5
:1003D0000022000000220000002200000022000095
:1003E0000022000000220000002200000022000085
:1003F0000022000000220000002200000022000075
:104000007C580000E151000000200000000000008A
:10401000FE770000050000005024040000000000AE
:10402000000000000200000000000000020000008C
:10403000020000000400000000000000000000007A
:10404000000000000000FA00007C80000080FA0000
:10405000000006000200FA00FAFF0700000F7800D7
:104060001E007800240007000004E0000200320077
:1040700000002800710007001E0078002A000700D9
:104080000004E00002003200000024006B00070082
:104090001E007800320007000004E0000200320039
:1040A00000202000650007001E0078003A0007008D
:1040B0000004E00002003200000820005F0007005A
:1040C0001E007800420007000004E00002003200F9
:1040D00000042000590007001E0078004A00070075
:1040E0000004E0000200320000012000530007003D
:1040F0000080FA00000006000400FA001007980093
:104100000040EB00004F78001E0090000000E0002F
:1041100002003D0010C0B300004F78001E40780040
:104120000080FA00000006000400FA001007980062
:104130000040EB00004F78009E009000000024003B
:10414000008060000000E0000200320010C0B300F8
:10415000004F78001E4078000080FA000000060042
:104160000400FA00100798000040EB00004F7800B0
:104170009E00900000202000008060000000E00011
:104180000200320010C0B300004F78001E407800DB
:104190000080FA00000006000400FA0010079800F2
:1041A0000040EB00004F78009E00900000082000C7
:1041B000008060000000E0000200320010C0B30088
:1041C000004F78001E4078000080FA0000000600D2
:1041D0000400FA00100798000040EB00004F780040
:1041E0009E00900000042000008060000000E000BD
:1041F0000200320010C0B300004F78001E4078006B
:104200000080FA00000006000400FA001007980081
:104210000040EB00004F78001E009000700060002E
:104220000000E0000200320010C0B300004F780030
:104230001E4078000080FA00000006000200FA002C
:10424000000F78009E80EA00007C80000080600003
:10425000007C88000080FA00000006000000FA00E0
:10426000802FEF000080FA00000006000000FA0036
:1042700010002300307C880060092000407C88000A
:104280008C2FEF0010042000507C880010102000BC
:10429000707C880060092000807C88001004200069
:1042A000907C88009A2FEF00B82FEF00BA2FEF0014
:1042B000BE2FEF00002DEF00A42FEF00A62FEF0080
:1042C000A82FEF00AA2FEF00AE2FEF00B02FEF00C6
:1042D000B22FEF007200200080072000A10920000B
:1042E00053F820008049780081497800824978009D
:1042F0000001EB00600420007105200043F820005D
:104300008049780081497800824978000080FA006D
:10431000000006000000FA00707C8000EE800A00B9
:10432000000000000080FB0000F0A7000000EA0091
:104330000000EA004F00DE00004078000080FA0034
:10434000000006000000FA00062EEF00222EEF000B
:104350003E2EEF005A2EEF00762EEF00F0012000E7
:1043600010708800D0FF2B00F07088000080EB00F8
:10437000D07188000080EB00B07288000080EB00F4
:10438000907388000C2EEF00282EEF00442EEF00D3
:10439000602EEF007C2EEF000A2EEF00262EEF009D
:1043A000422EEF005E2EEF007A2EEF00082EEF0077
:1043B000242EEF00402EEF005C2EEF00782EEF0051
:1043C000F001200000708800D0092000E070880013
:1043D000F00C2000C071880000C02700A072880087
:1043E00000042000807388000080FA0000000600AE
:1043F0000000FA000080FA0000000600FFFF37000E
:104400009C26040000000000B0250400000000000D
:10441000F225040000000000322604000000000025
:10442000D025040000000000122604000000000057
:1044300052260400000000000022040000000000DA
:104440000022040000000000002204000000000020
:104450000022040000000000002204000000000010
:104460000022040000000000002204000000000000
:1044700000220400000000000022040000000000F0
:1044800000220400000000000022040000000000E0
:1044900000220400000000000022040000000000D0
:1044A00000220400000000000022040000000000C0
:1044B00000220400000000000022040000000000B0
:1044C00000220400000000000022040000000000A0
:1044D0000022040000000000002204000000000090
:1044E0000022040000000000002204000000000080
:1044F0000022040000000000002204000000000070
:10450000002204000000000000220400000000005F
:10451000002204000000000000220400000000004F
:10452000002204000000000000220400000000003F
:10453000002204000000000000220400000000002F
:10454000002204000000000000220400000000001F
:10455000002204000000000000220400000000000F
:1045600000220400000000000022040000000000FF
:1045700000220400000000000022040000000000EF
:1045800000220400000000000022040000000000DF
:1045900000220400000000000022040000000000CF
:1045A00000220400000000000022040000000000BF
:1045B00000220400000000000022040000000000AF
:1045C000002204000000000000220400000000009F
:1045D000002204000000000000220400000000008F
:1045E000002204000000000000220400000000007F
:1045F000002204000000000000220400000000006F
:10460000002204000000000000220400000000005E
:10461000002204000000000000220400000000004E
:10462000002204000000000000220400000000003E
:10463000002204000000000000220400000000002E
:10464000002204000000000000220400000000001E
:10465000002204000000000000220400000000000E
:1046600000220400000000000022040000000000FE
:1046700000220400000000000022040000000000EE
:1046800000220400000000000022040000000000DE
:1046900000220400000000000022040000000000CE
:1046A00000220400000000000022040000000000BE
:1046B00000220400000000000022040000000000AE
:1046C000002204000000000000220400000000009E
:1046D000002204000000000000220400000000008E
:1046E000002204000000000000220400000000007E
:1046F000002204000000000000220400000000006E
:10470000002204000000000000220400000000005D
:10471000002204000000000000220400000000004D
:10472000002204000000000000220400000000003D
:10473000002204000000000000220400000000002D
:10474000002204000000000000220400000000001D
:10475000002204000000000000220400000000000D
:1047600000220400000000000022040000000000FD
:1047700000220400000000000022040000000000ED
:1047800000220400000000000022040000000000DD
:1047900000220400000000000022040000000000CD
:1047A00000220400000000000022040000000000BD
:1047B00000220400000000000022040000000000AD
:1047C000002204000000000000220400000000009D
:1047D000002204000000000000220400000000008D
:1047E000002204000000000000220400000000007D
:1047F000002204000000000000220400000000006D
:10480000002204000000000000220400000000005C
:10481000002204000000000000220400000000004C
:10482000002204000000000000220400000000003C
:10483000002204000000000000220400000000002C
:10484000002204000000000000220400000000001C
:10485000002204000000000000220400000000000C
:1048600000220400000000000022040000000000FC
:1048700000220400000000000022040000000000EC
:1048800000220400000000000022040000000000DC
:1048900000220400000000000022040000000000CC
:1048A0002F0221000EFF2C000E01880000002000C6
:1048B0000000E00002003200000120002002880019
:1048C000140007001E0107000000E00003003A008A
:1048D000407222000100200002003700000020008A
:1048E00001002000810F70004220AE000F00070081
:1048F000000020000000E0004220AE0000000200A6
:1049000000000000A2260200000000000040DA00C3
:104910000000FE00200020000000E0000200320045
:10492000100020009001880000000600A10288000D
:10493000800478000000EB001F003700E284440090
:1049400054A0B4009905BA00E284440054A0B40015
:104950009906BA00E284440054A0B4000006EB00BB
:10496000476FDE00FD07B200AE018800636CE10016
:1049700003003A000AD801000000EB000E003700E7
:10498000606CE10008003A00004DEB000A05E80009
:10499000020039003420EC000AF0A0008B05E90089
:1049A000F9FF3E00040037006168E10001003200B9
:1049B0000086EB000B00070019C7BA001905BA0002
:1049C0000E04E00003003A000A00E000DBFF3A00BA
:1049D00000000600FE07B200AE0288008A047800DC
:1049E000F5FF37000CD0A300E20F4D001C0039008A
:1049F00089027800354DBA000A05E8000200390046
:104A00003420EC000AF0A0008B05E9000F00320012
:104A1000254DBA000A05E800020039003420EC00F8
:104A20000AF0A0008B05E900080032000C00E0004D
:104A30000600320015CDBA000A05E8000200390070
:104A40003420EC000AF0A0008B05E9008984E8001E
:104A500054A0B4000B00E000E2FF3A0000000600A2
:104A60009902BA00055D78008B05E900F7FF320076
:104A7000C82ADE00055D78008B05E900F3FF3200EF
:104A80000C00E000F1FF320019DDBA00EEFF370044
:104A900004082000010037000002EB006100E10083
:104AA00001003200100005003200F8003400F80068
:104AB00081027800930188003200BE000100E0000E
:104AC0000C0032000470A70000F0A0003203780050
:104AD000C733DE00848343004220AF008703E80031
:104AE000A7018800F607B2007F30E1000400320021
:104AF000200020003400F9003200F9000000060018
:104B00008100E9000500E00003003A00018009008F
:104B100032100300E8FF37000180090032900300E3
:104B2000D561AE00E4FF370030002000F1FF370010
:104B300050052000B00E8800A00A2000B00E8800AA
:104B4000D3E1A8000000060050052000B00E880048
:104B5000A00A2000B00E8800D3E1A90000000600E2
:104B60003600F800809FBE00829FBE00849FBE007A
:104B7000869FBE000000FA00C028A9000000EB00DC
:104B8000A50007000080FA004F03BE004F02BE00E0
:104B90004F01BE004F00BE003600F9000040060085
:104BA0003600F800809FBE00829FBE00849FBE003A
:104BB000869FBE000000FA009C000700C048A900C4
:104BC00010002000940007000080FA004F03BE0090
:104BD0004F02BE004F01BE004F00BE003600F9007C
:104BE000004006003600F800809FBE00829FBE0095
:104BF000849FBE00869FBE000000FA00C068A90026
:104C000020002000840007000080FA004F03BE004F
:104C10004F02BE004F01BE004F00BE003600F9003B
:104C2000004006003600F800809FBE00829FBE0054
:104C3000849FBE00869FBE000000FA00C088A900C5
:104C400030002000740007000080FA004F03BE000F
:104C50004F02BE004F01BE004F00BE003600F900FB
:104C6000004006003600F800809FBE00829FBE0014
:104C7000849FBE00869FBE000000FA00C608A900FF
:104C800070002000640007000080FA004F03BE009F
:104C90004F02BE004F01BE004F00BE003600F900BB
:104CA000004006003600F800809FBE00829FBE00D4
:104CB000849FBE00869FBE000000FA00214680004F
:104CC00000102000008060000000E00003003200BF
:104CD000C508A900C00020004F0007002146800041
:104CE00000022000008060000000E00003003200AD
:104CF000C4A8A900900020004700070020468000BB
:104D0000700060000000E00003003200C488A900C9
:104D1000A0002000400007002046800061006000E5
:104D20000000E00003003200C408A900B000200029
:104D300039000700FFFF37000040DA000000FE00E6
:104D4000000005000200FA000000EB00000F7800F0
:104D50002800070001003700000000001E00780056
:104D600000F0A10000F0A7000000EA000000E90048
:104D70004F00DE00004078001E0FE8000004E00055
:104D8000F5FF320010718000EE800A000000000084
:104D90000004A200614060000080FB006100600030
:104DA0004E00DD001171800001E0A10001007000E3
:104DB00010718800E9FF37000200FA00000F780048
:104DC00021028000200F2000008060001E00700083
:104DD000200288000080FA00000006000000FA00AF
:104DE000C3E8A80000000000000000000080FA00F6
:104DF000000006000000FA0052FD07007CFD0700DD
:104E00001AFD0700F5FF070000022000EAFF070077
:104E10000080FA00000006000200FA00000F78008F
:104E20009E00780001808800FFFF37000000FA0034
:104E30002000210080077800A001210000018800E7
:104E40000080FA00000006000210000020000000B0
:104E5000800000000010000002000000820000003E
:084E6000FFFF0000000000004C
:02000004000AF0
:04FE0000FFFF000000
:04FE2000FFFFFF00E1
:04FE30007FFFFF0051
:04FE3800BFFFFF0009
:04FE40006003FF005C
:04FE4800FFFFFF00B9
:04FE5000DFFFFF00D1
:04FE58000000FF00A7
:04FE60000000FF009F
:04FE68000000FF0097
:04FE70000000FF008F
:04FE7800FFFFFF0089
:04FE8000FFFCFF0084
:04FE8800FFFFFF0079
:04FEB000FFFFFF0051
:04FEC000FFFFFF0041
:04FED000FFFFFF0031
:04FEE000FFFFFF0021
:04FEF000FFFFFF0011
:04FFF800FFFFFF0008
:020000040100F9
:04300000FFFFFF00CF
:00000001FF
