:020000040000fa
:080000000002040000000000f2
:020000040000fa
:040008000e040000e2
:020000040000fa
:04000c00600400008c
:020000040000fa
:04001000b005000037
:020000040000fa
:04001400980400004c
:020000040000fa
:04001800d004000010
:020000040000fa
:04001c0032060000a8
:020000040000fa
:04002000680500006f
:020000040000fa
:0400240032060000a0
:020000040000fa
:04002800320600009c
:020000040000fa
:04002c009403000039
:020000040000fa
:040030003206000094
:020000040000fa
:040034003206000090
:020000040000fa
:04003800320600008c
:020000040000fa
:04003c003206000088
:020000040000fa
:040040003206000084
:020000040000fa
:040044003206000080
:020000040000fa
:04004800320600007c
:020000040000fa
:04004c003206000078
:020000040000fa
:040050003206000074
:020000040000fa
:040054003206000070
:020000040000fa
:04005800cc030000d5
:020000040000fa
:04005c003206000068
:020000040000fa
:040060003206000064
:020000040000fa
:040064003206000060
:020000040000fa
:04006800320600005c
:020000040000fa
:04006c003206000058
:020000040000fa
:040070003206000054
:020000040000fa
:040074003206000050
:020000040000fa
:04007800320600004c
:020000040000fa
:04007c003206000048
:020000040000fa
:040080003206000044
:020000040000fa
:040084003206000040
:020000040000fa
:04008800320600003c
:020000040000fa
:04008c003206000038
:020000040000fa
:040090003206000034
:020000040000fa
:040094003206000030
:020000040000fa
:04009800320600002c
:020000040000fa
:04009c003206000028
:020000040000fa
:0400a0003206000024
:020000040000fa
:0400a4003206000020
:020000040000fa
:0400a800320600001c
:020000040000fa
:0400ac003206000018
:020000040000fa
:0400b0003206000014
:020000040000fa
:0400b4003206000010
:020000040000fa
:0400b800320600000c
:020000040000fa
:0400bc003206000008
:020000040000fa
:0400c0003206000004
:020000040000fa
:0400c4003206000000
:020000040000fa
:0400c80032060000fc
:020000040000fa
:0400cc0032060000f8
:020000040000fa
:0400d00032060000f4
:020000040000fa
:0400d40032060000f0
:020000040000fa
:0400d80032060000ec
:020000040000fa
:0400dc0032060000e8
:020000040000fa
:0400e00032060000e4
:020000040000fa
:0400e40032060000e0
:020000040000fa
:0400e80032060000dc
:020000040000fa
:0400ec0032060000d8
:020000040000fa
:0400f00032060000d4
:020000040000fa
:0400f40032060000d0
:020000040000fa
:0400f80032060000cc
:020000040000fa
:0400fc0032060000c8
:020000040000fa
:0401000032060000c3
:020000040000fa
:0401040032060000bf
:020000040000fa
:0401080032060000bb
:020000040000fa
:04010c0032060000b7
:020000040000fa
:0401100032060000b3
:020000040000fa
:0401140032060000af
:020000040000fa
:0401180032060000ab
:020000040000fa
:04011c0032060000a7
:020000040000fa
:0401200032060000a3
:020000040000fa
:04012400320600009f
:020000040000fa
:04012800320600009b
:020000040000fa
:04012c003206000097
:020000040000fa
:040130003206000093
:020000040000fa
:04013400320600008f
:020000040000fa
:04013800320600008b
:020000040000fa
:04013c003206000087
:020000040000fa
:040140003206000083
:020000040000fa
:04014400320600007f
:020000040000fa
:04014800320600007b
:020000040000fa
:04014c003206000077
:020000040000fa
:040150003206000073
:020000040000fa
:04015400320600006f
:020000040000fa
:04015800320600006b
:020000040000fa
:04015c003206000067
:020000040000fa
:040160003206000063
:020000040000fa
:04016400320600005f
:020000040000fa
:04016800320600005b
:020000040000fa
:04016c003206000057
:020000040000fa
:040170003206000053
:020000040000fa
:04017400320600004f
:020000040000fa
:04017800320600004b
:020000040000fa
:04017c003206000047
:020000040000fa
:040180003206000043
:020000040000fa
:04018400320600003f
:020000040000fa
:04018800320600003b
:020000040000fa
:04018c003206000037
:020000040000fa
:040190003206000033
:020000040000fa
:04019400320600002f
:020000040000fa
:04019800320600002b
:020000040000fa
:04019c003206000027
:020000040000fa
:0401a000e80500006e
:020000040000fa
:0401a400320600001f
:020000040000fa
:0401a800320600001b
:020000040000fa
:0401ac003206000017
:020000040000fa
:0401b0003206000013
:020000040000fa
:0401b400320600000f
:020000040000fa
:0401b800320600000b
:020000040000fa
:0401bc003206000007
:020000040000fa
:0401c0003206000003
:020000040000fa
:0401c40032060000ff
:020000040000fa
:0401c80032060000fb
:020000040000fa
:0401cc0032060000f7
:020000040000fa
:0401d00032060000f3
:020000040000fa
:0401d40032060000ef
:020000040000fa
:0401d80032060000eb
:020000040000fa
:0401dc0032060000e7
:020000040000fa
:0401e00032060000e3
:020000040000fa
:0401e40032060000df
:020000040000fa
:0401e80032060000db
:020000040000fa
:0401ec0032060000d7
:020000040000fa
:0401f00032060000d3
:020000040000fa
:0401f40032060000cf
:020000040000fa
:0401f80032060000cb
:020000040000fa
:0401fc0032060000c7
:020000040000fa
:0402000032060000c2
:020000040000fa
:0402040032060000be
:020000040000fa
:0402080032060000ba
:020000040000fa
:04020c0032060000b6
:020000040000fa
:0402100032060000b2
:020000040000fa
:0402140032060000ae
:020000040000fa
:0402180032060000aa
:020000040000fa
:04021c0032060000a6
:020000040000fa
:0402200032060000a2
:020000040000fa
:04022400320600009e
:020000040000fa
:04022800320600009a
:020000040000fa
:04022c003206000096
:020000040000fa
:040230003206000092
:020000040000fa
:04023400320600008e
:020000040000fa
:04023800320600008a
:020000040000fa
:04023c003206000086
:020000040000fa
:040240003206000082
:020000040000fa
:04024400320600007e
:020000040000fa
:04024800320600007a
:020000040000fa
:04024c003206000076
:020000040000fa
:040250003206000072
:020000040000fa
:04025400320600006e
:020000040000fa
:04025800320600006a
:020000040000fa
:04025c003206000066
:020000040000fa
:040260003206000062
:020000040000fa
:04026400320600005e
:020000040000fa
:04026800320600005a
:020000040000fa
:04026c003206000056
:020000040000fa
:040270003206000052
:020000040000fa
:04027400320600004e
:020000040000fa
:04027800320600004a
:020000040000fa
:04027c003206000046
:020000040000fa
:040280003206000042
:020000040000fa
:04028400320600003e
:020000040000fa
:04028800320600003a
:020000040000fa
:04028c003206000036
:020000040000fa
:040290003206000032
:020000040000fa
:04029400320600002e
:020000040000fa
:04029800320600002a
:020000040000fa
:04029c003206000026
:020000040000fa
:0402a0003206000022
:020000040000fa
:0402a400320600001e
:020000040000fa
:0402a800320600001a
:020000040000fa
:0402ac003206000016
:020000040000fa
:0402b0003206000012
:020000040000fa
:0402b400320600000e
:020000040000fa
:0402b800320600000a
:020000040000fa
:0402bc003206000006
:020000040000fa
:0402c0003206000002
:020000040000fa
:0402c40032060000fe
:020000040000fa
:0402c80032060000fa
:020000040000fa
:0402cc0032060000f6
:020000040000fa
:0402d00032060000f2
:020000040000fa
:0402d40032060000ee
:020000040000fa
:0402d80032060000ea
:020000040000fa
:0402dc0032060000e6
:020000040000fa
:0402e00032060000e2
:020000040000fa
:0402e40032060000de
:020000040000fa
:0402e80032060000da
:020000040000fa
:0402ec0032060000d6
:020000040000fa
:0402f00032060000d2
:020000040000fa
:0402f40032060000ce
:020000040000fa
:0402f80032060000ca
:020000040000fa
:0402fc0032060000c6
:020000040000fa
:0403000032060000c1
:020000040000fa
:0403040032060000bd
:020000040000fa
:0403080032060000b9
:020000040000fa
:04030c0032060000b5
:020000040000fa
:0403100032060000b1
:020000040000fa
:0403140032060000ad
:020000040000fa
:0403180032060000a9
:020000040000fa
:04031c0032060000a5
:020000040000fa
:0403200032060000a1
:020000040000fa
:10040000ef8f22000eff27000e0188000000200061
:100410000000e000020032000001200020028800fd
:1004200014000700860207000000e00003003a0005
:10043000a028250001002000020037000000200055
:1004400001002000810f70004220ae000f00070065
:10045000000020000000e0004220ae00000002008a
:1004600000000000ca540200000000000040da0052
:100470000000fe00200f20000000e000020032001b
:10048000002020009001880000000600a1028800e2
:10049000800478000000eb001f003700e284440075
:1004a00054a0b4009905ba00e284440054a0b400fa
:1004b0009906ba00e284440054a0b4000006eb00a0
:1004c000476fde00fd07b200ae018800636ce100fb
:1004d00003003a000ad801000000eb000e003700cc
:1004e000606ce10008003a00004deb000a05e800ee
:1004f000020039003420ec000af0a0008b05e9006e
:10050000f9ff3e00040037006168e100010032009d
:100510000086eb000b00070019c7ba001905ba00e6
:100520000e04e00003003a000a00e000dbff3a009e
:1005300000000600fe07b200ae0288008a047800c0
:10054000f5ff37000cd0a300e20f4d001c0039006e
:1005500089027800354dba000a05e800020039002a
:100560003420ec000af0a0008b05e9000f003200f7
:10057000254dba000a05e800020039003420ec00dd
:100580000af0a0008b05e900080032000c00e00032
:100590000600320015cdba000a05e8000200390055
:1005a0003420ec000af0a0008b05e9008984e80003
:1005b00054a0b4000b00e000e2ff3a000000060087
:1005c0009902ba00055d78008b05e900f7ff32005b
:1005d000c82ade00055d78008b05e900f3ff3200d4
:1005e0000c00e000f1ff320019ddba00eeff370029
:1005f00004082000010037000002eb006100e10068
:1006000001003200100005003200f8003400f8004c
:1006100081027800930188003200be000100e000f2
:100620000c0032000470a70000f0a0003203780034
:10063000c733de00848343004220af008703e80015
:10064000a7018800f607b2007f30e1000400320005
:10065000200020003400f9003200f90000000600fc
:100660008100e9000500e00003003a000180090074
:1006700032100300e8ff37000180090032900300c8
:10068000d561ae00e4ff370030002000f1ff3700f5
:1006900050052000b00e8800a00a2000b00e88008f
:1006a000d3e1a8000000060050052000b00e88002d
:1006b000a00a2000b00e8800d3e1a90000000600c7
:1006c0009a210400000000003041040000000000f6
:1006d0005c44040000000000a4440400000000008a
:1006e0000c45040000000000e44604000000000087
:1006f000fa460400000000009647040000000000d5
:100700007c070400000000009607040000000000c1
:10071000c4070400000000005412040000000000a0
:1007200000000400000000003600f800809fbe00ba
:10073000829fbe00849fbe00869fbe003200f800ec
:100740003400f80010002000a001880000202000e4
:1007500000d0fe000000fa000028a900420d0700aa
:100760000000e000030032004a54020000000000d4
:10077000000000000080fa003400f9003200f900a7
:100780004f03be004f02be004f01be004f00be002f
:100790003600f900004006003600f800809fbe00d9
:1007a000829fbe00849fbe00869fbe003200f8007c
:1007b0003400f80010002000a00188000020200074
:1007c00000d0fe000000fa000188a90051828000dc
:1007d00040828000808f50000600310050828000ef
:1007e000c18522000080400010407800eb1b07000c
:1007f000010037004830ef000080fa003400f900b3
:100800003200f9004f03be004f02be004f01be0090
:100810004f00be003600f900004006003600f80028
:10082000809fbe00829fbe00849fbe00869fbe0048
:100830003200f8003400f80010002000a001880009
:100840000020200000d0fe000000fa0000468000da
:10085000620060000000e000020032001020200072
:10086000b2270700207c8000680060000000e000e4
:100870000200320020202000ac270700217c8000ed
:1008800000022000008060000000e0000200320052
:1008900040202000a5270700c028a9000080fa00fa
:1008a0003400f9003200f9004f03be004f02be00d1
:1008b0004f01be004f00be003600f90000400600a8
:1008c0003600f800809fbe00829fbe00849fbe005d
:1008d000869fbe003200f8003400f80010002000af
:1008e000a00188000020200000d0fe000000fa00d7
:1008f00000468000680060000000e0000200320056
:100900008020200089270700c068a9000080fa0025
:100910003400f9003200f9004f03be004f02be0060
:100920004f01be004f00be003600f9000040060037
:100930003600f800809fbe00829fbe00849fbe00ec
:10094000869fbe003200f8003400f800100020003e
:10095000a00188000020200000d0fe000000fa0066
:1009600000468000640060000000e00002003200e9
:10097000002120006d270700c048a9000080fa0070
:100980003400f9003200f9004f03be004f02be00f0
:100990004f01be004f00be003600f90000400600c7
:1009a0003600f800809fbe00829fbe00849fbe007c
:1009b000869fbe003200f8003400f80010002000ce
:1009c000a00188000020200000d0fe000000fa00f6
:1009d0000146800000002400008060000000e0006c
:1009e000020032000024200050270700014680004a
:1009f00000002200008060000000e00002003200e1
:100a0000002820004927070001468000000021003f
:100a1000008060000000e000020032001030200082
:100a2000422707000146800000802000008060000f
:100a30000000e00002003200203020003b270700c9
:100a40000146800000082000008060000000e000f7
:100a500002003200403020003427070001468000a9
:100a600000042000008060000000e000020032006e
:100a7000803020002d2707000046800070006000b5
:100a80000000e000020032000022200027270700bb
:100a9000c1c8a900c1a8a900c188a900c168a9004e
:100aa000c0e8a900c0c8a900c088a9000080fa0059
:100ab0003400f9003200f9004f03be004f02be00bf
:100ac0004f01be004f00be003600f9000040060096
:100ad0003600f800809fbe00829fbe00849fbe004b
:100ae000869fbe003200f8003400f800100020009d
:100af000a00188000020200000d0fe000000fa00c5
:100b00002146800000022000008060000000e0001c
:100b10000200320000322000042707002046800037
:100b2000700060000000e000020032000031200090
:100b3000fe260700c4a8a900c488a9000080fa0006
:100b40003400f9003200f9004f03be004f02be002e
:100b50004f01be004f00be003600f9000040060005
:100b60003600f800809fbe00829fbe00849fbe00ba
:100b7000869fbe003200f8003400f800100020000c
:100b8000a00188000020200000d0fe000000fa0034
:100b900030468000610060000000e000020032008a
:100ba00000342000e1260700c608a9000080fa00f2
:100bb0003400f9003200f9004f03be004f02be00be
:100bc0004f01be004f00be003600f9000040060095
:100bd0003600f800809fbe00829fbe00849fbe004a
:100be000869fbe003200f8003400f800100020009c
:100bf000a00188000020200000d0fe000600fa00be
:100c000090608000100798000bc8a9000000eb005e
:100c10002007980060828000640147008e80e80011
:100c20008001eb0092130700000f78001e0078008f
:100c30000000e00002003a0080402000bb260700d0
:100c40000080fa003400f9003200f9004f03be00c2
:100c50004f02be004f01be004f00be003600f9003b
:100c6000004006000040da000000fe000a00fa0022
:100c700011002000b1bf9f00c0bf9f006a805700d5
:100c8000c00607004fb897000080fa000000060079
:100c90000a00fa00e20f500034003e00d047810005
:100ca000e10f500003003200e20f500011003a0043
:100cb0000c003700832320000300e00001003a000d
:100cc0000040da003802e200020035004022ef0066
:100cd00039e2a80038a2ab000d003a0038a2a80003
:100ce0000b003700032620000300e00001003a005b
:100cf0000040da006002e200020035006822ef00e6
:100d000061e2a80060a2ab0001003a0060a2a80066
:100d1000820178000b0037003102fb00e10f500028
:100d200004003a003e82ab00feff3a004412880005
:100d3000030037006682ab00feff3a008413880090
:100d40008301e9000300e000f3ff3a00e10f5000e7
:100d500003003a003ea2ab00feff32000b0037005a
:100d600066a2ab00feff320008003700330020000f
:100d7000b3bf9f00c0bf9f00d1bf9f00e2bf9f00d5
:100d80006a805700810607006fb99700020078005b
:100d90000080fa00000006000a00fa00510020005e
:100da000b1bf9f00c0bf9f006a805700790607004f
:100db0005fb897000080fa0000000600889fbe0020
:100dc00080047800e04781000000e00004003a0061
:100dd0000e0007000084eb000000e0000800350072
:100de000e84781000900e0000500320009004400e6
:100df000060007000000e00001003d000084eb0059
:100e0000080078004f04be00000006008000780053
:100e10000100e00003003a0000002000e0478900e4
:100e2000000005000080eb0002002000828f5000cf
:100e300002003e00e14789000000eb0000000600d0
:100e4000000005006022b800060220000000d0006b
:100e50008180d2000482d2008582d2000000a000ee
:100e60000202520083825a00030031000202420053
:100e700083824a000000a1000603e900f3ff3a0064
:100e800000000600efff07000400be00000006009f
:100e90008001780002003700b15978000201e900b2
:100ea0000200e000fcff3a0000000600800178002c
:100eb00002003700815978000201e9000200e000d9
:100ec000fcff3a000000060000017800b141780004
:100ed000035978000304e000fcff3a00000006001c
:100ee00080007800010178003104e000fdff3a0045
:100ef0000000510000000600889fbe0080047800ba
:100f00000203be00010478006149b800898fd20055
:100f10008381d200080278000600be001f06070089
:100f2000088044004f04be0000000600881f7800bf
:100f30000204780008017800d5ff0700080040008f
:100f40004f047800000006000000fa00881f7800b7
:100f5000000478006a825700bfb997000801780042
:100f6000c177200060792000160007000000e00033
:100f70000200350000044400004ceb004f047800f0
:100f80000080fa0000000600889fbe000004780080
:100f90000203be008104780008027800890178000d
:100fa000120020000600be00fd030700890f50005c
:100fb000010032000004eb00080078004f04be007e
:100fc000000006006800fa00889fbe008a9fbe00ed
:100fd0008004780001047800820578000305780019
:100fe0008400780000f92f000f004000ea0307009a
:100ff000d98f9f00fb8f9f000000eb00a09f9f00f8
:10100000e88f9f009a84fb000904fb008904ea0032
:10101000cf4cde0050022000800f54000d00320043
:10102000e18f54000b003a00090178008a00780033
:101030007f889700df89970003000100f08f9f00f1
:101040000000e000950032002f9897000000e800b3
:10105000a09f9f000905450050022000800f54000a
:10106000040032000800e000e6ff3a002f989700e5
:101070008b0037000000eb00809f9f00f0979f00df
:10108000e0979f00d0979f00c0979f00b0979f0068
:1010900007003700418c2200010050000000400092
:1010a000818b2200808040004f98970011007000d3
:1010b000c09f9f000a04780008057800ba447800b1
:1010c0008900fb00408c2200960107000000e00030
:1010d000f0ff3a00a1c2b30081cf54000e003a00e5
:1010e0008f8897000180e900808f9f0010007800b2
:1010f000b09f9f000000e00005003d000000ea00f6
:10110000b09f9f004f9897000020a000c09f9f00b5
:101110000804e80010003700b09f9f0088007800a6
:101120000000eb0005003700f3ff2700830f50009d
:1011300002003200ea00b90000004100010478001a
:10114000880078003101fb000203b100e90f510073
:10115000f5ff3600b09f9f00e0c2b300984f10002b
:10116000020032000080eb0019003700a0c2b3007b
:10117000d84f100007003a008f8897000180e900df
:10118000808f9f0010007800909f9f000804e80067
:10119000100037000000eb00909f9f00880078004f
:1011a00005003700f3ff2700830f500002003200d4
:1011b000ea00b900000041000104780088007800ce
:1011c0003101fb000203b100e90f5100f5ff3600c9
:1011d000909f9f00984478008900fb00008b2200bc
:1011e000500107000000e000020032000804e8009f
:1011f000010037008044eb00a97f9f0080c6b30048
:1012000080cf540006003a0098cf140010003a0036
:1012100066405000a07f9f000804e8000c003700e3
:10122000c0c6b30080cf540009003a0098cf140024
:1012300007003a0067404000d84f100002003a0013
:101240006e4050000100370010c7b300a07f9f0020
:101250001801fb00c3fb2f008f81410001f92f0013
:101260008f80400020f92f000f004000150007007c
:101270000000e00009003a00c1fb2f008f80400011
:1012800020f92f000f004000690207000000e00075
:10129000020035000805e8005aff37000080eb0027
:1012a0004f05be004f04be000080fa00000006009b
:1012b000030278008201780001017800417c20005f
:1012c00040ff3700889fbe008a9fbe00e4c6b3007f
:1012d000844f5100c400320010003c006b425200a9
:1012e000844f51001800320005003c0054c2b30086
:1012f000844f5100fc00320084c5b3000f0037005a
:1013000044c6b300844f51001500320065424200cc
:10131000844f5100f7003a001100370004c7b300b2
:10132000844f5100e30032005a003500654242000c
:10133000844f51005700320063424200844f5100f5
:10134000ec003a00530037001181e9008208780070
:10135000a00890008181410092497800eb0037009d
:10136000006a9000c5c6b300854f520007003a00de
:101370009102780064825200840878001402be0052
:101380004fabde00860378001400370015c7b300aa
:10139000854f520003003a0011047800680254009f
:1013a00005003700a5c6b300854f520006003a007d
:1013b0009104780068825400840878005403be00c9
:1013c0004402be00050037001182e900840878005d
:1013d00014027800cfa2de00612bb9000498be0091
:1013e0000690be008068900088c6b30088cf500089
:1013f0000d00320028c6b30088cf500004003a0028
:101400000402fb00cfa2de00612bb9000800370008
:1014100048c7b30088cf5000030032006644440040
:1014200088cf500004003a00cfa2de00612bb90043
:101430000498be000690be003002be002003be002d
:10144000a0089000e00f5200e08f5a00e00f5b0010
:10145000e08f5b0003003d0001824100d5c2b30074
:101460000a003700301290000418a3000300320075
:1014700001824100b5c2b300040037000408a30094
:10148000540032000182410005c2b300054a7800d1
:101490004e003700006a9000c5c6b300854f520069
:1014a00008003a00110578006402550084087800ad
:1014b0001404be006055b8000802be000a03be0056
:1014c0001400370015c7b300854f520003003a00df
:1014d000910478006882540005003700a5c6b30067
:1014e000854f520006003a00110578006802550049
:1014f000840878005403be004402be000500370093
:101500001182e90084087800140278008002eb0060
:101510006033b8000498be000690be00806890005a
:1015200088c6b30088cf50000d00320028c6b30033
:1015300088cf500004003a000482fb008002eb00d8
:101540006033b8000800370048c7b30088cf5000a8
:10155000030032006644440088cf500004003a0083
:101560008002eb006033b8000498be000690be0015
:10157000b01090000138a300160032003002be0007
:101580002003be00e00f5200e08f5a00e00f5b0026
:10159000e08f5b000f00320081c7b300814f510024
:1015a0000300320081c5b300814f510009003a00a9
:1015b000a00890000182410005c3b300054a7800ed
:1015c0008100e80001824100024a78008100e800c1
:1015d00021089800a00890008181410073009800c4
:1015e000824078003e00370080699000c4c6b30096
:1015f0001181e90084cf5100220032000a003c0032
:101600006442520084cf51002500320004c2e80039
:1016100084cf5100130032006842520084cf510041
:101620001e003a000a00370044c7b30084cf5100bf
:101630001b0032006642420084cf51001800320085
:101640006942520084cf510014003a00050037006f
:10165000820878009200780020609000804878002e
:101660002c00370082087800920078001012900059
:10167000cfa2de00612bb9008498be008690be0028
:101680002400370082087800920078001011900042
:10169000cf91de008288be001e0037001181e90074
:1016a000820878009200780010109000800878007e
:1016b000180037001181e9008208780012027800d2
:1016c000cfa2de00612bb9000498be000690be00d8
:1016d000a0089000818141007300980081c7b30089
:1016e0001c0007000b003700a0089000818141001a
:1016f00005003700a0089000818141000204e0004d
:1017000001003a0052c2b300824978008100e8002b
:10171000210898000000eb004f05be004f04be00fa
:1017200000000600020037000304e000060032005b
:101730000001780002007800b041780081cf5100ac
:10174000f9ff3a00010037000001eb0002007800c9
:1017500000000600fc874700889fbe008a9fbe00ed
:101760008c9fbe008e1f78000006780080c5b300f5
:1017700080cf50000a0032007740400080cf5000f8
:101780000a0032006940400080cf50000b00320058
:10179000f089220080bf9f00ae0020000a003700c1
:1017a000e288220082bf9f0006003700f3892200f2
:1017b00083bf9f008e00200003003700f4892200c1
:1017c00084bf9f000e0120003c02be002c03be001f
:1017d0000605be000404be0040c6b30080cf500022
:1017e000030032006540400080cf50000b003a00fb
:1017f000e00f5200e08f5a00e00f5b00e08f5b00cb
:1018000006003d006000b8006011b80004045000fc
:10181000858458000605590087855900e80f570050
:101820000400320040002000f00f57003a003a0058
:101830000100370030002000e00f5400e08f5c0012
:10184000e00f5d00e08f5d0004003a008c10900016
:101850008d0120000100e000070032008e00e90049
:10186000888060008fba97008180420091407800a4
:10187000f1ef9f007d012000800078008100e900e9
:10188000050033008b05d1000a85d3008984d3007d
:101890000884d300f9ff3700089ebe000a96be00f8
:1018a000130037008d06e9008e00e9008480600097
:1018b0000fb99700810041001141780083fd2f008e
:1018c0008d81410082f77900800178008301e90071
:1018d000050033008783d1000683d3008582d300bf
:1018e0000482d300f9ff3700049ebe000696be00b6
:1018f0003c02be002c03be00e00f5200e08f5a00f5
:10190000e00f5b00e08f5b00910034000d00e00011
:10191000e4ff3c008e0037000c68900081c6b300e5
:10192000814f50000b00320006003c000004e00034
:1019300008003200e6c05000814f500052003a00cb
:1019400004003700c1c6b300814f50004e003a007a
:10195000230037000800e00004003a000c1090005b
:101960008d0120000000e0000700320005000900a2
:101970000e84d8000fba9700010042001040780092
:10198000f0ef9f007d012000050009000e84d800c3
:101990000b003700050009000e04d8008d06e90091
:1019a0008e81b900020454008fb89700088440006b
:1019b0009841780082fd2f000d0141008377790066
:1019c000000478000800e000020032000d00e00092
:1019d000f0ff3c00cfc4de00614db90027003700a6
:1019e000e00f5400e08f5c0004003a000c109000ff
:1019f0008d0120000000e000080032006171b90094
:101a00000800be001ffd07000fba970080004200cb
:101a100091407800f1ef9f007d0120006171b900d5
:101a20000800be0007fd07000c0037006171b90017
:101a30000800be009d0307008d06e90080f1b90093
:101a4000020454008fba970008844200984178003d
:101a500082fd2f000d014100837779000004be0054
:101a6000e00f5000e08f5800020032000d00e0004f
:101a7000eeff3c004fcdde008a057800089ebe00d8
:101a80000a96be0032003700e00f5400e08f5c0081
:101a9000e00f5d00e08f5d0004003a000c10900044
:101aa0008d0120000000e0000a0032006172b900e0
:101ab000612bb9000800be000a01be003004070017
:101ac0000fba97008000420091407800f1ef9f002c
:101ad0007d0120006172b900612bb9000800be00d1
:101ae0000a01be001f0407000e0037006172b90032
:101af000612bb9000800be000a01be0024040700e3
:101b00008d06e90080f2b900040454008fba9700f2
:101b1000088442009842780084fd2f000d024200a4
:101b200085777a00009ebe000296be003c04be008f
:101b30002c05be00e00f5400e08f5c00e00f5d005c
:101b4000e08f5d00020034000d00e000e7ff3c0084
:101b5000e80f570010003a003c1090000038a30036
:101b60000d003200f78f560006003e0080fd2f006a
:101b70000d004000ef40780000c3b30080cf50005c
:101b80000500320002c3b30071fd2f008d804000bc
:101b90008d06e90082f7780078811600420e9800e1
:101ba0007c00900083fd2f008f8141008d804100db
:101bb000b7fc07004c0890008c109000810f50007b
:101bc00006003d0000805000300e98003c10900050
:101bd0000040a100301698000f0037000100e0001f
:101be0000d003d00bc109000f4806000f08f5000ac
:101bf00009003a002c119000ac08900081005100bf
:101c00003c09900082805000008050004240a900b2
:101c100001003400300e98004f0778004f06be00d8
:101c20004f05be004f04be00cf01b100000006000a
:101c30000400fa00889fbe008a9fbe008c1f7800b7
:101c40000004780001067800a8149000280890008d
:101c50008084540038089000808454004808900024
:101c600080845400580890008084540068089000d4
:101c70008084540078089000808454000002220080
:101c800090bf9f0000032300a0bf9f00381090006a
:101c90000028a30015003a000900e00013003400fa
:101ca000090578008a057800e20f5500010036002a
:101cb0002b002000c80190000b017800ee80570037
:101cc0006800900003000100600498000000e0003c
:101cd000aa003200181090000b0040001014980069
:101ce0000b0555004240a900eeff3c00280990007a
:101cf0000200e0000c003400c80190008c00780065
:101d00006800900003000100600498008080eb00f0
:101d10000000e0009a00320098109000280890001f
:101d20000080400010149800380d90000a00e00078
:101d3000110034008a057800e20f550001003600da
:101d40002b002000c80190000b017800ec805700a8
:101d50006800900003000100600498000000e000ab
:101d600086003200181090000b00400010149800fc
:101d70000b055500edff370008699000c80890007a
:101d800050c6b300804f510008003a000100e00047
:101d9000150034005802900008099000980990003e
:101da0006800900004000100070037000100e00017
:101db0000d003400c801900001017800f800900087
:101dc0006800900003000100600498008080eb0030
:101dd0000000e0006a00320098109000480890006f
:101de0000080400010149800580d90000a00e00098
:101df000110034008a057800e20f5500010036001a
:101e00002b002000c80190000b017800ec805700e7
:101e10006800900003000100600498000000e000ea
:101e200056003200181090000b004000101498006b
:101e30000b055500edff3700086990006808900019
:101e400051c6b300814f51000d003a000000e00080
:101e50001c00340078019000c80890000101410086
:101e60006111b800828fd2008381d20058029000a5
:101e7000800078006800900004000100090037002d
:101e80000000e0000f00340078019000c8089000c6
:101e900081004100c80190000001780068009000b6
:101ea00003000100600498008080eb000000e00067
:101eb00033003200981090006808900000804000c5
:101ec00010149800780d90000a00e0001100340012
:101ed0008a057800e20f5500010036002b00200033
:101ee000c80190000b017800ec805700680090005a
:101ef00003000100600498000000e0001f003200b1
:101f0000181090000b004000101498000b055500ad
:101f1000edff3700381090008000eb000028a30090
:101f2000170032000900e0001500340009057800b0
:101f3000e28f5400010036002a002000c801900002
:101f40000a017800ee80570068009000030001004d
:101f5000600498000000e0000800320018109000b3
:101f60000a004000101498008a8454004240a900de
:101f7000eeff3c008000eb00010037008080eb00aa
:101f8000010078004f0678004f05be004f04be00e8
:101f90000080fa000000060001087800000006003a
:101fa000e6874700889fbe008a9fbe008c9fbe00c8
:101fb0008e1f780082bf9f00040478008299b900c8
:101fc000f2b79f000200e000590032000fb99700fd
:101fd0000200e000570032000006be007fb7970005
:101fe000c800900068009000808f50000400390005
:101ff00008007800920007000000e0003b00350078
:1020000000402000180060000a0032008e017800b5
:10201000a20020000c00be00090207000005be005f
:1020200000807500070032008c0455008904e80028
:10203000050037008e0478000a0020000b00200005
:10204000010037008e04780048019000680090007d
:1020500002005000890f5000030031008004780016
:102060000a0020000b0020006111b800828fd2000e
:102070008381d200090278000c00be00c70107006e
:1020800009075700480090000900400040049800ec
:102090000a85750004003200080078002c00070053
:1020a0000000e00011003a000e00e0000f003200d6
:1020b0006148b800808fd2008180d2000000780093
:1020c00000f0a1000c01d0008001d0000306410007
:1020d0004220a80081864e004200a9004220ae00a6
:1020e0004200a8000c86d300bdff3700008020000e
:1020f0001800600002003200080078001400070099
:1021000000c020001800600002003200480090006b
:10211000600498007fb197000e0751000fb9970037
:10212000050009000287d80080017800010037000f
:102130008001eb00030078004f0778004f06be00d7
:102140004f05be004f04be006f00b1000000060046
:10215000889fbe00000478000800e00010003a00ec
:102160008004eb00090478008800d000a0812200e0
:1021700000804000100078000000e0000400320001
:10218000f3ff07000000e00001003d008084eb0049
:102190000804e800e80f5400f3ff3a002500370078
:1021a00000002200180060008004eb0021003200d3
:1021b000a80490000f00370009015100384090003a
:1021c0000000fb0089007800b1fa07000000e00081
:1021d00007003c002800900040049800600498002c
:1021e000500c98001890a0008084eb00110037007c
:1021f0008084440048019000828f5400eeff390033
:1022000028009000400498009800780002c0200048
:102210000281600001003a003800900001e8a3004c
:10222000020032006004980001003700500c980052
:102230008004eb00090078004f04be000000060097
:10224000889fbe008a1f780000047800c8009000b4
:10225000680190000000eb00828f50003c003900c4
:10226000180078002200290002016000e20f5100ee
:1022700007003200012020000000e00001003500ce
:1022800001202400008c70000080eb00300037003b
:102290000200260002006000820f500009003a0090
:1022a00038009000808f5000060039000800780048
:1022b000a7ff0700800078000080eb000100e0002d
:1022c00023003a001805780000c0200000006500d7
:1022d00018003a00a80490006002200008004000a6
:1022e000808f540013003a0000202000f100070006
:1022f000200498000000e00005003a00290498003e
:10230000490498008904e80039049800080037005f
:102310000a60a0000a0c7800400498000120200008
:102320008080400031049800400c9800500c9800c8
:102330000c0007002800900050049800380090001e
:102340006004980000002600180c70000000eb00ec
:102350004f0578004f04be00000006004025210014
:1023600062003700881f7800688f22001804e000a0
:1023700003003a00f9ff070020c0b300004c7800ca
:102380004f04780000000600889fbe00000478001b
:10239000080078006eff0700800478000004200029
:1023a0001800600002003200280090005c00070066
:1023b0000000eb0020049800384090000004e0008a
:1023c000050035000000fb0028fa07000000e000cf
:1023d000010032008084eb00181090000000e00043
:1023e000080032006cfa07000000e0000100320033
:1023f0008084eb0018109000490007000000eb00fb
:102400001014980000082000180060001500320029
:102410000001eb006000b8000202d000a38122009e
:1024200003024200940f140005003a00000040002f
:1024300081804800008041000008eb000600370062
:1024400061004000e08048000201e800e80f500011
:10245000e08f5800f0ff3a000800780030000700d5
:102460000e003700000c780000c0eb0030449800ec
:1024700060022000080040002004980040049800fa
:1024800050049800400c980060049800500c98008c
:102490007004980076004400000c98000900780051
:1024a0004f04be0000000600881f78000004eb0007
:1024b0006140b800e2ff2f00f3ff2f000a01070080
:1024c0008282220080004100110078000000e000bc
:1024d00001003200acff07000804e800e80f5400d8
:1024e000f3ff3a004f0478000000060001002000ce
:1024f0000100e00009003200010080000100e0005e
:10250000060032008100e900010088008100d0004f
:1025100002008000828040008008780000000600f1
:102520000000e0002f003200c0017800e38f51006e
:102530002c0036000308a3002a003a00a1478100be
:102540000100e00002003200810f50000400310061
:1025500011009800a047890016003700820078001b
:10256000110190000200e00002003200800f5100d3
:10257000faff39001102780084824000850f500074
:1025800018003900808f520003003a00830842008f
:1025900001007800070037000200e000030032006d
:1025a00083014000830f51000e0039001200980093
:1025b00090009800900090000100e00009003200b7
:1025c00010014000828f500006003a00228f220046
:1025d0000009eb0010017800110841009100900003
:1025e0001100980000000600889fbe0000047800db
:1025f000914781000100e0000200320001007800f4
:102600000d003700a1478100408f220004003700f1
:10261000910f5400250036000180e80091009000e1
:102620000100e000faff3a0010003700920f54005a
:102630001e0036000280e800100178000200e00071
:10264000faff3a0011017800a1478100408f220073
:1026500004003700910f5400140036000180e80098
:1026600091009000828f5000faff3a00c947810024
:10267000888f540001003100880478000900780038
:10268000360007000000e00004003a00888f540084
:10269000050032008904d100f5ff370009187800e1
:1026a0009fff0700d2ff37000000eb004f04be0081
:1026b00000000600881f7800630440000800a100a5
:1026c0008000eb00800f540021003600e30f54001f
:1026d00001003e004800200008007800c2ff07000b
:1026e0008000eb000000e00019003200900078004c
:1026f0009101780064815100880f5100030031007e
:10270000110190000208780007003700088140009e
:1027100002087800910190001301980010017800e0
:102720001109140088087800100178000000eb00ff
:102730000200e00004003200920190000300e0007b
:10274000010032000280e800904789008180e800a3
:10275000010078004f047800000006008000780037
:102760000000eb000100e0000500340001007800eb
:1027700092f90700e10f400001003a000000eb0071
:102780000000060000c0da000000060000c0da0009
:102790000000060000c0da00000006003400f80067
:1027a0003200f8000203be0082027000850272004f
:1027b00002f0a6008301e800a301880000f0a60053
:1027c0008100e800910188001500b2000c00320081
:1027d000104978000402e90015003200610141004f
:1027e000020039003420ec000200280061004000a3
:1027f000f7ff39003220ec0000002800f4ff37001a
:10280000100978000482e9000900320062014100e9
:10281000020039003420ec00020028006200400071
:10282000f7ff39003220ec0000002800f4ff3700e9
:102830003200f9003400f9000601be000000060075
:102840000300e000070032009501800001d0fe0087
:102850001042780005d0fe000402fb00820f5200f7
:10286000110032008301e9009501800001d0fe00d3
:102870001042780005d0fe000404e0000800320099
:10288000000278001000b00000026a004260af0051
:1028900000f0a0000482d2000180b000e8ff370001
:1028a000000020000100200000000600839f680057
:1028b0000100e00002003d0060001000e080180010
:1028c0000300e00002003d0060011100e0811900fa
:1028d0005cf907004f00e00002003b0060001000c0
:1028e000e080180000000600020ab900001bb900d1
:1028f0000200b80081004200810043000000060091
:10290000889fbe008a9fbe0030044200b0844a0007
:1029100030054b0090854b006000b1000898be0068
:102920000a90be000440e10005c8e10006d0e100c5
:1029300007d8e10002003100680040001008e800fc
:102940004f05be004f04be0000000600889fbe0079
:102950008a9fbe003004be002005be00041854004b
:1029600005985c0006185d0007985d0011002000c6
:102970000440e10005c8e10006d0e10007d8e1000d
:10298000010039008000eb00108810004f05be00e8
:102990004f04be00000006001200fa00889fbe002f
:1029a0008a9fbe008c9fbe00e0b79f00f1b79f00da
:1029b00082bf9f0093bf9f000605be000404be00b7
:1029c0000000eb00d0b79f00c0b79f00b0b79f00da
:1029d000a0b79f0090b79f00000678005fb19700f6
:1029e000cfb09700820141003fb097000200e000a5
:1029f00004003d00370007007e805700c0ff07003d
:102a000003003700330007007e805700cfff070028
:102a1000dfb697000d00e0000c0035006fb29700a4
:102a2000ffb297000fbb97009fbb970010002000dc
:102a3000010020006011b800000272008182720063
:102a400002037300838373001b0007000c06e80079
:102a500001042000810f5600e0ff3a000d00e00065
:102a600004003d000802be000a03be007e8057003d
:102a7000a3ff07005fa897000000e00005003a00f0
:102a80001fb29700afb297003fb39700cfb3970044
:102a9000090007006fb09700ffb097000fb99700cb
:102aa0009fb997004f06be004f05be004f04be0001
:102ab0000080fa0000000600010007000000060088
:102ac000a4b79f00b5b79f00c6b79f00d7b79f00b8
:102ad000000006004f09de0082817100b3b79f003d
:102ae0004f01de008180400082807000a1b79f000e
:102af0008fb097004f09de00000040000200700018
:102b000090b79f007fa897004f01de0081804000b2
:102b10008280700081b79f000d0007004f3ade00f1
:102b20000000400004007000f0af9f0008000700a4
:102b30000402420085824a0006034b0087834b0053
:102b4000dfff07000802be000a03be000000060007
:102b50002fb29700bfb297004fb39700dfb3970033
:102b600000000600881f780018002000881f7800e9
:102b700089ff07008f87e9004f04780000000600f6
:102b8000801feb0084ff07008f87e900000006002c
:102b9000889fbe008a9fbe00e00f5000e08f580063
:102ba000e00f5900e08f59000c003d006044b80070
:102bb0006055b8000000540081805c0002015d0097
:102bc00083815d00180020001500070008003d000b
:102bd000180007000004eb00050037000004eb00bc
:102be0000f00070002003d0012000700180020003f
:102bf000dcff07000800e000060032006022b80099
:102c00006033b8000000520081805a0002015b006e
:102c100083815b004f05be004f04be00000006002c
:102c2000e00f5200e08f5a00e00f5b00e08f5b0086
:102c3000000006006044b8006055b800040254006b
:102c400085825c0006035d0087835d00000006004e
:102c5000889fbe008a9fbe008c1f7800e00f500046
:102c6000e08f5800e00f5900e08f59000d003d0043
:102c70006044b8006055b8000000540081805c00da
:102c800002015d0083815d001c0020000820e1003e
:102c900009a8e1000ab0e1000bb8e1000d003d0019
:102ca000080037000006eb00e00f5200e08f5a00ea
:102cb000e00f5b00e08f5b0006003d006044b80061
:102cc0006055b8000402540085825c0006035d0074
:102cd00087835d00aaff07000c00e00006003200b9
:102ce0006022b8006033b8000000520081805a00b2
:102cf00002015b0083815b004f0678004f05be0038
:082d00004f04be0000000600b4
:020000040000fa
:102d08004c45000044300000004c000045440000e1
:102d180031000000544d000052320000004e000007
:102d2800414d00004520000020000000207c0000ec
:102d380020000000535400004100000050520000e1
:102d480054000000535400004b2d000046000000c2
:102d580043500000552d0000550000002d2d0000a7
:102d68002d2d00002d2d00002d2d00002d2d0000f3
:102d78002d2d00002d2d00002d2d00002d2d0000e3
:102d88002d2d00002d2d00002d2d00002d2d0000d3
:102d98002d2d00002d2d00002d2d00002d2d0000c3
:102da8002d2d00002d2d0000002000002500000022
:102db8005b230000005d0000207c0000204600002e
:102dc8007265000065200000486500006170000021
:102dd800203d000020000000204200000d0a0000f5
:102de80000450000525200004f5200000041000010
:102df8004443000033000000444100004333000016
:102e080000570000445400000000000011110000a9
:102e180022220000333300004444000055550000ce
:102e2800666600007777000088880000999900009e
:102e3800aaaa0000bbbb0000cccc0000dddd00006e
:102e4800eeee0000cecd0000acab000002020000a8
:102e58000303000004040000050500000606000046
:102e680007070000080800000a0900001010000009
:102e78001011000012120000494400004c450000e7
:102e880000090000256300000925000075090000fd
:102e98002575000009250000750d00000a000000d6
:102ea80009250000750900000925000075250000a6
:102eb800250d00000a000000092500007509000022
:102ec800093c000031250000250d00000a00000023
:102ed800546d00007220000053760000630000006b
:042ee80004000000e2
:020000040000fa
:102eec001000fa002007980031079800420798005c
:102efc00530798006407980075079800600320003a
:102f0c001a1b0700000f78001e0078000000e0007c
:102f1c000e0032004e00900000004000131b070012
:102f2c00800078001e007800410898001e00780090
:102f3c00400890000000e00004003a001e007800f9
:102f4c007c1b07000000eb00000f78001e007800cf
:102f5c000000e000120032004e0090008000eb00f8
:102f6c000001eb00821f78009e0378007e03900026
:102f7c00ee0290005e0290000001be00be009000c8
:102f8c002e0090000b0007008f87e9001e007800d0
:102f9c007500070010002000100798000200370091
:102fac000080eb00100798001e0090000080fa00d3
:102fbc00000006001400fa00200798003107980062
:102fcc00420798005307980064079800750798000b
:102fdc00060f9800170f98004e009000000040005c
:102fec00800078001e0890004008900001017800d5
:102ffc00510a2000aaf707001e089000c008900094
:10300c00110798001e089000c00890004e01900017
:10301c00f0ff2700000041000000400080804000cd
:10302c001e089000111098000000eb00000f7800b3
:10303c000d0037003e0090001e00400090407800cc
:10304c001e0890001e0040007a00400001487800e5
:10305c003e0090001e004000104078000004e0008c
:10306c00050032001e0fe8001e007800e70f50002c
:10307c00f0ff360001003700000000001e08900031
:10308c008040eb00116098007e009000e90f50002a
:10309c000200360090002000700798001e08900077
:1030ac00fe009000310898001e089000fe00900071
:1030bc00411098001e0890008000eb005110980001
:1030cc001e0890000080e800941c07001e08900069
:1030dc006c004000911c07001e0890009e08900098
:1030ec00410098007e009000ea0010001e0890003d
:1030fc00610098001e0890009e089000110898002e
:10310c001e0990006000b8006011980071119800c1
:10311c001e0990006000b800001998001119980061
:10312c001e0890008040eb00417098006e019000ea
:10313c00ae0090001e009000b41b070080007800c9
:10314c001e089000010878000e0890000000e000b6
:10315c00030032000e0890009e08900001087800d1
:10316c000080fa00000006000200fa00000f780050
:10317c00361c0700308080000000e800308088009a
:10318c00008080000000e00007003a009e007800fc
:10319c000180880030808000e10f50000d003a0063
:1031ac006c0407000b003700608080000000e0001a
:1031bc0008003a0000808000b00890001e007800e3
:1031cc0030089000808f500002003e009e00780076
:1031dc0001808800a08080000000e800a0808800aa
:1031ec00a18080001e007800211098001e0078003d
:1031fc00b008900050808000808f50000300360093
:10320c001e00780030089000508088009e80e800f6
:10321c001e00780030089000ea01b9002045220019
:10322c0000004100441c0700151c07006080800052
:10323c000000e0000900320000808000b00890001f
:10324c001e00780030089000808f50000300310081
:10325c004a54020000000000000000000080fa0048
:10326c00000006000c00fa00400798005107980077
:10327c000000eb00000f7800bd01070041808000ca
:10328c00110798004e009000900078005e009000ae
:10329c0000804000200798004e00900090007800bd
:1032ac001e009000808f50000c0036004e009000e5
:1032bc00900078002e009000808f50001200360095
:1032cc00ae0090001e009000808f50000e00360063
:1032dc0010002000000f78000b0037004e0090000b
:1032ec00900078002e009000808f500004003e006b
:1032fc00ae0090001e009000808f5000020036003f
:10330c0010002000000f78004e009000ae009000de
:10331c00010878001e0078000000e0000500320073
:10332c00ae0090001e009000008050008000eb006a
:10333c005808070094010700300798003e009000e1
:10334c000000e00003003a004a54020000000000b4
:10335c00000000000080fa00000006000400fa00e3
:10336c00100798000000eb00000f78001e00900082
:10337c000000e000060032007d0107008000eb0039
:10338c001e009000430807007f010700000f780023
:10339c001e0078000000e00003003a004a540200ce
:1033ac0000000000000000000080fa000000060091
:1033bc000800fa0030079800be0090001107980032
:1033cc00008080009e009000808f500003003a0027
:1033dc000000eb00000f7800200037009b1b07005b
:1033ec001e0090005000900020079800a41b0700be
:1033fc0010808000ae009000808f500004003200de
:10340c0020808000ae009000808f500003003a00b6
:10341c0020002000000f780010003700ae00900054
:10342c00404d2200808f50000a003a001e00900090
:10343c00200890000000e00003003a00300020005b
:10344c00000f78000500370020002000000f7800e6
:10345c000200370010002000000f78001e007800da
:10346c000080fa00000006000c00fa0040079800eb
:10347c00510798000000eb00000f78005e009000f0
:10348c00e90f500002003600900020005007980011
:10349c006e1b07004e0090000000e00002003a0096
:1034ac0000808000010037004e009000100798004b
:1034bc001e009000c010900021079800ae009000f4
:1034cc005e009000808f50004e003200de009000b5
:1034dc002e009000808f50000c0036000080800081
:1034ec009e009000808f50000e0032000080800003
:1034fc00b00890005e009000808f500009003e00e4
:10350c0010002000000f78000600370000808000bb
:10351c009e009000808f500002003a0010002000a6
:10352c00000f78001e009000b00890003107980042
:10353c001e009000c01090001e00900030089000fb
:10354c00808f500003003a001e009000de009000b7
:10355c00310898001e009000de0090004110980089
:10356c001e009000600090000000e0000400350098
:10357c005e009000ea0010001e00900061009800b0
:10358c001e009000d00090003e009000ea01b900af
:10359c002045220000004100808f500013003a00ab
:1035ac001e0090000080e800b31b07001e00900076
:1035bc00b008900050808000808f500003003600cf
:1035cc001e00900030089000508088001e00900073
:1035dc008080e8001e00900030089000ea01b900dd
:1035ec002045220000004100531b07001e007800fc
:1035fc000000e000030032004a540200000000000a
:10360c00000000001e1b07000080fa0000000600ee
:10361c000400fa00100798000c1b07001e00900015
:10362c000000e00002003a0000808000010037003a
:10363c001e009000000f78001e80e8008e1b070013
:10364c001e007800200890000000e000030032000b
:10365c009e0078006c804000871b07001e80e800ed
:10366c0080007800404d2200331b0700041b07002c
:10367c00608080000000e00003003200f31a0700b5
:10368c0000040700fe1a0700008080009e007800ee
:10369c00808f50000e003a00608080000000e00037
:1036ac00040032004a540200000000000000000038
:1036bc0007003700a126810030808000808f5000e9
:1036cc0002003a000030ef0001003700d001070083
:1036dc000080fa00000006000600fa00200798009f
:1036ec000000eb00000f7800ae009000110798006e
:1036fc001e009000d0009000404d2200808f5000a2
:10370c000b003a001e009000a0089000a04c220074
:10371c00808f5000060032001e00900020089000a0
:10372c000000e00002003a0010002000000f7800ba
:10373c001e0078000080fa00000006000400fa0069
:10374c00100798009e009000010f78001e00780072
:10375c000000e00024003200008080009e00780011
:10376c00808f500020003200b81a07001e0078002d
:10377c00d9ff07000000e0001a0032001e80e800ac
:10378c003d1b07001e007800b008900050808000a0
:10379c00808f5000030036001e0078003008900027
:1037ac00508088009e80e8001e0078003008900051
:1037bc00ea01b9002045220000004100de1a070092
:1037cc001e007800b0089000008080003008900047
:1037dc00808f5000030039004a54020000000000a2
:1037ec0000000000a61a07000080fa000000060086
:1037fc000800fa00300798000000eb00000f78007a
:10380c00be009000110798000000eb002007980004
:10381c001e009000b0ff07000000e0002400320002
:10382c00d08080000000e0001c003a001e009000d8
:10383c00b00890000080800030089000808f50000d
:10384c000200390010002000000f78001e009000cc
:10385c000080e800081b07001e009000b0089000d4
:10386c0050808000808f5000030036001e009000b6
:10387c0030089000508088001e0090008080e80086
:10388c001e00900030089000ea01b900204522008b
:10389c0000004100a81a0700050037001e00900028
:1038ac006c00400080007800a04c2200a21a070097
:1038bc001e0078000080fa00000006000200fa00ea
:1038cc00850121000002eb008001eb008207200043
:1038dc0001742900a019220081fd0700000f780057
:1038ec001e007800e10f500002003a00a211070000
:1038fc00000f78001e007800e10f50000e003a0017
:10390c0011028000f0f12f00008060000050a00038
:10391c001002880000000000000000000080eb0096
:10392c00b080880010002000608088000830ef0014
:10393c00ec100700021a07000080fa0000000600d5
:10394c000000fa0011028000f0f12f0000806000ee
:10395c000050a000100288000000000000000000d1
:10396c000c30ef00191a07000080fa000000060066
:10397c000000fa00d08080000000e800d0808800b1
:10398c000080fa00000006000600fa000000eb00c0
:10399c00000f78000000eb00100798002b1a0700ae
:1039ac00d08080000000e900d0808800d0808000aa
:1039bc000000e00043003a00308080000000e0008e
:1039cc00400032001f00370080268100300090003c
:1039dc00000f78009e0078006c804000a61a07004b
:1039ec001e80e800a41a07001e007800b0089000a2
:1039fc0050808000808f5000030036001e0078003d
:103a0c0030089000508088009e80e8001e007800ee
:103a1c0030089000ea01b900204522000000410066
:103a2c00451a07001e007800b00890000080800046
:103a3c0030089000808f50000200390010002000e8
:103a4c0080808800502681000000e000deff3a00f4
:103a5c001e0078000000e00001003200090307009e
:103a6c0071808000210798002e0090000000e0007b
:103a7c000c003200790007000000e0000200320068
:103a8c0010002000808088002e0090000000e900cb
:103a9c00200798002e0090000000e000f5ff3a008f
:103aac000e30ef00808080000000e0000500320046
:103abc0010002000100798004a540200000000007b
:103acc0000000000ee1907001e0090000080fa00b4
:103adc00000006000200fa00dc190700418080009b
:103aec00010f7800e61907001e0078000080fa002c
:103afc00000006000400fa000000eb00000f780044
:103b0c0041808000110798001e0090000080fa0090
:103b1c00000006000000fa00308080000080fa00ef
:103b2c00000006000400fa00100798001e00900028
:103b3c000000e00002003a00008080000100370025
:103b4c001e009000000f78009e0078007a804000e4
:103b5c000080fa00000006000a00fa002007980016
:103b6c0031079800420798000000eb00000f780026
:103b7c00a0002000100798007dff07003080800017
:103b8c00be009000808f5000300039001e00900065
:103b9c000000e900100798001e009000ea00b90030
:103bac008000780020452200808040001e007800b4
:103bbc00f400b9002e01900000004100120020001a
:103bcc00510207001e0f40001e0090000000e00094
:103bdc00eeff3a00118080001e007800f400b9005e
:103bec002e01900000004100220020004602070038
:103bfc001e0f4000218080001e007800f400b900e8
:103c0c002e01900000004100220020003e0207001f
:103c1c001e0f40001e007800f400b900ae009000aa
:103c2c000080400032002000414d22003602070087
:103c3c001e0f40004e0090000000e0000300320018
:103c4c00491007004e0190000089be004eff07008e
:103c5c001e0078000080fa00000006000a00fa003e
:103c6c000000eb00000f7800d08080000000e00026
:103c7c005c003a00408080000000e80010079800cb
:103c8c009e009000418088001e0090000000e00023
:103c9c000a003a00118080002107980020808000e3
:103cac0010808800ae0090002180880090808000f9
:103cbc000000e8009080880072020700b08080004d
:103ccc009e009000808f50003a00390001003700b0
:103cdc000000000010808000100078000000e00060
:103cec0003003a000080eb00b08088003100370000
:103cfc001080800030009000300090003007980059
:103d0c003e00900090009000410798009e009000ab
:103d1c004e009000808f500003003100ce009000c8
:103d2c00b1808800230037003e0090000080e8003e
:103d3c00d11907003e009000200890000000e00020
:103d4c00030032003e0090006c004000ca190700ce
:103d5c003e009000b008900050808000808f500092
:103d6c00030036003e009000300890005080880020
:103d7c003e0090008080e8003e00900030089000eb
:103d8c00ea01b90020452200000041006a19070031
:103d9c003e009000b0089000008080003008900039
:103dac00808f5000caff390010002000000f7800ef
:103dbc00c8ff37000080800030089000ea00b9008e
:103dcc008000780020452200008040001000780020
:103ddc00e10f50000600360010002000000f7800a4
:103dec0003003700708080000000e80070808800bd
:103dfc00808080000000e0000200320010002000f3
:103e0c00000f78001e0078000080fa000000060009
:103e1c000400fa00d08080000000e00003003200b3
:103e2c001000200080808800440037001030ef0024
:103e3c00cd0f07000081880011818800028180006d
:103e4c0013818000e0808000f1808000800f5100a1
:103e5c00818f59000d00360006808000661190009d
:103e6c00f61190000481800015818000e0808000b4
:103e7c00f18080000000520081805a000200400056
:103e8c0083804800601398007113980000818000b3
:103e9c0011818000e0808800f180880051808000d2
:103eac00010f7800010037001e0fe9001e0078009a
:103ebc00ea00b90080007800204522000080400014
:103ecc00100078000000e000f7ff32001e007800c0
:103edc00ea00b900800078002045220000804000f4
:103eec00100798001e0090001000900090009000a9
:103efc001e009000110098001e0090009000900091
:103f0c001e00900064004000808f500005003a00b5
:103f1c001e00900010009000900090001e00900079
:103f2c00110098001e0090001000900030009000ce
:103f3c00008088009e007800518088000080fa0084
:103f4c00000006000400fa00000f7800110798002a
:103f5c00008080006c004000800078001e0078001b
:103f6c0013190700110020001e00900049050700de
:103f7c000080fa00000006000600fa00000f78002e
:103f8c001107980022079800008080009e00900086
:103f9c0001f0a00061009800008080006c004000df
:103fac00800078001e007800e31807001100200044
:103fbc002e009000370507000080fa000000060074
:103fcc000600fa00000f78001107980022079800ed
:103fdc00008080006c004000800078001e0078009b
:103fec00d51807002e0090000000e00002003200ff
:103ffc000080eb0010079800ae0090001e009000af
:10400c00240507000080fa00000006000600fa00f4
:10401c00200798002e009000300090003000900097
:10402c00100798001e0090006c0040001219070049
:10403c00d08080000000e00014003a001e009000c8
:10404c000080e8000c1907001e009000b0089000da
:10405c0050808000808f5000030036001e009000be
:10406c0030089000508088001e0090008080e8008e
:10407c001e00900030089000ea01b9002045220093
:10408c0000004100ac180700050037001e0090002e
:10409c006c00400080007800a04c2200a61807009d
:1040ac001e009000b0089000008080003008900046
:1040bc00808f50000500360010002000000f7800a3
:1040cc001000200080808800020037000000eb0008
:1040dc00000f78001e0078000080fa000000060037
:1040ec000800fa0020079800310798003e00900065
:1040fc008000780001f0a0002e00900001087800ec
:10410c002e00900030009000100798002e009000b8
:10411c00d91807001e0090000080e800d618070090
:10412c001e009000b008900050808000808f5000de
:10413c00030036001e00900030089000508088006c
:10414c001e0090008080e8001e0090003008900057
:10415c00ea01b90020452200000041007618070052
:10416c001e009000b0089000008080003008900085
:10417c00808f50000500360010002000000f7800e2
:10418c001000200080808800020037000000eb0047
:10419c00000f78001e0078000080fa000000060076
:1041ac000200fa00000f7800918080001e00780059
:1041bc0001087800418080001e00780011009800f2
:1041cc000080fa00000006000800fa0020079800a2
:1041dc00310798001d1807004180800011079800d6
:1041ec003e00900010007800e10f400003003a0000
:1041fc000000eb00000f7800250037002e00900027
:10420c009000780090808000808f50000800320071
:10421c002e009000900090001e009000808f5000a7
:10422c0003003e0010002000000f7800180037003b
:10423c002e009000100090009e0090008080500096
:10424c003e00900010007800808f50000e0031006e
:10425c003e009000900078002e009000100190001d
:10426c001e00900000005100808040003e00900035
:10427c00010878002e009000c9ff07000000eb0039
:10428c00000f78000200370010002000000f7800ab
:10429c00fb1707001e0078000080fa0000000600e3
:1042ac000000fa0010002000808088000080fa00d6
:1042bc00000006000600fa00200798002e0090006f
:1042cc000000e00006003200ae00900011079800dc
:1042dc001e009000b0109000010f78000200370013
:1042ec000000eb00000f78001e0078000080fa0040
:1042fc00000006000600fa0010079800210798003d
:10430c001e0090000000e000050032009e009000ae
:10431c00010f78001e007800ae009000311098005c
:10432c000080fa00000006000200fa00000f78007e
:10433c002400070090228100e10f5000030036009a
:10434c004a54020000000000000000009a19070007
:10435c00f7ff37000200fa000000eb00000f7800b6
:10436c00070037001e007800ea00b90080007800d2
:10437c002045220000804000cf1707001e0fe800e8
:10438c001e007800e90f5000f6ff3600604b22004b
:10439c00c9170700004c2200c7170700a04c2200c9
:1043ac00c5170700404d2200c3170700604b2200c1
:1043bc0010808800004c2200208088000080fa00c9
:1043cc00000006000000fa000080fa000000060061
:1043dc000a00fa001007980021079800320798008d
:1043ec00430798001e0090000000e00002003a0015
:1043fc0000808000010037001e009000000f780044
:10440c002e0090001e0878001e017800fa00410072
:10441c002e009000110098001e007800b00890004b
:10442c002e009000410098001e007800c0089000fb
:10443c002e009000010898001e007800a01090003b
:10444c002e009000210098002e009000300090006b
:10445c00e30f500009003a0045fd07001e007800ec
:10446c00200890000000e000030032002e009000b5
:10447c00210020003100980043fd07001e00780049
:10448c00c01090002e009000510098001e00780083
:10449c00f0109000601090002e01900060019800c8
:1044ac00710198004e009000e50f5000040032009e
:1044bc002e009000ce0090003100980004003700d0
:1044cc001e009000bafb0700ae009000b0009800f0
:1044dc003e0090000000e000060032001e00780054
:1044ec00101090004f000700ae009000900898004c
:1044fc00030037002e0090008000eb00110898009c
:10450c000080fa00000006001000fa005007980026
:10451c0061079800720798000000eb00000f78000c
:10452c006e009000100078000000e0003a003200ad
:10453c00ee009000110798001e00900010009000f3
:10454c00900090001e009000110098001e0090003a
:10455c00900090001e00900064004000808f50007e
:10456c0005003a001e009000100090009000900092
:10457c001e009000110098001e009000100090008a
:10458c003000900020079800ee0090003107980052
:10459c003e00900010009000900090003e009000b3
:1045ac00110098003e009000900090003e0090009a
:1045bc0064004000808f500005003a003e009000df
:1045cc0010009000900090003e00900011009800a8
:1045dc003e009000100090003000900040079800c2
:1045ec001e007800f400b900de009000008040004e
:1045fc00fe01900012002000800078004e00900018
:10460c0073ff07001e0fe800ce0090002e009000f4
:10461c00808f5000dcff3a001e0078000080fa000a
:10462c00000006000600fa00200798006000b800a1
:10463c00008fbe00070037002e0090000000e9003c
:10464c002007980012002000030020001e0f4100dc
:10465c005e9749002e0090009040780050cab3003d
:10466c0080cf5000f4ff32001e00be008100d1004c
:10467c000080d300008fbe001e0078000080fa007e
:10468c00000006000200fa00108080001000780084
:10469c000000e00003003a000080eb00b0808800ce
:1046ac000700370010808000300090003000900030
:1046bc00000f78001e00780010009000b080880079
:1046cc000080fa00000006000200fa000180800061
:1046dc00010f78001e0078000080fa000000060030
:1046ec000200fa00608080000000e00003003a0045
:1046fc0010002000000f780008003700d0808000e8
:10470c000000e00003003a0020002000000f7800b9
:10471c00020037000000eb00000f78001e0078004c
:10472c000080fa00000006000400fa001007980050
:10473c009e009000010f78001e0090000000e00029
:10474c00320032001e007800b0089000008080001b
:10475c0030089000808f50002c0031001e00780033
:10476c00600090000000e000050035000080800033
:10477c0030089000ea0010001e00780061009800dc
:10478c001e007800d00090001e00780030089000c9
:10479c00ea01b9002045220000004100808f500042
:1047ac0016003a001e80e8003317070000808000d6
:1047bc00b00890001e007800310898001e007800a8
:1047cc00b008900050808000808f500003003600ad
:1047dc001e00780030089000508088009e80e80011
:1047ec001e00780030089000ea01b9002045220034
:1047fc0000004100d0160700040037000080800044
:10480c00b00890001e007800310898000080fa0073
:10481c00000006000600fa0020079800ae00900089
:10482c00110798000000eb00000f78002e0090009c
:10483c000000e0002d0032001e009000501090008f
:10484c008000e9001e009000511098001e0090009e
:10485c00b00890001e00900040109000808f500017
:10486c00220032001e009000501090000000e0006a
:10487c001e003a001e0090000080e800fe160700a3
:10488c001e009000c01090001e009000310898008f
:10489c001e00900030089000ea0010001e009000ee
:1048ac00610098001e009000b008900050808000bd
:1048bc00808f5000030036001e00900030089000de
:1048cc00508088001e0090008080e8001e00900040
:1048dc0030089000ea01b900204522000000410098
:1048ec009516070010002000000f78001e007800bd
:1048fc000080fa00000006000600fa00100798007d
:10490c0021079800ae0090001e0090006bf107008c
:10491c001e0090006ff10700000f780005003700b3
:10492c001e0090001e00400001c2b3000148780038
:10493c001e0fe8001e007800e60f5000f8ff36004e
:10494c001e0090001e0040008040eb0001487800e3
:10495c001e0090001e0040000080fa0000000600bf
:10496c000a00fa00400798004e0090008040eb00cf
:10497c00014878003080800020079800308080004b
:10498c00f400b90079140700100798001e0090007d
:10499c000000e000590032002e0090000001eb00f6
:1049ac00800078001e0090006bfc07002007980028
:1049bc000000eb00300798004a0037003e009000e2
:1049cc00f400b9009e009000008040003000900080
:1049dc00e20f50000d003200e20f500003003e00c9
:1049ec00e10f50000600320011003700e30f5000b9
:1049fc0009003200e40f50000a0032000c003700ae
:104a0c0020c5b300004f78000c00370020c4b30061
:104a1c00004f78000900370030c5b300004f780014
:104a2c000600370040c4b300004f78000300370085
:104a3c000040eb00004f7800000000003e009000aa
:104a4c00f400b9009e00900000804000100090001f
:104a5c00800078004e009000a7ff070040079800e8
:104a6c003e009000f400b9009e00900000804000d1
:104a7c00a00190003e009000f400b9009e00900050
:104a8c0000804000100990003e009000f400b90036
:104a9c009e00900000804000c00090001e00fb00b3
:104aac00831f7800821f7800811f7800801f780098
:104abc0050742900801f78004e0090001ff10700f1
:104acc00ea8757004e00900002f10700ce009000dc
:104adc0000804000400798003e0090000000e80075
:104aec0030079800be0090002e009000808f500080
:104afc00b2ff39001e0090008e1407000080fa00ef
:104b0c00000006001000fa00700798007e0090006c
:104b1c008040eb000148780030808000300798001e
:104b2c0030808000f400b90010140700000f7800ea
:104b3c001e0078000000e000580032003e0090009b
:104b4c00ea00470001017800800078001e00780020
:104b5c0001fc0700300798005e009000ee0090000a
:104b6c004206200003002000b3f007005007980015
:104b7c00610798005e009000ee009000e00f50007e
:104b8c00e08f5800430032000000eb004007980013
:104b9c003c0037004e009000f400b9001e004000ad
:104bac0060029000f00290005e009000ee00900019
:104bbc000001be000400be009ff007001007980023
:104bcc00210798004e009000f400b9001e00400030
:104bdc0010009000800078007e00900046ff0700d7
:104bec00700798001e009000ae009000e00f50007f
:104bfc00e08f58000f0032001e0190004e00900014
:104c0c00f400b9001e004000f0009000600090001d
:104c1c0000007800821f7800801f78004075290002
:104c2c00801f78007e009000c4f00700e6875700d4
:104c3c000c0037004e009000f400b9001e0040003c
:104c4c00f00090006000900000007800801f780059
:104c5c0000762900801f78007e009000b7f00700d6
:104c6c00e48757007e0090009af00700fe00900049
:104c7c0000804000700798004e0090000000e80093
:104c8c0040079800ce0090003e009000808f5000ae
:104c9c00c0ff39001e007800261407000080fa00bf
:104cac00000006000200fa0000808000e000900086
:104cbc00010f78000080800001808000b108900016
:104ccc00ea801000610098001e0078000080fa0055
:104cdc00000006000000fa00008080000000e000e8
:104cec000400320000808000d01090008100e800a9
:104cfc0051109800008080000080fa00000006002f
:104d0c000800fa0020079800310798004f1507009b
:104d1c00008080009018900000189000e00f500068
:104d2c00e08f58000c003a000080800011c0b300e6
:104d3c00417098003e0090000000e0000600320038
:104d4c00110020003e009000d20107004a540200de
:104d5c000000000000000000491507003b1507008b
:104d6c00008080000019900090199000028fbe0006
:104d7c001e00be00e00f5000e08f58000f00320004
:104d8c002e0090000000e000050032000280800040
:104d9c006000b8000019980011199800070037003e
:104dac00028080000082eb008082eb003e0042001b
:104dbc00ae804a00001998001119980000808000fc
:104dcc008040eb00417098002d1507001e00be00be
:104ddc000080fa00000006000e00fa001007980090
:104dec002107980032079800430798005407980051
:104dfc006507980015150700008080004070900032
:104e0c00e24f500022003200048080000419900010
:104e1c00941990001e009000ae0090000080ea00f3
:104e2c008180ea008202780003017800800178001a
:104e3c000100780083826200000061008000eb00ba
:104e4c00c000dd00000020000001be006128b80099
:104e5c000001710081817100021a9800131a9800e8
:104e6c000080800011c0b300417098006e0090006b
:104e7c000000e00006003200110020006e009000df
:104e8c00840107004a5402000000000000000000ea
:104e9c00fb140700ed1407005e0090000000e0001a
:104eac0005003200008080009018900000189000df
:104ebc005e0190000089be00008080004070900070
:104ecc00e14f500003003a000000eb00000f7800a7
:104edc001800370004808000041990009419900089
:104eec003e009000ce0090000080ea008180ea0035
:104efc0082027800030178008001780001007800bc
:104f0c0083826200000061008000eb00c000dd00c5
:104f1c00000020000001be006128b80000017100f3
:104f2c0081817100021a9800131a98001000200059
:104f3c00000f7800008080008040eb0041709800ea
:104f4c00cf1407001e0078000080fa000000060055
:104f5c001000fa0030079800420798005307980099
:104f6c00610798007407980010002000000f78006b
:104f7c00be00900011079800b41407007e0090004a
:104f8c000000e000050032001e0090009018900018
:104f9c00001890007e0190000089be001e00900059
:104fac0040719000424798001e00900021c0b30051
:104fbc00417098006e009000e20f50001700320014
:104fcc00e20f500005003e000000e0002e00320011
:104fdc00e10f5000060032002c003700e30f5000a8
:104fec0017003200e40f50001b003200270037007e
:104ffc001e00900000199000901990004e00900037
:10500c00de00900000007100818071001e01900094
:10501c0000199800111998001c0037001e00900010
:10502c00901890000018900061004000e08048004b
:10503c001e019000001998001119980013003700f8
:10504c001e0090004e019000de01900002189800a6
:10505c00131898000d0037004e409000e24f50009e
:10506c00060032001e0090004e019000de01900000
:10507c000218980013189800040037000000eb0089
:10508c00000f780001003700000000004e40900037
:10509c00e14f50001c003a001e0090000080e80018
:1050ac00f51407001e009000b0089000508080009e
:1050bc00808f5000030036001e00900030089000d6
:1050cc00508088001e0090008080e8001e00900038
:1050dc0030089000ea01b900204522000000410090
:1050ec00951407001e009000b0089000008080000e
:1050fc0030089000808f5000030036004a540200a4
:10510c0000000000000000005d1407001e00780085
:10511c000080fa00000006001400fa004007980016
:10512c00520798006307980071079800040f9800c5
:10513c00150f980010002000000f7800ce00900092
:10514c00110798000000eb00200798000e08900053
:10515c000000e000050032001e0090009018900046
:10516c00001890000e0990000089be001e009000ef
:10517c0040719000624798001e00900021c0b3005f
:10518c00417098007e009000e20f50001700320032
:10519c00e20f500005003e000000e0002e0032003f
:1051ac00e10f5000060032002c003700e30f5000d6
:1051bc0017003200e40f50001b00320027003700ac
:1051cc001e00900000199000901990005e00900055
:1051dc00ee00900000007100818071001e019000b3
:1051ec0000199800111998001c0037001e0090003f
:1051fc00901890000018900061004000e08048007a
:10520c001e01900000199800111998001300370026
:10521c001e0090005e019000ee01900002189800b4
:10522c00131898000d0037006e409000e24f5000ac
:10523c00060032001e0090005e019000ee0190000e
:10524c000218980013189800040037000000eb00b7
:10525c00000f780001003700000000006e40900045
:10526c00e14f50002b003a00d08080000000e0009d
:10527c0014003a001e0090000080e8007e14070025
:10528c001e009000b008900050808000808f50006d
:10529c00030036001e0090003008900050808800fb
:1052ac001e0090008080e8001e00900030089000e6
:1052bc00ea01b90020452200000041001e1407003d
:1052cc00050037001e0090006c0040008000780044
:1052dc00a04c2200181407001e009000b00890008b
:1052ec000080800030089000808f5000090036004c
:1052fc001e0890000000e000040032001e08900020
:10530c001100200001087800020037001000200076
:10531c00808088001e0078000080fa0000000600e3
:10532c000a00fa003007980041079800be00900070
:10533c00010f78000000eb00100798001e007800a9
:10534c00c0709000414798001e00780021c0b30047
:10535c00417098001e007800901890000018900082
:10536c0061004000e08048001e01780000199800a0
:10537c00111998004e409000e14f500029003a005e
:10538c00d08080000000e00012003a001e80e8008f
:10539c00391407001e007800b0089000508080007f
:1053ac00808f5000030036001e00780030089000fb
:1053bc00508088009e80e8001e0078003008900025
:1053cc00ea01b9002045220000004100da13070071
:1053dc00050037009e0078006c804000800078004b
:1053ec00a04c2200d41307001e007800b0089000d7
:1053fc000080800030089000808f5000090036003b
:10540c004e0090000000e000040032004e009000be
:10541c001100200001087800020037001000200065
:10542c00808088000080fa00000006000600fa0068
:10543c00200798002e0090000000e00002003a00c7
:10544c0000808000010037002e00900010079800ab
:10545c007e1307001e00900040709000e24f500039
:10546c0006003a001e0090008040eb00417098004e
:10547c0010002000000f7800020037000000eb0045
