:020000040000fa
:080000000002040000000000f2
:020000040000fa
:04000800a40300004d
:020000040000fa
:04000c00d403000019
:020000040000fa
:040010009a0400004e
:020000040000fa
:04001400f4030000f1
:020000040000fa
:0400180014040000cc
:020000040000fa
:04001c00ba04000022
:020000040000fa
:040020007004000068
:020000040000fa
:04002400ba0400001a
:020000040000fa
:04002800ba04000016
:020000040000fa
:04002c00ba04000012
:020000040000fa
:04003000ba0400000e
:020000040000fa
:04003400ba0400000a
:020000040000fa
:04003800ba04000006
:020000040000fa
:04003c00ba04000002
:020000040000fa
:04004000ba040000fe
:020000040000fa
:04004400ba040000fa
:020000040000fa
:04004800ba040000f6
:020000040000fa
:04004c00ba040000f2
:020000040000fa
:04005000ba040000ee
:020000040000fa
:04005400ba040000ea
:020000040000fa
:04005800ba040000e6
:020000040000fa
:04005c00ba040000e2
:020000040000fa
:04006000ba040000de
:020000040000fa
:04006400ba040000da
:020000040000fa
:04006800ba040000d6
:020000040000fa
:04006c00ba040000d2
:020000040000fa
:04007000ba040000ce
:020000040000fa
:04007400ba040000ca
:020000040000fa
:04007800ba040000c6
:020000040000fa
:04007c00ba040000c2
:020000040000fa
:04008000ba040000be
:020000040000fa
:04008400ba040000ba
:020000040000fa
:04008800ba040000b6
:020000040000fa
:04008c00ba040000b2
:020000040000fa
:04009000ba040000ae
:020000040000fa
:04009400ba040000aa
:020000040000fa
:04009800ba040000a6
:020000040000fa
:04009c00ba040000a2
:020000040000fa
:0400a000ba0400009e
:020000040000fa
:0400a400ba0400009a
:020000040000fa
:0400a800ba04000096
:020000040000fa
:0400ac00ba04000092
:020000040000fa
:0400b000ba0400008e
:020000040000fa
:0400b400ba0400008a
:020000040000fa
:0400b800ba04000086
:020000040000fa
:0400bc00ba04000082
:020000040000fa
:0400c000ba0400007e
:020000040000fa
:0400c400ba0400007a
:020000040000fa
:0400c800ba04000076
:020000040000fa
:0400cc00ba04000072
:020000040000fa
:0400d000ba0400006e
:020000040000fa
:0400d400ba0400006a
:020000040000fa
:0400d800ba04000066
:020000040000fa
:0400dc00ba04000062
:020000040000fa
:0400e000ba0400005e
:020000040000fa
:0400e400ba0400005a
:020000040000fa
:0400e800ba04000056
:020000040000fa
:0400ec00ba04000052
:020000040000fa
:0400f000ba0400004e
:020000040000fa
:0400f400ba0400004a
:020000040000fa
:0400f800ba04000046
:020000040000fa
:0400fc00ba04000042
:020000040000fa
:04010000ba0400003d
:020000040000fa
:04010400ba04000039
:020000040000fa
:04010800ba04000035
:020000040000fa
:04010c00ba04000031
:020000040000fa
:04011000ba0400002d
:020000040000fa
:04011400ba04000029
:020000040000fa
:04011800ba04000025
:020000040000fa
:04011c00ba04000021
:020000040000fa
:04012000ba0400001d
:020000040000fa
:04012400ba04000019
:020000040000fa
:04012800ba04000015
:020000040000fa
:04012c00ba04000011
:020000040000fa
:04013000ba0400000d
:020000040000fa
:04013400ba04000009
:020000040000fa
:04013800ba04000005
:020000040000fa
:04013c00ba04000001
:020000040000fa
:04014000ba040000fd
:020000040000fa
:04014400ba040000f9
:020000040000fa
:04014800ba040000f5
:020000040000fa
:04014c00ba040000f1
:020000040000fa
:04015000ba040000ed
:020000040000fa
:04015400ba040000e9
:020000040000fa
:04015800ba040000e5
:020000040000fa
:04015c00ba040000e1
:020000040000fa
:04016000ba040000dd
:020000040000fa
:04016400ba040000d9
:020000040000fa
:04016800ba040000d5
:020000040000fa
:04016c00ba040000d1
:020000040000fa
:04017000ba040000cd
:020000040000fa
:04017400ba040000c9
:020000040000fa
:04017800ba040000c5
:020000040000fa
:04017c00ba040000c1
:020000040000fa
:04018000ba040000bd
:020000040000fa
:04018400ba040000b9
:020000040000fa
:04018800ba040000b5
:020000040000fa
:04018c00ba040000b1
:020000040000fa
:04019000ba040000ad
:020000040000fa
:04019400ba040000a9
:020000040000fa
:04019800ba040000a5
:020000040000fa
:04019c00ba040000a1
:020000040000fa
:0401a000ba0400009d
:020000040000fa
:0401a400ba04000099
:020000040000fa
:0401a800ba04000095
:020000040000fa
:0401ac00ba04000091
:020000040000fa
:0401b000ba0400008d
:020000040000fa
:0401b400ba04000089
:020000040000fa
:0401b800ba04000085
:020000040000fa
:0401bc00ba04000081
:020000040000fa
:0401c000ba0400007d
:020000040000fa
:0401c400ba04000079
:020000040000fa
:0401c800ba04000075
:020000040000fa
:0401cc00ba04000071
:020000040000fa
:0401d000ba0400006d
:020000040000fa
:0401d400ba04000069
:020000040000fa
:0401d800ba04000065
:020000040000fa
:0401dc00ba04000061
:020000040000fa
:0401e000ba0400005d
:020000040000fa
:0401e400ba04000059
:020000040000fa
:0401e800ba04000055
:020000040000fa
:0401ec00ba04000051
:020000040000fa
:0401f000ba0400004d
:020000040000fa
:0401f400ba04000049
:020000040000fa
:0401f800ba04000045
:020000040000fa
:0401fc00ba04000041
:020000040000fa
:04020000ba0400003c
:020000040000fa
:04020400ba04000038
:020000040000fa
:04020800ba04000034
:020000040000fa
:04020c00ba04000030
:020000040000fa
:04021000ba0400002c
:020000040000fa
:04021400ba04000028
:020000040000fa
:04021800ba04000024
:020000040000fa
:04021c00ba04000020
:020000040000fa
:04022000ba0400001c
:020000040000fa
:04022400ba04000018
:020000040000fa
:04022800ba04000014
:020000040000fa
:04022c00ba04000010
:020000040000fa
:04023000ba0400000c
:020000040000fa
:04023400ba04000008
:020000040000fa
:04023800ba04000004
:020000040000fa
:04023c00ba04000000
:020000040000fa
:04024000ba040000fc
:020000040000fa
:04024400ba040000f8
:020000040000fa
:04024800ba040000f4
:020000040000fa
:04024c00ba040000f0
:020000040000fa
:04025000ba040000ec
:020000040000fa
:04025400ba040000e8
:020000040000fa
:04025800ba040000e4
:020000040000fa
:04025c00ba040000e0
:020000040000fa
:04026000ba040000dc
:020000040000fa
:04026400ba040000d8
:020000040000fa
:04026800ba040000d4
:020000040000fa
:04026c00ba040000d0
:020000040000fa
:04027000ba040000cc
:020000040000fa
:04027400ba040000c8
:020000040000fa
:04027800ba040000c4
:020000040000fa
:04027c00ba040000c0
:020000040000fa
:04028000ba040000bc
:020000040000fa
:04028400ba040000b8
:020000040000fa
:04028800ba040000b4
:020000040000fa
:04028c0070030000fb
:020000040000fa
:04029000ba040000ac
:020000040000fa
:04029400ba040000a8
:020000040000fa
:04029800ba040000a4
:020000040000fa
:04029c00ba040000a0
:020000040000fa
:0402a000ba0400009c
:020000040000fa
:0402a400ba04000098
:020000040000fa
:0402a800ba04000094
:020000040000fa
:0402ac00ba04000090
:020000040000fa
:0402b000ba0400008c
:020000040000fa
:0402b400ba04000088
:020000040000fa
:0402b800ba04000084
:020000040000fa
:0402bc00ba04000080
:020000040000fa
:0402c000ba0400007c
:020000040000fa
:0402c400ba04000078
:020000040000fa
:0402c800ba04000074
:020000040000fa
:0402cc00ba04000070
:020000040000fa
:0402d000ba0400006c
:020000040000fa
:0402d400ba04000068
:020000040000fa
:0402d800ba04000064
:020000040000fa
:0402dc00ba04000060
:020000040000fa
:0402e000ba0400005c
:020000040000fa
:0402e400ba04000058
:020000040000fa
:0402e800ba04000054
:020000040000fa
:0402ec00ba04000050
:020000040000fa
:0402f000ba0400004c
:020000040000fa
:0402f400ba04000048
:020000040000fa
:0402f800ba04000044
:020000040000fa
:0402fc00ba04000040
:020000040000fa
:04030000ba0400003b
:020000040000fa
:04030400ba04000037
:020000040000fa
:04030800ba04000033
:020000040000fa
:04030c00ba0400002f
:020000040000fa
:04031000ba0400002b
:020000040000fa
:04031400ba04000027
:020000040000fa
:04031800ba04000023
:020000040000fa
:04031c00ba0400001f
:020000040000fa
:04032000ba0400001b
:020000040000fa
:10040000cf6b22000eff27000e01880000002000a5
:100410000000e000020032000001200020028800fd
:1004200014000700550107000000e00003003a0037
:10043000807222000100200002003700000020002e
:1004400001002000810f70004220ae000f00070065
:10045000000020000000e0004220ae00000002008a
:1004600000000000e2260200000000000040da0068
:100470000000fe00e00420000000e0000200320066
:10048000002020009001880000000600a1028800e2
:10049000800478000000eb001f003700e284440075
:1004a00054a0b4009905ba00e284440054a0b400fa
:1004b0009906ba00e284440054a0b4000006eb00a0
:1004c000476fde00fd07b200ae018800636ce100fb
:1004d00003003a000ad801000000eb000e003700cc
:1004e000606ce10008003a00004deb000a05e800ee
:1004f000020039003420ec000af0a0008b05e9006e
:10050000f9ff3e00040037006168e100010032009d
:100510000086eb000b00070019c7ba001905ba00e6
:100520000e04e00003003a000a00e000dbff3a009e
:1005300000000600fe07b200ae0288008a047800c0
:10054000f5ff37000cd0a300e20f4d001c0039006e
:1005500089027800354dba000a05e800020039002a
:100560003420ec000af0a0008b05e9000f003200f7
:10057000254dba000a05e800020039003420ec00dd
:100580000af0a0008b05e900080032000c00e00032
:100590000600320015cdba000a05e8000200390055
:1005a0003420ec000af0a0008b05e9008984e80003
:1005b00054a0b4000b00e000e2ff3a000000060087
:1005c0009902ba00055d78008b05e900f7ff32005b
:1005d000c82ade00055d78008b05e900f3ff3200d4
:1005e0000c00e000f1ff320019ddba00eeff370029
:1005f00004082000010037000002eb006100e10068
:1006000001003200100005003200f8003400f8004c
:1006100081027800930188003200be000100e000f2
:100620000c0032000470a70000f0a0003203780034
:10063000c733de00848343004220af008703e80015
:10064000a7018800f607b2007f30e1000400320005
:10065000200020003400f9003200f90000000600fc
:100660008100e9000500e00003003a000180090074
:1006700032100300e8ff37000180090032900300c8
:10068000d561ae00e4ff370030002000f1ff3700f5
:1006900050052000b00e8800a00a2000b00e88008f
:1006a000d3e1a8000000060050052000b00e88002d
:1006b000a00a2000b00e8800d3e1a90000000600c7
:1006c00072050400000000003a1e04000000000053
:1006d00002250400000000004a250400000000007c
:1006e0003600f800809fbe00829fbe00849fbe003f
:1006f000869fbe003200f8003400f8001000200091
:10070000a00188000020200000d0fe007602070033
:100710000000e00003003200882502000000000015
:10072000000000001328a9003400f9003200f9008d
:100730004f03be004f02be004f01be004f00be007f
:100740003600f90000400600801f78003200f800f3
:100750003400f80010002000a001880000202000d4
:1007600000d0fe00c028ab0002003200c06a2200a8
:100770001004a000846fab0002003200c06a2200a7
:100780001014a00084afab0002003200c06a220047
:100790001024a000c028a9003400f9003200f9009c
:1007a0004f00780000400600801f78003200f800fb
:1007b0003400f80010002000a00188000020200074
:1007c00000d0fe00c068ab0002003200c06a220008
:1007d0001034a000c068a9003400f9003200f9000c
:1007e0004f00780000400600801f78003200f800bb
:1007f0003400f80010002000a00188000020200034
:1008000000d0fe00c048ab0002003200c06a2200e7
:100810001044a000c048a9003400f9003200f900db
:100820004f00780000400600801f78003200f8007a
:100830003400f80010002000a001880000202000f3
:1008400000d0fe00c1c8ab0002003200c06a220026
:100850001064a000c1a8ab0002003200c06a2200f0
:100860001074a000c188ab0002003200d06a2200e0
:100870001004a000c168ab0002003200d06a220060
:100880001014a000c0e8ab0002003200d06a2200c1
:100890001024a000c0c8ab0002003200d06a2200c1
:1008a0001034a000c088ab0002003200c06a2200f1
:1008b0001054a000c1c8a900c1a8a900c188a900fe
:1008c000c168a900c0e8a900c0c8a900c088a900e3
:1008d0003400f9003200f9004f00780000400600b3
:1008e000801f78003200f8003400f800100020006b
:1008f000a00188000020200000d0fe00c4a8ab00aa
:1009000002003200d06a22001054a000c488ab005c
:1009100002003200d06a22001044a000c4a8a9003e
:10092000c488a9003400f9003200f9004f007800b3
:1009300000400600801f78003200f8003400f80004
:1009400010002000a00188000020200000d0fe0040
:10095000c608ab0002003200d06a22001064a0007a
:10096000c608a9003400f9003200f9004f007800f1
:10097000004006000040da000000fe000000050014
:100980008001780002003700b15978000201e900c7
:0c0990000200e000fcff3a00000006003e
:020000040000fa
:10099c0011110000222200003333000044440000f7
:1009ac0055550000666600007777000088880000c7
:1009bc0099990000aaaa0000bbbb0000cccc000097
:1009cc00dddd0000eeee0000cecd0000acab000093
:1009dc0002020000030300000404000005050000ef
:1009ec000606000007070000080800000a090000be
:1009fc001010000010110000121200004c450000f5
:100a0c0044300000004c0000454400003100000060
:100a1c00546d00007220000053760000630000004b
:0c0a2c00494400004c45000000000000a0
:020000040000fa
:100a3800889fbe008a1f78000004780001057800ae
:100a4800498080000090ec00d70f0700e10f4400b8
:100a5800100032000904440000808000180098004b
:100a6800888f540015003e0001808000608080005f
:100a78008180e800b00f070070808000880f500068
:100a880001003600788088004f0578004f04be00ca
:100a9800000006000a00e000eeff3200018080003e
:100aa8008180e80020612200990f07004f05780037
:100ab8004f04be0000000600f6ff370001808000ea
:100ac800508080008180e8009b0f07004f05780068
:100ad8004f04be0000000600eeff3700002f810023
:100ae800e10f5000030036008825020000000000d6
:100af80000000000ca100700f8ff3700e68747002b
:100b0800889fbe008a9fbe008c9fbe008e1f780003
:100b18000004be000205780003077800f4b79f00c0
:100b280085067800a002200077100700800578006d
:100b38008080eb000b00e000540032000a00450002
:100b480081bf9f007010070000067800cc0d980048
:100b58000c00e000750032000a05d0000a85e900a3
:100b68000a054600fa0d9800f98045000000eb00e0
:100b780009017800b96878001204e0000300320027
:100b88000000e800e40f5000f9ff3a000040eb00d5
:100b9800d05d98007fb59700e30f550042003e00f6
:100ba800ba0d98008a1598008000eb0091159800fe
:100bb8008b84e8000900780081bf9f00510f07006f
:100bc8006c8045004f0f0700cb05980064051500a1
:100bd800ea0598009b0d98006011b800a2159800ce
:100be800b31598008fb89700816d98000e017800b2
:100bf800880078000c007800cd0e0700800d780082
:100c08000d00e000010032008b0e7800250f070070
:100c18001630ec000010e200250032001010e2004f
:100c280027003a00018080003b089000b10890003e
:100c3800085e2200808f5000240036001a30ec0035
:100c48000410e3000100310020808800ea00b900a8
:100c580000004400890078002d0f0700190f0700d5
:100c6800110020001010e20008003200008080000f
:100c7800300990003b089000800f510003003100bc
:100c88008825020000000000000000000100780034
:100c98004f0778004f06be004f05be004f04be0048
:100ca8006f00b100000006003a002000bcff3700ca
:100cb8000b808800b0808000e10f500005003200f2
:100cc8003b089000085e2200dcff37000b8088009c
:100cd800daff37000005eb00085e2200ea50b90091
:100ce80000004400ff0e07000a05e800e40f550065
:100cf800faff3a00c0612200fa0e07006062220083
:100d0800f80e070080602200f60e0700206122001e
:100d1800f40e0700c0612200608088006062220033
:100d2800508088003b089000c4ff37000b00780013
:100d38001b1007000fb897004f0778004f06be003a
:100d48004f05be004f04be006f00b1000000060052
:100d5800d5ff3700889fbe008a9fbe0080047800b8
:100d680001057800e30f5500010036003a00200025
:100d7800cc0e07000900e000350032000910900091
:100d88008a0f50001e003200210031000004eb00e1
:100d980001808000898f50000500320001808000aa
:100da80018002000b10890008a8f500023003e00f0
:100db800b9089000810f50001e0032008a14980074
:100dc800690090000000e00002003500640515008d
:100dd800ea049800ea08b9000a5e2200800045008b
:100de80059009000810f50001b0032000800e000fd
:100df8000300320088250200000000000000000007
:100e0800b00e07004f05be004f04be0000000600ec
:100e1800018080000984680008f0a7000804ea003f
:100e28000804e9004f44de00b9089000810f500023
:100e3800e2ff3a00ba0c9800e0ff37000004eb002c
:100e4800b9089000810f5000dcff3a00f9ff370025
:100e580009808000c9ff37008985e8000b00780009
:100e6800d10e0700390890000410e300010031009a
:100e780020808800ea00b900000045008b00780057
:100e8800a30e0700d9ff37000200fa00881f780078
:100e9800000478000800e0000900320000808000ab
:100ea800880f5000060032007e0e0700d800900020
:100eb80020612200808f500004003200810e07005c
:100ec8004f0478000080fa0000000600280890000f
:100ed80081602200810f5000f8ff32000000e0001e
:100ee800f6ff3a008880e80001007800e1bf9f0023
:100ef800ad0e070038089000efb897000410e30023
:100f08000100310020808800ea00b900025e22005a
:100f1800020040007e0e070000808000b8089000a4
:100f280030089000808f5000e4ff390088250200c7
:100f38000000000000000000620e0700e0ff37001c
:100f4800889fbe008a1f780080047800d90090002e
:100f58000004eb0020612200808f50000400320062
:100f6800080078004f0578004f04be000000060016
:100f7800a908900080602200808f5000f8ff32009e
:100f88000100e000f6ff3a000210e20018003a0003
:100f98000080800018002000b908900030089000f8
:100fa800808f5000010031000004eb000985e80043
:100fb8000a0078007c0e0700390890000410e3004e
:100fc8000100310020808800ea00b900015e22009b
:100fd800010040008a0078004d0e070008007800e4
:100fe8004f0578004f04be0000000600e0ff370000
:100ff800ec804400460e07000000eb004f05780027
:101008004f04be0000000600d9ff3700850121000b
:101018000002eb008401780092062000615128004c
:1010280020572000b5fe0700e10f500001003200f4
:1010380000000600800a0700e10f5000fcff3a009c
:10104800f1f12f0012028000828060000150a000a0
:101058001102880000000000000000000eb0ef0040
:10106800808088000830ef00ee0d3700f0f12f0087
:101078004200b6000050a0001002880000000000e6
:10108800000000001030ef00ca0d37000230ec00fd
:1010980000000600881f7800020e070048808000c4
:1010a800080e0700080078004f04780000000600ca
:1010b8004080800000000600b0808000000006002c
:1010c8000000e000020032007a0040000000060044
:1010d800008080007a00400000000600fcff370016
:1010e800889fbe008a9fbe008c1f78000210e20015
:1010f80045003a00498080008904e800498088005a
:1011080009003a00608080000a10f8000c10f9000d
:10111800508088001230ec00608080001000e000f1
:101128003f003a000eb0ef0070808000890f500039
:1011380038003e000005eb000b5e22006080800056
:101148001000e0001f003200608080003000900036
:101158003004900018009000808f54003900390046
:101168000886e8000c0078000f0e07002808900099
:101178000000e000020032006c0044000a0e070084
:10118800380890000410e300010031002080880036
:10119800ea00b900008045008c007800dc0d0700eb
:1011a80000808000b808900030089000808f5000c0
:1011b800e2ff39001a002000608080001000e00083
:1011c800e1ff3a000eb0ef00008080003008900088
:1011d800ea00b90080854500100020009b0f100030
:1011e800010036001a0020000610e200010032005b
:1011f8001a0020000a0078004f0678004f05be004c
:101208004f04be00000006001430ec000005eb009f
:10121800f5ff37000005eb000b5e2200eaff370000
:101228006080800030009000300090001000900036
:101238007080880070808000890f5000f5ff3e00a4
:10124800bcff370070808800dfff3700889fbe0032
:101258008a9fbe00930d07000230ed000004eb00ea
:101268000210e2002f003a001610e2002d003200b2
:10127800095e22001a002000403081000000e000d2
:101288001800320070308100300490006c00440077
:10129800c50d07008885e8000b007800c20d07001f
:1012a800380890000410e300010031002080880015
:1012b800ea00b900090040008b007800940d07008f
:1012c80000808000b808900030089000808f50009f
:1012d800e9ff39003a808800403081000000e000d2
:1012e800e8ff3a000800e000040032006080800057
:1012f8001000e00019003a000eb0ef00a88080004e
:101308000800e0000c003a000004eb000610e200c0
:1013180004003200882502000000000000000000e0
:1013280018002000670d0700080078004f05be0070
:101338004f04be00000006001900200068ff0700e7
:101348000000e00001003200398088000804e9004c
:10135800faff3a001430ef00ebff3700608080009e
:1013680030009000300090001000900070808800dd
:10137800a88080000800e000e3ff3200eeff37009d
:101388000000e00004003a00882502000000000088
:1013980000000000000006000230ec008000eb00b6
:1013a800a3fd0700a9ff07000000e000f6ff3200d8
:1013b800000006000230ec00438080001001780035
:1013c80082804000828f510010003100810f51004f
:1013d80015003600818f5100130031000108780094
:1013e800038050008000eb0091fd070097ff070085
:1013f8000000e00004003a00882502000000000018
:10140800000000000000060000000600810f5100e7
:10141800f0ff360001087800038050008000eb00e0
:1014280083fd0700f1ff370001087800efff370060
:101438000210e20023003a000630ef00228080000c
:10144800ea10b900045e2200800042001100e000aa
:101458000f003a008200e900ea08b90004004000e1
:1014680001017800900178006a0050000300e00054
:1014780006003a008100e900010178009001780037
:101488006a0050000300e000faff3200ea08b900e1
:10149800800042009100900091009000800142007d
:1014a800812978006400400000024200848f5000c7
:1014b80007003200b1009000018088002280880077
:1014c80000000600100020003080880000000600a0
:1014d8009100900081097800b10090000180880097
:1014e8002280880000000600889fbe000004780063
:1014f800ec0c07000800e000250032008884e800b2
:1015080009007800280d0700280890000000e00076
:10151800020032006c004400230d070089007800a7
:1015280020612200fa0c0700e60c07001010e20008
:1015380005003a0000808000880f50000b00320040
:101548004f04be0000000600d60c07006080800033
:101558001000e00010003a000eb0ef00d90c0700b0
:1015680000808000880f5000f5ff3a001010e2005c
:1015780010003a00903081001610e300130032008a
:10158800abff07004f04be0000000600eeff370067
:1015980008808000d9ff370060808000300090000c
:1015a800300090001000900070808800c50c070083
:1015b800ebff370088250200000000000000000053
:1015c8004f04be0000000600dfff37000030ef00c8
:1015d8004f04be0000000600dbff3700881f7800bc
:1015e8000104780001808000ec804000d20c0700e4
:1015f80011002000080078000dfd07004f04780056
:1016080000000600881f780002047800028080002d
:1016180001f0a0006101980001808000ec8040008a
:10162800bb0c0700110020000800780000fd07002f
:101638004f04780000000600889fbe00010478006f
:101648008204780001808000ec804000b00c070024
:101658000900e000010032000084eb000800be0031
:10166800f3fc07004f04be0000000600889fbe0080
:101678003000900030049000ec0444000900780029
:10168800c90c07000210e20016003a008884e8003e
:1016980009007800c40c0700380890000410e30023
:1016a8000100310020808800ea00b900015e2200b4
:1016b8000100400089007800950c07000080800038
:1016c80038099000b00890000000eb00810f51002d
:1016d8000200360010002000308088004f04be0051
:1016e800000006008900780080602200880c07004e
:1016f800f2ff3700889fbe0001f0a00001087800c3
:1017080030049000a80c07008884e80009007800dd
:10171800a50c0700380890000410e3000100310010
:1017280020808800ea00b900015e22000100400024
:1017380089007800760c0700008080003809900046
:10174800b00890000000eb00810f51000200360045
:1017580010002000308088004f04be000000060002
:101768009180800001087800418080001100980075
:1017780000000600889fbe008a1f780000047800d9
:1017880001057800470c0700428080001a007800a5
:101798008004eb00e10f400013003200980078004d
:1017a80093808000818f51001400320098009000cf
:1017b80019002000810f51000b00310081015100f8
:1017c80019002000830f5000070036000200500067
:1017d800010d400090808000000c7800438080005c
:1017e800130498008004eb00360c07000900780009
:1017f8004f0578004f04be000000060098009000d6
:101808008101510019002000830f5000efff3e00b6
:10181800f5ff370010002000308088000000060027
:101828000080800000000600100020001010e20078
:10183800030032000000eb000210e2000100320059
:101848000000060020000500889fbe008a1f78005f
:10185800000478000800e000150032003808900005
:1018680001808000b1089000810f50001000310005
:10187800e80090000100e0000400350001808000cd
:10188800b1089000e480100061049800ea00b900f3
:10189800095e220000804400d8009000808f50002c
:1018a800060032000080800030089000300c98005c
:1018b8004f0578004f04be00000006000885e800c8
:1018c8000a007800380c070000808000300890007b
:1018d800300c98000410e3000100310020808800db
:1018e800ea00b900008044008a007800080c07006c
:1018f8004f0578004f04be0000000600efff3700d8
:10190800889fbe00000478000000eb000800e0009b
:1019180009003200981090008100e9001114980025
:10192800b809900008119000828f5100020032001f
:101938000100e000020032004f04be000000060073
:101948008884e80009007800170c07000810900048
:10195800300c9800e4001000610498000410e300c3
:101968000100310020808800ea00b900015e2200f1
:101978000100400089007800e50b070010002000f6
:101988004f04be0000000600edff37000080800015
:101998006000900001808000028080003209900081
:1019a80064011100e2009800000006000010e20047
:1019b8000400320000808000901090008100e80050
:1019c800111098000080800000000600881f780031
:1019d8008a9fbe000004780001057800b10b07005b
:1019e80000808000b010900020109000e00f5000a0
:1019f800e08f580005003a000080800011c0b30055
:101a0800016898000a00e00024003a00ad0b0700c6
:101a1800a40b07000080800020159000b0159000ee
:101a2800e00f5500e08f5d00070032000800e0007d
:101a38000d003a000080800061015500e0815d00e2
:101a48002210980033109800008080008040eb003e
:101a5800016898009b0b07000a00be004f05be00f6
:101a68004f04780000000600008080006011b80074
:101a78002210980033109800008080008040eb000e
:101a8800016898008f0b07000a00be004f05be00d2
:101a98004f04780000000600f3ff37001100200013
:101aa8000a007800e2fb0700882502000000000019
:101ab80000000000d5ff37000800fa00889fbe002c
:101ac8000404be00a0bf9f00b1bf9f00c2bf9f001b
:101ad800d3bf9f00730b070004808000046a900046
:101ae8002fb89700bfb897004fb99700dfb9970094
:101af800e24f52001000320006808000261290004b
:101b0800b61290000080ea008180ea00800362003b
:101b1800018262008402780007027800241398008a
:101b2800351398000080800011c0b3000168980048
:101b38000900e00025003a00c2bf9f00d3bf9f0004
:101b4800600b0700570b07004fb99700dfb99700e4
:101b58000800e0000400320000808000201290009d
:101b6800b0129000048cbe000080800000689000d5
:101b78000004eb00e14f50000c00320004808000ac
:101b880024109000b41090000281ea008381ea00da
:101b980082026000038160008201780005017800fc
:101ba800221298003312980018002000008080004c
:101bb8008040eb0001689800420b0700080078009d
:101bc8004f04be000080fa0000000600110020004b
:101bd80009007800c2bf9f00d3bf9f0094fb070095
:101be800882502000000000000000000dfb997000f
:101bf8004fb99700d0ff37000400fa00889fbe0055
:101c08008a1f78000004be0004057800b2bf9f0058
:101c1800c3bf9f00230b07003fb99700cfb99700b8
:101c28000a00e0000300320028109000b81090006d
:101c3800008dbe000868900021c0b300016c9800b8
:101c4800e28f5400230032000d003600e38f540069
:101c58001a003200e48f54001500320019002000e9
:101c6800e14f500024003200160b070009007800ed
:101c78004f0578004f04be000080fa0000000600ff
:101c8800e18f5400f5ff3a0028129000b812900036
:101c980004017100858171002214980033149800a2
:101ca80019002000e14f5000efff3a001200370002
:101cb8008004eb00e24f5000ebff32002214980042
:101cc8003314980019002000e14f5000e6ff3a0055
:101cd8000900370028119000b811900061014100f7
:101ce800e08149002214980033149800190020005c
:101cf800e14f5000dcff3a008884e80009007800d2
:101d0800290b0700380890000410e3000100310097
:101d180020808800ea00b900015e2200010040002e
:101d280089007800fa0a070000808000b80890004f
:101d38003008900019002000808f5000caff36003c
:101d4800882502000000000000000000dd0a0700ee
:101d5800090078004f0578004f04be000080fa00a3
:101d680000000600c6ff3700889fbe008a1f780063
:101d780000047800850478000400e00003003200c5
:101d880028139000b8139000068abe00086a9000d5
:101d980020c0b300006c9800e28f50003a00320077
:101da8000a003600e38f500031003200e48f500003
:101db8002c00320010002000e14f52000e003200cb
:101dc8004f0578004f04be0000000600e18f500068
:101dd800f8ff3a0028109000b81090000001710038
:101de800818171002214980033149800100020009b
:101df800e14f5200f2ff3a000210e2002c003a00d4
:101e08000885e8000a007800e70a0700380890000b
:101e18000410e3000100310020808800ea00b900c6
:101e2800015e2200010040008a007800b80a07001d
:101e38000080800038099000b00890001000200051
:101e4800810f5100deff36000900e0001c0032005f
:101e5800800c78004f0578004f04be000000060093
:101e6800daff37000000eb00e24f5200d4ff3200e7
:101e7800221498003314980010002000e14f5200fb
:101e8800cfff3a00dcff370028109000b810900010
:101e980061004000e0804800201498003114980048
:101ea80010002000e14f5200c5ff3a00d2ff370072
:101eb800ec00440080602200950a0700dcff370030
:101ec800308088004f0578004f04be0000000600ef
:101ed800beff3700889fbe008a1f78000004be003e
:101ee8000868900021c0b300016c98002811900088
:101ef800b811900061014100e08149002214980066
:101f080033149800e14f5000030032004f05780069
:101f18004f04be00000006000210e20019003a005b
:101f28000885e8000a0078009f0a07003808900032
:101f38000410e3000100310020808800ea00b900a5
:101f4800015e2200010040008a007800700a070044
:101f580000808000b808900030089000808f500002
:101f6800eaff36000900e0000a00320010002000f5
:101f7800800c78004f0578004f04be000000060072
:101f8800e5ff3700ec00440080602200600a07008b
:101f9800efff370010002000308088004f057800e0
:101fa8004f04be0000000600dbff3700889fbe001c
:101fb8000000e0001100320080047800390a0700b0
:101fc800096890000004eb00e24f50000400320062
:101fd8003c0a0700080078004f04be000000060015
:101fe800886c980018002000360a0700080078005e
:101ff8004f04be0000000600f9ff3700098080008a
:10200800280a0700096890000004eb00e24f50001e
:10201800efff3a00f2ff3700635b22000308780005
:10202800605322008008780000042000010020008e
:102038000089be0000000600c35022000308780093
:10204800a0432200800878009006200001002000ac
:102058000089be0000000600889fbe008a1f780025
:10206800800478000f0a0700396490000804e00033
:102078000e003400190890000000e0000b00320048
:10208800728544000a00780078fd07000000e0002f
:1020980021003a000844e9004240a9000300340046
:1020a800190890000000e000f6ff3a0000c0eb00bd
:1020b800b0649800030a0700fa0907002964900031
:1020c8000804e0000e003400490090000000e00021
:1020d8000b003200688544000a00780063fd0700a1
:1020e8000000e0000e003a000844e9004240a90060
:1020f80003003400490090000000e000f6ff3a00b9
:1021080000c0eb00a0649800ee0907004f057800b6
:102118004f04be0000000600befd0700ddff3700cb
:10212800bcfd0700f0ff3700889fbe008a1f7800bb
:102138000004780002057800e80c9000081190006f
:102148000200e00009003a00180578000a00e000e3
:102158002f0032008904e8000000eb00690c9800a9
:102168004f0578004f04be00000006000a00e0009a
:102178000e003a0028009000fff90700a800900020
:1021880008109000008040002004980098009000fb
:10219800810f5000efff39001800780020049800e4
:1021a8008904e8000000eb00ecff370038009000dd
:1021b800f1f90700881090008100ea0038009000cb
:1021c8000100400030049800980f500003003100cf
:1021d800180090008100400031049800e20f55007b
:1021e800dcff3a000900e000060032000000eb00c6
:1021f800690c98004f0578004f04be0000000600e7
:10220800daff3700190020000000eb00f8ff370064
:1022180018009000bafd07001a0498008904e80025
:10222800690c98004f0578004f04be0000000600b6
:10223800ceff3700889fbe000004be009909070042
:1022480018007800f8099000081190008392b900ee
:1022580084004000110498008000eb00610c980095
:10226800200498008301e9008299b9000200400027
:102278003004980000c0eb00206498003064980097
:102288000900e00013003a00480090000000e00058
:1022980004003a008b090700100020004f04be001c
:1022a8000000060068004400f0fc07000000e000a1
:1022b800f8ff32008825020000000000000000003e
:1022c80080090700100020004f04be00000006002f
:1022d800f4ff3700680044008209070072004400d8
:1022e8008009070077090700100020004f04be008e
:1022f80000000600ebff3700889fbe008a1f7800a9
:102308008004780001057800400220000a00e000ff
:102318000200320089d0b9004002b0007a0a0700f2
:10232800000478000800e000080032000a00e0001d
:102338000a003a00080c7800790c98000a149800f2
:102348001100200008007800baff07000800780094
:102358004f0578004f04be00000006004002200030
:10236800000c4400790c98000a1498001100200011
:1023780008007800afff0700f4ff3700881f7800d7
:102388000104780022c0b3008000eb00daff0700e8
:102398000000e00001003200680898004f0478004f
:1023a800000006000600fa00889fbe008a9fbe0053
:1023b8008c1f78000004be00a2bf9f0003057800b0
:1023c8000006eb00e805440036090700e80890001d
:1023d80078089000808f500025003900e20f5500e2
:1023e800230032002fb897000000e000610032009f
:1023f8000c00e000300032003209070023fb070020
:102408002809070028609000e14f4000450032008d
:1024180038609000e14f4000300032002909070081
:10242800ec80570070805700d2fc07000000e000e5
:1024380032003a001b090700e8089000780890006d
:10244800808f50003d0032001e0907000800780008
:1024580001ff07007dfb07001c0020001109070091
:10246800e808900078089000808f5000dbff31006a
:102478000a0178000800be002bff070098089000aa
:102488000100e00043003a000000e00003003200d1
:10249800882502000000000000000000090907006c
:1024a800100020004f0678004f05be004f04be0004
:1024b8000080fa000000060070805700a8fc0700a2
:1024c80000090700f1fa0700f608070028609000e5
:1024d800e14f4000ceff3a00120037000040eb0009
:1024e80030649800f7080700ec80570070805700a8
:1024f800a0fc07000000e000ceff320008007800d2
:10250800d5fe070051fb07000000eb004f067800de
:102518004f05be004f04be000080fa000000060010
:10252800e5ff37000040eb00206498003860900019
:10253800e14f4000b9ff3a00e8ff3700e108070023
:10254800afb897000b00780024fc0700080078005b
:10255800c1fe07003dfb07000000e000beff3a0097
:102568008825020000000000000000001c00200078
:10257800baff3700d30807000000eb004f067800c9
:102588004f05be004f04be000080fa0000000600a0
:10259800c9ff37007200440034fc07000000e00067
:1025a800beff320088250200000000000000000085
:1025b800c408070010002000baff3700881f780001
:1025c800004178008000eb00100020004aff07005f
:1025d800000478000800e000090032000000eb0069
:1025e80010049800000ceb0030049800800178007b
:1025f80003017800830078000800780069ff07006d
:10260800080078004f04780000000600889fbe008c
:102618008a1f780000047800820478006809900016
:1026280078089000800f5100070039000005eb0082
:10263800e28f5100040032000a0078004f0578004c
:102648004f04be00000006003865900003017800c2
:1026580008007800b4fe0700e14f4500070032008b
:102668000a45e8003a649800100020004f057800f9
:102678004f04be0000000600f3ff37001808900062
:102688001a0020000000e000ebff32007200440056
:10269800f6fb07000000e000e7ff32000900e00059
:1026a800e5ff32008a0c78000a0078004f057800b0
:1026b8004f04be0000000600e3ff37000200fa00e6
:1026c800881f780060099000f00990000004eb0072
:1026d800830f510008003100b06190000201e8004a
:1026e80062089800e1cf4100070032008341e8000a
:1026f8003360980018002000080078004f04780024
:102708000080fa0000000600100990001800200060
:102718000200e000f8ff320072004000e1bf9f00b5
:10272800d2fb0700efb897000000e000f2ff32008c
:102738000100e000f0ff3200880878000800780007
:102748004f0478000080fa0000000600eeff370012
:102758000600fa00889fbe008a9fbe008c9fbe00bc
:102768000004be0092bf9f00830578008006eb003e
:10277800720644004b080700680d90000a00e0004c
:102788002b003a001fb897000000e00066003200f6
:102798000d00e000430032004a0807003bfa07003a
:1027a8004008070028609000e14f400058003200c0
:1027b80038609000e14f40004300320041080700b4
:1027c800ee80570072805700eafb07000000e00027
:1027d80045003a0033080700680890000000e00050
:1027e80059003a00370807001800e0005c00320082
:1027f8009fb897000c00780078fb07000800780065
:1028080015fe070091fa07000000e00003003a00f7
:102818008825020000000000000000001d002000c4
:1028280020080700680d90000a00e000d5ff32007c
:1028380038069000081190000200e00009003200fc
:10284800820046003104980018009000808f5000e4
:1028580002003900980078003104980009007800d7
:1028680045f807000b00e00042003a000a05e900bd
:102878006a0c98001800e0005600320048009000ea
:102888000000e00049003a000e0807001000200090
:102898004f06be004f05be004f04be000080fa0080
:1028a8000000060072805700adfb0700050807000e
:1028b800f6f90700fb07070028609000e14f400089
:1028c800bbff3a00120037000040eb00306498006c
:1028d800fc070700ee80570072805700a5fb070031
:1028e8000000e000bbff320008007800dafd0700b6
:1028f80056fa0700eb070700680890000000e000a0
:1029080009003200ef0707001d002000c4ff370050
:102918000040eb002064980038609000e14f4000d0
:10292800a6ff3a00e8ff3700e60707000000eb00c3
:102938004f06be004f05be004f04be000080fa00df
:1029480000000600d7ff3700de0707000800780000
:10295800c1fd07003dfa07001d002000b0ff370049
:10296800d007070018009000b7fb0700d50707003d
:102978009fff37003c049800180890000000e00012
:10298800c1ff32007200440038fb07000000e0007d
:10299800bdff320088250200000000000000000092
:1029a800c807070010002000b9ff3700680044007e
:1029b8002efb07000000e000b3ff3200882502006c
:1029c8000000000000000000be0707001000200003
:1029d800afff3700f5fb070010049800480090008f
:1029e8000000e000a8ff3200f0ff3700889fbe001b
:1029f8008a9fbe0000047800810178008205780073
:102a0800e80c90000005eb000900e000150032001a
:102a180028659000081190000200e0000a003200ca
:102a2800b80090008280400031049800180090009f
:102a3800808f500002003900980078003104980017
:102a480003007800ccf707008904e900690c9800b6
:102a5800e14f4500070032000a45e8002a64980063
:102a68001a0020000a0078004f05be004f04be007f
:102a780000000600480090001a0020000000e00056
:102a8800f8ff320068004400f8fa07000000e00090
:102a9800f4ff32000b00e000f2ff32008a0d7800ec
:102aa8000a0078004f05be004f04be000000060073
:102ab800f0ff3700889fbe0000047800810178008d
:102ac800e80890000000eb000100e0000f00320071
:102ad800b8049000081190000200e00009003200dc
:102ae800828044003104980018009000808f5000c4
:102af800020039009800780031049800030078003b
:102b08009df7070039049800100020004f04be000c
:102b180000000600881f780000047800610707009d
:102b2800680c900067070700080078004f047800d9
:102b380000000600881f7800000478005907070085
:102b480068089000780c9000000454005d070700a6
:102b5800080078004f047800000006006008900024
:102b6800000006008e0837006008900000f0a700fb
:102b78000000ea000000e9004f00de000000060047
:102b8800e0089000700890000080680000f0a7003e
:102b98000000ea000000e9004f00de000000060027
:102ba800889fbe008a9fbe000004780081057800d7
:102bb80002057800f9f12f001102800001806400fd
:102bc8000050a00010028800000000000000000073
:102bd80034070700e808900078089000808f5000bc
:102be8001600320037070700200420001088640010
:102bf8000000000011028000818464000950a000d8
:102c0800190288000000000000000000e808900099
:102c180078089000808f5000130039000000eb0006
:102c2800f1f12f002204200012896000000000004a
:102c38004f05be004f04be00000006002107070034
:102c48000a00e0001c003a002004200010886400fc
:102c5800000000000000eb004f05be004f04be005e
:102c680000000600f5ff37000001eb008b0078003c
:102c7800080078002cfd070098089000100020003c
:102c88000100e000e6ff320072004400a4050700de
:102c980080007800b0ff2f000100e000e0ff3a005c
:102ca80010002000f1f12f0022042000128960009a
:102cb80000000000deff3700e80044000a0078004a
:102cc800e5040700220420001289640000000000c7
:102cd800c0ff2f004f05be004f04be0000000600d5
:102ce800d6ff3700889fbe00000478008101780075
:102cf800f9f12f0011028000018064000050a0004b
:102d08001002880000000000000000006808900021
:102d18000000e00008003a000200e00038003a0035
:102d28002004200010886400000000000000eb0070
:102d38004f04be00000006002104200091886400b2
:102d48000000000012028000828464000950a00084
:102d5800190288000000000000000000e808900048
:102d68000000eb000100e0001200320008119000a2
:102d7800b80090008280400031049800180090004c
:102d8800808f5000020039009800780031049800c4
:102d9800680890000000e900600c980003007800c3
:102da800f5f60700c8009000100020000100e000c0
:102db80007003a00f1f12f00220420001289600078
:102dc800000000004f04be0000000600daff3700d4
:102dd800680044005205070080007800b0ff2f000b
:102de8000100e000f3ff3a0010002000f1f12f008d
:102df800220420001289600000000000f1ff370063
:102e0800f200440002007800930407002204200026
:102e18001289640000000000c0ff2f004f04be00ac
:102e280000000600c4ff3700889fbe000004780039
:102e3800820478006809900078089000800f51009b
:102e480003003900090078004f04be0000000600a6
:102e58000001eb0008007800b3fc07000900e0005f
:102e6800f8ff3a00180890000000e000f5ff320073
:102e7800720044002a05070000f0a7000000ea00dd
:102e88000000ea00cf04de00090078004f04be000d
:102e980000000600eeff3700889fbe008a1f7800fa
:102ea800000478000100780082047800e8089000a7
:102eb8000005eb000100e00013003200081190004b
:102ec800b80090008280400031049800980190007a
:102ed800838f500002003900980078003104980070
:102ee800e80990008301e900630c9800a2f6070046
:102ef8001a0020001900e00003003a004800900082
:102f08000000e00004003a000a0078004f0578004d
:102f18004f04be00000006006800440000050700da
:102f28000000e000f8ff32008a0c78000a00780000
:102f38004f0578004f04be0000000600f6ff37007a
:102f4800889fbe008a1f78000004be000205780032
:102f58005406070028609000e14f40001d00320031
:102f680038609000e14f400013003200550607001a
:102f7800680890000000e0000500320008007800b2
:102f880035fc07004f0578004f04be00000006001e
:102f9800720044000a01780089007800a6f9070049
:102fa800080078002cfc07004f0578004f04be008d
:102fb80000000600f6ff37000040eb003064980080
:102fc80040060700680890000000e000ebff3a00a8
:102fd800efff37000040eb00206498003860900055
:102fe800e14f4000e1ff3a00f3ff3700ef0cb0007b
:102ff800889fbe008a9fbe008c9fbe008e1f7800ef
:10300800a1b79f00b2b79f00c3b79f00d4b79f0076
:10301800cfe597005fe597006fe19700ffe697001f
:103028000fee97009fe897002fef97001044780065
:1030380090419000efcf510081003e00e44f5400d2
:103048007f003e008381fb00100020008301dd002b
:10305800e1cf5500eb0032000b04e00081003a009c
:1030680000e02000801f9f007c004000901f9f0010
:103078007c004000a01f9f007c004000b01f9f0004
:103088007c004000c01f9f000884fb000804440027
:1030980000f32f00080040006f0078008384ea00e6
:1030a80010886400e14f5500e80032000a04e0008f
:1030b800f5003a0020e02000a0279f007c00400097
:1030c800b0279f007c004000c0279f007c00400084
:1030d800d0279f007c004000e0279f0040f42f008d
:1030e800080040006f007800108864000b04e000be
:1030f80002003a00e14f550066003200c0e02000af
:10310800f08f9f007c00400080979f007c0040006b
:1031180090979f007c004000a0979f007c00400093
:10312800b0979f00e0f92f00080040006f0078007a
:1031380010886400a0e02000c0979f007c00400039
:10314800d0979f007c004000e0979f007c004000e3
:10315800f0979f007c004000809f9f0080fa2f001e
:10316800080040006f0078001088640000e120002b
:10317800909f9f007c004000a09f9f007c00400023
:10318800b09f9f007c004000c09f9f007c004000d3
:10319800d09f9f0020fb2f00080040006f007800a0
:1031a8001088640040e12000e09f9f007c00400000
:1031b800f09f9f007c00400080a79f007c0040009b
:1031c80090a79f007c004000a0a79f00c0fb2f0095
:1031d800080040006f007800108864000a04e000ce
:1031e80074003a00e14f5600b90032000c04e000c8
:1031f800ae003a0080e0200080af9f007c004000d5
:1032080090af9f007c004000a0af9f007c00400072
:10321800b0af9f007c004000c0af9f000803b10022
:103228006f007c00108864004f0778004f06be00ce
:103238004f05be004f04be00ef0cb10000000600b1
:1032480010002000230707004f0778004f06be0034
:103258004f05be004f04be00ef0cb1000000060091
:10326800f7ff370020002000f1b79f00e2b79f006a
:1032780083bf9f00170707000884fb008fb99700da
:103288008384ea00080444006fb19700ffb09700f8
:1032980084ff3700e1cf5600b00032000d04e00093
:1032a800f6003a00c0e02000c02f9f007c004000dc
:1032b800d02f9f007c004000e02f9f007c00400042
:1032c800f02f9f007c00400080379f0080f52f0082
:1032d800080040006f00780010886400e14f51003a
:1032e800ad0032000204e000d8003a00a0e020005f
:1032f800e0379f007c004000f0379f007c004000d2
:10330800803f9f007c004000903f9f007c00400071
:10331800a03f9f00c0f62f00080040006f00780013
:1033280010886400e1cf50007d0032000104e00005
:10333800cd003a0000e1200080879f007c0040001b
:1033480090879f007c004000a0879f007c00400081
:10335800b0879f007c004000c0879f0000f82f00c6
:10336800080040006f00780010886400e14f5700a3
:103378009a0032000e04e000c9003a0040e1200043
:10338800a08f9f007c004000b08f9f007c00400011
:10339800c08f9f007c004000d08f9f007c004000c1
:1033a800e08f9f0040f92f00080040006f00780070
:1033b8001088640080e02000d0af9f007c004000af
:1033c800e0af9f007c004000f0af9f007c00400011
:1033d80080b79f007c00400090b79f006802b10052
:1033e8006f007c00108864004f0778004f06be000d
:1033f8004f05be004f04be00ef0cb10000000600f0
:103408008fff370000e02000b0179f007c004000cd
:10341800c0179f007c004000d0179f007c00400030
:10342800e0179f007c004000f0179f000884fb0015
:103438000804440064f22f00080242006f007a007a
:10344800108871008384ea0016ff370020e020000e
:10345800d01f9f007c004000e01f9f007c004000c0
:10346800f01f9f007c00400080279f007c004000e8
:1034780090279f00a0f32f00080040006f007800fd
:103488001088710019ff370040002000f1b79f0035
:10349800e2b79f0083bf9f008e0607008fb9970091
:1034a8006fb19700ffb0970010ff370000042000ad
:1034b800880607004f0778004f06be004f05be007c
:1034c8004f04be00ef0cb100000006005cff37009f
:1034d80080e02000b0a79f007c004000c0a79f00ac
:1034e8007c004000d0a79f007c004000e0a79f0020
:1034f8007c004000f0a79f00a803b1006f007c008b
:10350800108871004f0778004f06be004f05be00b7
:103518004f04be00ef0cb1000000060048ff370062
:1035280000e12000b03f9f007c004000c03f9f00aa
:103538007c004000d03f9f007c004000e03f9f009f
:103548007c004000f03f9f0060f72f00080040001b
:103558006f0078001088710084ff3700c0e02000f9
:10356800f0279f007c004000802f9f007c004000d7
:10357800902f9f007c004000a02f9f007c004000ff
:10358800b02f9f00e0f42f00080040006f00780083
:103598001088710051ff37000d04e0002b003a003d
:1035a800a0e0200090379f007c004000a0379f00db
:1035b8007c004000b0379f007c004000c0379f006f
:1035c8007c004000d0379f0020f62f000800400004
:1035d8006f0078001088710052ff370040e120002a
:1035e800d0879f007c004000e0879f007c0040005f
:1035f800f0879f007c004000808f9f007c00400087
:10360800908f9f00a0f82f00080040006f007800fe
:103618001088710080e02000d0af9f007c0040003f
:10362800e0af9f007c004000f0af9f007c004000ae
:1036380080b79f007c00400090b79f006802b100ef
:103648006f007c001088640067ff370000012000cd
:10365800f1b79f0083bf9f001e0607008fb9970030
:10366800ffb097002fff37000002200083bf9f00a4
:10367800180607008fb997003cff3700800020002c
:10368800f1b79f00e2b79f0083bf9f0011060700b4
:103698008fb997006fb19700ffb097000fff370001
:1036a800000220000b06070080e02000d0af9f003a
:1036b8007c004000e0af9f007c004000f0af9f001e
:1036c8007c00400080b79f007c00400090b79f00be
:1036d8006802b1006f007c001088640042ff370068
:1036e8000a00fa009040780010409000ef4f500018
:1036f80002003e00e4cf5000050036001000200014
:10370800f405070000c0eb000080fa000000060086
:1037180042e02000b2bf9f007c014100c2bf9f0071
:103728007c014100d2bf9f007c014100e2bf9f00a5
:103738007c014100f2bf9f008180fb008180400036
:10374800ea805000ef807800910078000080fb004c
:103758000008de00614060000080fa0000000600fa
:10376800ebff37001400fa00104178001040900079
:10377800e1cf50000400360000082000d5050700fe
:103788000080fa0000000600ef4f50001a003e00cb
:10379800e44f510018003e000080fb001300200099
:1037a8000018dd00e1cf50001800320061e0200071
:1037b800b1bf9f00fc804000c1bf9f00fc8040005b
:1037c800d1bf9f00fc804000e1bf9f00fc8040000b
:1037d800f1bf9f000281fb00020141006a01510014
:1037e800ef0079000080ea00910860000080fa008c
:1037f80000000600e4ff370010002000b5050700b0
:103808000080fa0000000600dfff370061e02000ba
:10381800e1b79f00fc804000f1b79f00fc804000aa
:1038280081bf9f00fc80400091bf9f00fc8040004a
:10383800a1bf9f000281fb000201410074015100f9
:10384800ef007900910870000080fa00000006007f
:10385800cdff37001400fa00889fbe00104478009e
:1038680090449000efcf540002003e00e44f540013
:103878000500360010002000960507004f04be0022
:103888000080fa00000006008984fb001100200077
:10389800890cdd0092ff07000004e00013003a00e5
:1038a80060e02000c0b79f007c004000d0b79f00b8
:1038b8007c004000e0b79f007c004000f0b79f000c
:1038c8007c00400080bf9f000884fb00080444007f
:1038d800780454006f007c00108874004f04be0008
:1038e8000080fa0000000600e7ff370060e02000d3
:1038f80090bf9f007c004000a0bf9f007c0040005c
:10390800b0bf9f007c004000c0bf9f007c0040000b
:10391800d0bf9f000884fb00080444006e045400d4
:103928006f007c008984ea00108864004f04be00a0
:103938000080fa0000000600d3ff3700207c8000da
:103948000060a100720520006104200043f82000f7
:103958008149780082497800804978000000060093
:10396800207c80000060a000720520006104200017
:1039780043f820008149780082497800804978001e
:1039880000000600c70307002c10e2000100320007
:10399800cc03370040692200d2030700e069220007
:1039a800d00307004069220070818800e069220086
:1039b800808188000041eb00610020004001200068
:1039c8004dfa070060818800be033700f1ff370019
:1039d8001100980040009800828f500007003e00b8
:1039e80003015100e000900014002000810f5100f5
:1039f8000c0039000400780000000600830f510015
:103a08000300310014002000838f5000f9ff3100bb
:103a18008080e80070818000c7030700000005006f
:103a2800f6ff37008080e80080818000c20307002d
:103a380000000500f1ff3700d2ff07000000eb008f
:103a48002c10e20007003200a502210044002000eb
:103a58008001780002042000e1502800a0e3210042
:103a680026f4070000000600889fbe008a9fbe005b
:103a78008c9fbe000004be000205be0084067800cc
:103a880040012000a0040700000678000c00e000b8
:103a980008003200bbff0700080e7800690698008e
:103aa8007a0698000b0e98001d0e98000c80e8000e
:103ab800940307000c0078004f06be004f05be00b7
:103ac8004f04be00000006000600fa00881f7800b8
:103ad80080027800830378000404780066818000ff
:103ae8000000eb000600e0000d003200c1bf9f009f
:103af800d2bf9f00e5bf9f00e58f50000b003c0040
:103b080049f70700e20f5000110032008001eb0076
:103b180003017800e88057006081800021fa0700df
:103b28004f0478000080fa00000006008001eb00d6
:103b380007017800e880570006007800b3fa07000c
:103b48004f0478000080fa0000000600f7ff3700f5
:103b58008001eb0008017800e88057006081800050
:103b680010fa07004f0478000080fa0000000600f1
:103b7800eeff3700889fbe008a9fbe008c1f78002a
:103b88000005780043f507008004780090818000e4
:103b9800890f500010003e00000deb00998188004d
:103ba800090078004f0678004f05be004f04be009c
:103bb8000000060068009000008045008b0f500050
:103bc8002300360010049800480498008c00780000
:103bd8007081800058030700708180001000e000a9
:103be8000f003200300090009005780030049000fb
:103bf8000886e8000c0078006b030700980890001e
:103c0800080078000100010078009000e10f5000e2
:103c1800e8ff3200708180001000e000f1ff3a00f8
:103c28003010f8002e10f900808188001000200064
:103c3800000d780099818800090078004f06780007
:103c48004f05be004f04be0000000600d9ff370034
:103c58000002eb00840178000b01780084007800f2
:103c68000800780098ff0700dbff37000800fa001b
:103c7800889fbe008a9fbe001900200070818000c6
:103c8800100578000af0a7000a05ea000a05e9000d
:103c98004f55de000004eb0002003a0030009000af
:103ca80010047800f9f4070070805700b1ff07008e
:103cb800800578000fb897000000e00073003a0014
:103cc8000a00e00050003200808180001000780077
:103cd80000f0a7000000ea000000e9004f05de0040
:103ce8008b0054000a0178006081800094fc070072
:103cf80056f507000000e00003003a00882502009e
:103d080000000000000000008001eb0003017800c3
:103d1800ee805700608180008dfa07000000e00007
:103d2800d6ff32001fb897000000e000f6ff35000c
:103d38003fbc9700580090000000e00002003200ed
:103d48000880e800180307007080570089ff070003
:103d58009fb89700e98f5000ebff3e008148dd00d7
:103d6800010178000221b20008003a000101780040
:103d7800720cb2000d003a000158a300e2ff3200b5
:103d88000800780006040700dfff3700afb8970087
:103d980061049800810040008001780003017800e8
:103da800080078000aff0700d7ff3700afb997006f
:103db800e800900081804100000178000800780048
:103dc80003ff07000000e000cfff320098089000d2
:103dd800080078000100010078009000e10f500011
:103de800c9ff3a00680190002fb897000001410010
:103df8000002eb0084017800840078000800780055
:103e080031ff0700c0ff37008b0f5400b4ff3e009e
:103e18000ef507007081800030009000300590009a
:103e28000a80e800e00207007a009000e10f5000e5
:103e3800040032009a0890000a007800010001008e
:103e4800b1ff3700ea009000810044008801780043
:103e58000b0178000a007800ddfe07000000e00092
:103e6800f4ff32000002eb008401780008017800ba
:103e7800840078000a00780013ff07009a08900071
:103e88000a007800010001009fff3700eff40700e7
:103e98009dff370050818000000006006000900000
:103ea80000000600100090000000060010007800d6
:103eb80000000600881f78000004780079020700d7
:103ec8005800900000f0a7000000ea000000ea0097
:103ed8004f04de007b020700080078004f047800da
:103ee80000000600881f7800000478006d020700b3
:103ef800080c900073020700080078004f0478004f
:103f080000000600889fbe000004be00650207008e
:103f1800090c98006b0207004f04be000000060061
:103f2800889fbe008a9fbe000004be0082057800fc
:103f3800c001200074030700000578000080eb0032
:103f48000a00e0001c0032001c10e20030003200c1
:103f58000900e0001b003a000000eb00500d98003b
:103f6800390d98004b0d98008a057800881d780057
:103f78000b007800630207006c004500610207002f
:103f88004a0598001a0d9800e28414006905980003
:103f98003a0890001e10e30001003100f08088000c
:103fa800ea00b900a1632200010040008b007800fc
:103fb80057020700100020004f05be004f04be0046
:103fc80000000600190020000000eb00500d9800ca
:103fd800390d98004b0d98008a057800881d7800e7
:103fe8000b007800470207006c00450045020700f7
:103ff8004a0598001a0d9800e28414006905980093
:104008003a0890001e10e300e5ff3100e3ff370097
:10401800ea808800a0632200320207004064220080
:1040280030020700e06422002e02070080652200ab
:104038002c020700006322002a020700e064220025
:104048003081880080652200408188000900e000f6
:10405800c1ff3200dbff3700889fbe0001047800f3
:1040680029818000890440001c90ec004e02070062
:10407800e18080009900980020818000890f50001d
:104088000b0036008180e800408180002a0207008a
:104098000800e00004003200e1808000ec8040006d
:1040a80008007800240207004f04be000000060044
:1040b8008180e800308180001f020700f4ff37008c
:1040c800889fbe008a9fbe00a963220080318100bc
:1040d8000000e0001c003200f8f12f0011028000ff
:1040e800010064000050a0001002880000000000d9
:1040f80000000000b0318100300590006c004500e0
:1041080029020700200420001008640000000000b5
:104118008a85e8000b007800230207003a0890001f
:104128001e10e30001003100f0808800ea00b900a9
:10413800008044008b007800f50107008031810081
:104148000000e000e5ff3a00d2f30700018180009b
:10415800810050001181880020818000f8f12f0033
:10416800330032000000e800208188008100e90067
:10417800118188000000e000540032003181800085
:104188001100e00027003200b100900031059000d6
:104198009a009000808f500022003e00110280009b
:1041a800010064000050a000100288000000000018
:1041b800000000008a85e8000b007800fa0107007b
:1041c8002a0890000000e000020032006c00450060
:1041d800f50107002004200010086400000000001a
:1041e8003a0890001e10e30001003100f0808800ba
:1041f800ea00b900008044008b007800c401070081
:10420800308180001000e00035003200300090005e
:1042180030059000208180009a009000808f500027
:10422800deff3600118180000100e000cdff3a007a
:1042380000818800f1808000ea08b900008144000c
:104248001200e00010003a000100e0001c003200fb
:104258000100e900ea01b900a163220081004100e0
:104268001100e00006003a00ea8050000000e0007b
:104278001e0032000000e9001100e000faff3200e1
:10428800f0808800ea00b900808044009100900026
:1042980091009000008144000129780064004000ea
:1042a80080844400898f500015003200310090004e
:1042b800e0808800c008900010017800020001002a
:1042c8004f05be004f04be0000000600328180008a
:1042d800418180003181880042818800a8ff370031
:1042e8002081800011818000cfff3700f080880096
:1042f8004f05be004f04be0000000600f3ff370064
:10430800910090000109780031009000e080880059
:10431800c00890001001780002000100e8ff370093
:10432800889fbe003000900030049000ec044400e8
:10433800090078009c0107008900780000632200ca
:10434800730107001000200038099000e180800008
:10435800b1089000810f5100010031000000eb000e
:104368004f04be0000000600881f7800c00020002f
:1043780065020700000478000800e000030032002e
:10438800080078000018eb005601070008007800c4
:104398004f04780000000600889fbe008a9fbe0078
:1043a8008c9fbe0080047800010478000205be00de
:1043b8008406780035f30700190678000b00e00042
:1043c8000c003a000c0064000d0032000a00e00006
:1043d800020032000884ea008c0c64009bf307009a
:1043e8000c0078004f06be004f05be004f04be000b
:1043f800000006000c006400800f5400f3ff320038
:104408000d00e000f5ff3200011020000a00e00076
:10441800260032000b00e0000100320001a0a000dd
:10442800810074000980e8000d01780075f4070028
:1044380086f307000000e00003003a008825020028
:10444800000000000000000050f50700000678009a
:104458000c98a300070032000c007800f00fb2009f
:104468004f06be004f05be004f04be000000060008
:10447800e0ff37000b010700190678000b00e00089
:104488000e003a000c006400040032000a00e0004c
:10449800020032000884ea008c0c6400090107005d
:1044a8000c007800f00fb200edff37008000eb0041
:1044b8000b00e000daff3200d8ff37000c00640080
:1044c800800f5400f1ff3200fe000700f4ff3700b0
:1044d800889fbe008a1f78000004780001057800d4
:1044e800f0000700980478008a80ea00098c6000d0
:1044f800f4000700090078004f0578004f04be005b
:10450800000006001000780000000600889fbe002a
:104518008a9fbe008c9fbe0080047800010478004a
:1045280066854400d9f2070049009000990074009c
:10453800810c78008086eb00800f55002100320046
:104548008006eb000cf02f000b40200010049000b8
:10455800100178008c016100f20fb2000b8261003b
:1045680012003a0002826000060032000388a300ad
:10457800010032008d0671000190a0005df4070073
:1045880099007800880f55000d00320099007800d6
:104598000800780010049000100178008c01610078
:1045a800f20fb2000b826100eeff3200028260005f
:1045b800820f5200edff3200880f5500f3ff3a00da
:1045c8008d86ea00818c660020f3070019007800c8
:1045d8004f06be004f05be004f04be000000060097
:1045e800889fbe008a9fbe008c1f78000004780058
:1045f800010578008204780003067800a3f207001a
:10460800980578008a00780008007800bfff070046
:104618000a8575000a806400890f5000090032007d
:104628000c00e0000b003a001805780007f30700bb
:104638000a0078004f0678004f05be004f04be0000
:10464800000006000080ea00180c6000fff2070076
:10465800f7ff370001502000898070000880e800cb
:104668000c017800e7f30700f8f207000000e0000b
:1046780003003a0088250200000000000000000046
:10468800c2f40700000578000a98a300070032006a
:10469800fa0fb2000a0078004f0678004f05be00f6
:1046a8004f04be0000000600e6ff37007d0007004b
:1046b800180578000a806400890f50000300320052
:1046c80080000700fa0fb200f2ff37008984ea0081
:1046d8000a8c64007b000700faff3700881f780007
:1046e8000004780069f20700180090000000e0005c
:1046f800060032004800900001202000fdf307006a
:10470800180090000000e000faff3a000800780066
:10471800a3010700cdf207004f047800000006004f
:104728008200780079ff37008200780068ff370040
:10473800af03b0008e1f780083fc2f0083814700f1
:10474800e44c28001a000900b4197800b1a79f00aa
:1047580080017800bfa09700811978008019eb00cc
:104768008019eb00821978006efc2f000f074700b4
:10477800e003b00083007800de187800808f5000d6
:10478800fdff3a0060032000030040002302800080
:10479800031878009401800004187800a1018000b3
:1047a800011878000018eb004f077800af03b1003c
:1047b80000000600000006004deaa900f08f2f0057
:1047c8004c2ab600f0f32f004c0ab6000070a00087
:1047d800605288004d6aa900518aa9004c8aa90034
:1047e8004caaa90000ff2f004c2ab6000000400088
:1047f8004e2ab600905f210000538800622aef001d
:104808005c2aef00f0f82f008c08b6000040a000ea
:10481800604488001328a9003328a8004deaa8009e
:1048280000000600e4ff0700008080009007780081
:104838004f007800c08188003400f9003200f90088
:104848004400f9004000f9003e00f9003c00f9007e
:104858003a00f9003800f9002c00f9002a00f900a4
:104868002800f9002600f9002400f9002200f900c8
:104878005400f9003600f9004f0778004f06be00d3
:104888004f05be004f04be004f03be004f02be00de
:104898004f01be004f00be004200f90000000600b4
:1048a80010000500f0f12f004200b6000050a000f3
:1048b8001002880000000000000000003830ec0002
:1048c800000006003810ed00c081880001003200a9
:1048d80000000600f0f12f004220b60000000000a2
:1048e80000000600e4004000110098000081eb0081
:1048f8002200980031009800410098000008eb0061
:10490800000006008000eb0041009800000006004f
:104918001001900092009800a2019000a300980056
:10492800a20190009101980021019800c000980010
:104938001008e8000000060011027800e10f4200ac
:104948000f003200e401400013019000920f520062
:10495800040039008201780013019000920f520080
:10496800fcff31009200980021019800a3009800f4
:1049780091019800c00098001008e80000000600a7
:10498800c001900013019000920098002101980046
:10499800a300980091019800c00098001008e80052
:1049a80000000600f6ff3700c000900010019000dc
:1049b800a001900023019800a001900092019800a6
:1049c80011019000800f5100050032000001eb003a
:1049d800420098001100e9008008780000000600f5
:1049e800930098000001eb00420098001100e900d4
:1049f8008008780000000600f9ff37000e00fa0072
:104a0800889fbe00cdfb07000040eb00c0f79f0069
:104a1800d0f79f0080ff9f0018c0b300e8ef9f0009
:104a2800f9c0b300f9ef9f00afb897003fb99700fe
:104a3800cfb997005fba9700728057006bf90700eb
:104a4800c7fb070088f79f0099f79f008840780008
:104a58007080570043fb07005000200048f2070011
:104a6800a8f79f00b9f79f006e80570079fb0700f1
:104a78005000200042f20700a8f79f00b9f79f00f6
:104a88006e80570073fb0700f3ff37000a00fa0037
:104a9800881f780000047800a8fb07000040eb009e
:104aa800e0f79f00f0f79f00a0ff9f00bfb89700b6
:104ab8004fb99700dfb997006fba970008007800e0
:104ac8004af90700a6fb070011c0b30008007800e8
:104ad80024fb07006ff10700a0bf9f001101200011
:104ae8006c80570033f207000800780059fb070074
:104af800110120006c8057002ef207000800780092
:104b080054fb0700f5ff37004200f800801f7800cb
:104b18000002200010028800811f7800829fbe00da
:104b2800849fbe00869fbe00889fbe008a9fbe00ed
:104b38008c9fbe008e1f78003600f8005400f800e5
:104b48002200f8002400f8002600f8002800f800e9
:104b58002a00f8002c00f8003800f8003a00f800a5
:104b68003c00f8003e00f8004000f8004400f8005f
:104b78003200f8003400f800c0818000801f7800ff
:104b8800008080000f0878001c0a02000000000066
:104b980000808000900778004f007800c08188006e
:104ba8003400f9003200f9004400f9004000f9002f
:104bb8003e00f9003c00f9003a00f9003800f9001d
:104bc8002c00f9002a00f9002800f9002600f90055
:104bd8002400f9002200f9005400f9003600f90019
:104be8004f0778004f06be004f05be004f04be00b9
:104bf8004f03be004f02be004f01be004f00be0073
:104c08004200f9000000060010002300307c8800f4
:104c180070082000b0200a00880f00008c2fef00d9
:104c2800f0f82f008a0fb6000003b300507c88000c
:104c380080ff2f008a0fb6000000a000507c88007b
:104c4800f0cf2f008a2fb60010102000707c88004b
:104c580060092000807c880010042000907c880077
:104c68009a2fef00b82fef00ba2fef00be2fef00fa
:104c7800016da900a42fef00a54fa800a4efa8007c
:104c8800a42fa800a44fa800a62fef00a82fef007c
:104c9800a82fa800aa2fef00ae2fef00b02fef002b
:104ca800b22fef00b36fa800b38fa8001000200048
:104cb800a20920008107200053f8200081497800cc
:104cc800824978008049780072052000610420003c
:104cd80043f82000814978008249780080497800ab
:104ce800840fab00feff3a0084afab00feff32003a
:104cf80000000600c1e8a900c3e8a80000000600fb
:104d08000000fe0000000600881f780000047800fc
:104d18000808a300020032000800a1000884e80087
:104d2800daf007003610e2000a003200a0818000a5
:104d3800800044000004eb00d23f2100828f500025
:104d48000d00360041f10700080078004f04780094
:104d580000000600c00321000000a100b081880007
:104d6800a0818000800044000004eb00d23f2100b5
:104d7800828f5000f3ff3e00810f5000f1ff310099
:104d88003610b40000047800a18188002ff10700d4
:104d9800080078004f04780000000600edff370097
:104da800000006003430ef0000000600a0818000fb
:104db800e13f210000805000000006000200fa00d8
:104dc80091ff0700cbff07008002eb0024002000c2
:104dd8008501780002102000415028002050220050
:104de80046ef070010c0b300e0ff9f00e0c0b3002b
:104df800f0ff9f008002eb00340020008f81e90063
:104e08000210200091502800a05422003bef070018
:104e18007ef007000000eb000080fa0000000600aa
:104e28000200fa00a6fc070040c0b300e0ff9f00a4
:104e38000040eb00f0ff9f000f80e90085fa0700b3
:084e48000080fa0000000600e2
:020000040000fa
:104e50003026000032000000800000001c1000001e
:104e60000e000000800000003a240000f60100005f
:104e700080000000001000001c0000008000000006
:104e80009426000014000000800000002a1000009a
:104e90000a000000800000003a100000001400002a
:104ea00080000000341000000400000080000000ba
:104eb000381000000200000082000000ef00000037
:104ec000622600003200000080000000a8260000da
:0c4ed00014000000800000000000000042
:020000040000fa
:104edc00c800de00f3cf500004003e008180fb00d0
:104eec00826a220081004100914870000000060097
:104efc00c800de00826a220081004100114060007f
:104f0c000080fb000000ea004f00de0000000600fd
:104f1c004800de00816a22000080400010407800ca
:104f2c0000000600c800de00f3cf500005003e0074
:104f3c008180fb00826a22008100410000c0ea00ef
:104f4c009148600000000600806a220013000900ee
:084f5c000058eb000000060004
:020000040000fa
:02000004000af0
:04fe0000fdff000002
:020000040000fa
:02000004000af0
:04fe2000ffffff00e1
:020000040000fa
:02000004000af0
:04fe300078ffff0058
:020000040000fa
:02000004000af0
:04fe38003bffff008d
:020000040000fa
:02000004000af0
:04fe4000e02bff00b4
:020000040000fa
:02000004000af0
:04fe4800ffffff00b9
:020000040000fa
:02000004000af0
:04fe5000de7fff0052
:020000040000fa
:02000004000af0
:04fe58001000ff0097
:020000040000fa
:02000004000af0
:04fe60000000ff009f
:020000040000fa
:02000004000af0
:04fe6800ffffff0099
:020000040000fa
:02000004000af0
:04fe70008000ff000f
:020000040000fa
:02000004000af0
:04fe7800ffffff0089
:020000040000fa
:02000004000af0
:04fe8000fffcff0084
:020000040000fa
:02000004000af0
:04fe8800ffffff0079
:020000040000fa
:02000004000af0
:04feb000ffffff0051
:020000040000fa
:02000004000af0
:04fec000ffffff0041
:020000040000fa
:02000004000af0
:04fed000ffffff0031
:020000040000fa
:02000004000af0
:04fee000fffbff0025
:020000040000fa
:02000004000af0
:04fef000ffffff0011
:020000040000fa
:02000004000af0
:04ff1800ffffff00e8
:00000001FF
